:1000000000000220990100005D1800001D1800008A
:100010001D1800001D1800001D1800001D1800000C
:100020001D1800001D1800001D1800005D180000BC
:100030005D1800001D1800009D4100004D410000AA
:100040005D1800005D1800005D1800005D180000DC
:100050005D1800005D1800005D1800005D180000CC
:100060005D1800005D1800005D1800005D180000BC
:100070005D1800005D1800005D1800005D180000AC
:100080005D1800005D1800005D1800005D1800009C
:100090005D1800005D1800005D1800005D1800008C
:1000A0005D1800005D1800005D1800005D1800007C
:1000B0005D1800005D1800005D1800008507000055
:1000C0005D180000453F00005D1800006D3E000017
:1000D0005D180000953D00005D1800005D180000EF
:1000E0005D1800005D1800005D1800005D1800003C
:1000F0005D1800005D1800005D1800005D1800002C
:100100005D1800005D1800005D1800005D1800001B
:100110005D180000850D00005D1800005D180000EE
:100120005D1800005D1800005D1800005D180000FB
:100130005D1800005D1800005D1800005D180000EB
:100140005D1800005D180000D10600005D18000079
:10015000C93C00005D1800005D1800005D1800003B
:100160005D1800005D1800005D1800005D180000BB
:100170005D1800005D1800005D1800005D180000AB
:100180005D1800005D1800005D1800005D1800009B
:100190005D1800005D18000008B5574B4CF2205266
:1001A0001A804DF628121A8000BF00BF01F0E0FA55
:1001B000524B4FF030621A60514A9A60514ADA60ED
:1001C000514B4FF470021A60504A136813F4807355
:1001D00004D14F490B604FF4A85313604D4B1A786C
:1001E000110703D51A7842F008021A704A4B4B499E
:1001F0002A221A704A4A4B4B8B4204D252F8040FFF
:1002000043F8040BF8E7484B484900228B4202D2DE
:1002100043F8042BFAE74649464A002352F82300E4
:1002200041F823000133662BF8D1434B434A802128
:1002300003F8011B9342FBD1414B3D4A1A60414BED
:100240008A221A70A3F5805324225A70A0221A70B1
:100250009A799207FCD59A79D406FCD43A4A9379D4
:1002600003F00C03082B384BF9D103221A714622F4
:100270005A719A799006FCD5334A9179324B4906E6
:10028000FBD5324A4FF08271116009215160202262
:100290001A709A7902F00C020C2AFAD12C4B2D4AD2
:1002A0001A602D4B2D4A1A6000225A60072243F82B
:1002B000042C2B4AC3F80C2D62B601F0E9FA144B5A
:1002C0001B68DA0705D5274801F034FA264B274A80
:1002D0001A60274B1B785B0609D5234C234B2268F9
:1002E0009A4204D11F4801F025FA0023236004F04C
:1002F00043FA02F029F800BF0E2005403080044088
:10030000823F04000100002B88ED00E010D0034084
:1003100014D0034002D0074000E007400413FF1F41
:1003200098770000F806FF1F0813FF1F2021FF1F0A
:100330000002FF1F0000000000E400E056E400E0BF
:1003400008ED00E0005006400040064044800440B4
:1003500004800440C010050014E000E0BFD4010098
:10036000000020200C072F5A1CE00340A5C3945A1C
:1003700000F00740FFFFFFFFFFFFFFFFFFFFFFFF52
:10038000FFFFFFFFFFFFFFFFFFFFFFFFFFFFFFFF7D
:10039000FFFFFFFFFFFFFFFFFFFFFFFFFFFFFFFF6D
:1003A000FFFFFFFFFFFFFFFFFFFFFFFFFFFFFFFF5D
:1003B000FFFFFFFFFFFFFFFFFFFFFFFFFFFFFFFF4D
:1003C000FFFFFFFFFFFFFFFFFFFFFFFFFFFFFFFF3D
:1003D000FFFFFFFFFFFFFFFFFFFFFFFFFFFFFFFF2D
:1003E000FFFFFFFFFFFFFFFFFFFFFFFFFFFFFFFF1D
:1003F000FFFFFFFFFFFFFFFFFFFFFFFFFFFFFFFF0D
:10040000FFFFFFFFFFFFFFFFFFFFFFFFDEF9FFFF23
:1004100010B5054C237833B9044B13B10448AFF33E
:1004200000800123237010BD0813FF1F000000008F
:100430009C770000084B10B51BB108490848AFF382
:1004400000800848036803B910BD074B002BFBD0A0
:10045000BDE81040184700BF000000000C13FF1F4C
:100460009C7700000413FF1F0000000000BE7047CF
:1004700010B572B61C4A01232DE0511C127812F0FF
:10048000080F26D09A00194C54F832406CB9083045
:10049000164B03EBC2014860154943F83210154A68
:1004A0001378013B137062B610BD42F001020F4C8D
:1004B00054F832406CB908300C4B03EBC201486071
:1004C0000D4943F832100B4A1378013B137062B6A2
:1004D00010BD01330A46042BCFD962B60022054B6A
:1004E0001A7000F00BF810BDE87000000000FF1F4C
:1004F000880040002413FF1FC800400008B50F4BC0
:10050000C31A0F4AA2FB03231B090B2B14D80D4A55
:1005100012783AB10C4A127812F0FF0F02D0FFF7AE
:10052000A7FF08BD4FF0004222FA03F372B6074A54
:1005300011680B43136062B608BD00BF9803FF1F2C
:10054000398EE3382413FF1FE520FF1FF807FF1F34
:10055000421E032A13D872B60C4B03EB8203586871
:1005600090B110B44468094B03EB82014C600188E0
:1005700003EB42039A8A521A9A8262B601E0002083
:1005800070475DF8044B704762B670472413FF1F35
:1005900008B50A4B1B7813F0FF0F0ED0084BD86933
:1005A00020B1FFF7ABFF0022054BDA610320FFF714
:1005B000CFFF10B1FFF7A2FFF8E708BDE520FF1F4E
:1005C0002413FF1F08B5FFF7E3FF08BD08B50F4B65
:1005D000DB6953B90E4B1B7813F0FF0F0CD00320CF
:1005E000FFF7B6FF094BD86148B1084BDB694BB147
:1005F0005A881344187A08BD4FF0FF3008BD4FF0F9
:10060000FF3008BD4FF0FF3008BD00BF2413FF1FAF
:10061000E520FF1F08B5FFF7D9FF08BD10B5134B44
:10062000DB6953B9124B1B7813F0FF0F18D003206E
:10063000FFF78EFF0D4BD861A8B10C4BD8694388EA
:100640005A1C03441C7A03889A4206D3FFF756FFCC
:100650000022064BDA61204610BD4280204610BDC4
:100660004FF0FF3010BD4FF0FF3010BD2413FF1FBF
:10067000E520FF1F08B5FFF7D1FF08BD30B40F4DCF
:1006800095F8203043F002040D4A02EBC40250609A
:1006900095F821200AB1C82000E0882040EA0141F5
:1006A000074840F83410054982F0010281F8212002
:1006B00083F0010381F8203030BC70472413FF1F02
:1006C0000000FF1F0F22014B1A707047C020074027
:1006D00010B42A4B1B7913F0200F16D0274BDB796F
:1006E000D9B2274B93F8223001333F2B00D9002396
:1006F000234A92F82320D2B2934206D0204AD0183F
:1007000080F82410DBB282F822301C4BDB78DBB29D
:1007100013F0800F1FD0194A127912F0800F1AD0EF
:10072000174A92F86410C9B292F86520D2B2914289
:1007300003D16C21114AD1700DE00132272A00D972
:1007400000220F48811891F86810C9B20B4CE17172
:10075000D2B280F8652013F0400F0BD0074B1B7905
:1007600013F0400F06D00022054B83F890202C2276
:10077000024BDA705DF8044B704700BF00A00E40DA
:100780002413FF1F10B4414B1B7913F0300F36D0E8
:1007900072B63E4B9A7D02F0FF032AB93B4BDA79E1
:1007A00040225A7462B62AE062B6394A92F8910041
:1007B000C0B292F89240E4B2344AD279D1B2421C2B
:1007C0003F2A00D90022A24204D03148104480F8C8
:1007D00094101046013B13F0FF03EDD1C3B22C4A35
:1007E00082F89130D2F8D4304BB1A04201D3001B33
:1007F00001E0001B4030272801DD01221A70234B45
:10080000DB78DBB213F0800F29D0204A127912F086
:10081000800F24D01E4A92F8D840E4B292F8D92032
:10082000D2B2A2420FD001323F2A00D9002217498A
:1008300008791748104490F8DC00C0B2C871097DEF
:10084000C9B20729EDD9D2B2114981F8D9200F4A8E
:10085000127912F0800F02D07C210C4AD17013F073
:10086000400F0FD0094B1B7913F0400F0AD0084BF3
:10087000002283F81C21D3F8203103B11A703C22E6
:10088000024BDA705DF8044B704700BF00A00640D1
:100890002413FF1F08B503F0F5FD08BD08B503F0EC
:1008A000BFFD08BD044B188BDB691BB11A885B8840
:1008B000D31A1844704700BF2413FF1F08B5FFF771
:1008C000F1FF08BD72B60D4B1A68B2FA82F30B2B1A
:1008D00002D962B6002070474FF00041D94022EAA9
:1008E000010206490A6062B603EBC303DA00044959
:1008F000881800238B504360704700BFF807FF1F24
:100900009803FF1F70B5B84BB3F82C3140F28162E9
:10091000934219D8B3F5D06F80F03981B3F5817F58
:1009200000F0058106D8802B00F0D980822B00F0E2
:10093000E08053E140F20232934200F01081B3F5BF
:10094000A06F00F04E8149E142F22102934200F093
:10095000888107D8B3F5086F00F0B880B3F5106F41
:100960000BD03BE142F22122934200F02B8142F274
:100970002132934200F0358130E19B4B93F82E21D8
:100980009A4B1A7004240DE0994B53F8343013F04D
:10099000800F06D0964B03EBC40358680838FFF766
:1009A000ADFD0134132CEFDD00253BE08E4B03EB56
:1009B0008503586803E04468FFF7A0FD204600283F
:1009C000F9D1894B03EB850300225A60C3F8342127
:1009D000D3F8440103E04468FFF790FD2046002867
:1009E000F9D1814B03EB85010022C1F84421C1F804
:1009F000542103EB45018A822B4493F86431023B76
:100A0000032B0ED8DFE803F002080208764B2B44D4
:100A1000002283F8642104E0734B2B44012283F805
:100A200064210135032DC1DD00226F4B1A700124B2
:100A3000704B714D45E05E1C1B7805F8043B13F0CC
:100A4000080F31D0FFF73EFF034648B1A20008333C
:100A5000674901EB44104360684841F8320008E000
:100A6000A3000021624A42F833105F4A1378013331
:100A70001370FFF727FF024658B1A30043F00103AC
:100A800008325B4901EBC30042605D4A41F8332004
:100A90000AE0A30043F001030021554A42F8331055
:100AA000514A137801331370A30043F00200504AF7
:100AB000002142F8301043F0030342F833100134B0
:100AC0003346042CB7DD00231C46A3E0474B1B78BC
:100AD000454C84F82431012304F592749AE0424C89
:100AE000002384F8243184F82531022304F592741C
:100AF00090E03D4BB3F8303103F07F03042B02DD6F
:100B0000FFF7E0FD70BD384A002182F8241182F819
:100B100025113C4A12F8233013F0020F78D0324CE2
:100B2000012384F82431022304F5927472E02E4BE1
:100B3000B3F8303103F07F03042B03DC2A4AB2F808
:100B40002E2112B1FFF7BEFD70BD2E4911F82320F2
:100B500022F0020201F8232000231C465AE0224B17
:100B6000B3F8303103F07F03042B03DC1E4AB2F8E4
:100B70002E2112B1FFF7A6FD70BD224911F82320E6
:100B800042F0020201F8232000231C4642E01E4BE3
:100B90005C68A4B1144AB2F82E2119888A420CD19B
:100BA0001149B1F830015988884206D1120A032A46
:100BB00001D123782EE01B892CE00C33E8E7FFF706
:100BC00081FD70BD114B1A68074BC3F8682193F87B
:100BD0002E2183F86C2100231C461BE0FFF772FDD9
:100BE00070BD00231C4615E02413FF1FE520FF1FE6
:100BF0000000FF1FE8700000C4200740880040008C
:100C0000C8004000C0200740EC700000CC20FF1F4F
:100C10000223144C144AB2F83251AB4200D81D469C
:100C2000402D01D82E4600E0402631462046FFF7F1
:100C300025FD3444AD1B01D13F2E12D9402D01D8E2
:100C40002E4600E0402631462046FFF717FD34448B
:100C5000AD1B01D13F2E04D9034BC3F87041A3F85B
:100C6000745170BD4814FF1F2413FF1F38B5850849
:100C70003E4C04EBC50254F83530C3F3830352688D
:100C8000013B0C2B6DD8DFE803F01F1F6C6C6C6C04
:100C90006C6C426C6C6C07001168354BC3F82C11FE
:100CA0005268C3F83021334A44F835200022C3F893
:100CB00070212E490A618A61012483F82140FFF7DF
:100CC00021FE2D4B1C704CE0294BB3F82C1142F245
:100CD0002103994217D105E01078087001330131E2
:100CE000013201E025490023062BF5DD204BD3F826
:100CF0007831862B03D10F221D4B83F880210021F0
:100D00000846FFF7BBFC1B4B44F8353029E0184B75
:100D1000D3F87041BCB1B3F87451402D00D94025CF
:100D200029462046FFF7AAFC2C44114AB2F8743138
:100D30005B1B9BB2A2F8743113B9402D00D0002484
:100D40000B4BC3F870410A4BB3F82C31B3F5A06FCD
:100D500007D1074B002283F82D2193F82E21084B51
:100D60001A700122044B1A7038BD00BF0000FF1F2B
:100D70002413FF1FC8004000942007409C14FF1F4D
:100D800098200740F8B5964B1C78E4B214F0040F95
:100D900021D0944B1B7813F0FF0F19D0924B93F88E
:100DA000802102F0FF033AB1013BDBB28E4A82F8A8
:100DB00080310BB9FFF75AFB8C4B1A7802F0FF0316
:100DC00032B1013BDBB2894A13700BB903F004FB6B
:100DD0000422834B1A7014F0080F00F0BF80844B7C
:100DE0001878C0B2030902D1FFF740FFB2E08508CE
:100DF000804C04EBC5067268A2F10801013BDFB22A
:100E000010F0080F5FD00846FFF778FB764B03EB36
:100E10008703D3F84421002A34D05068724B03EB87
:100E20008701C1F8440102F1080171603B4493F865
:100E30006431032B1AD8DFE803F002080E146A4B62
:100E40003B44032183F8641110E0674B3B440221CB
:100E500083F864110AE0644B3B44052183F8641174
:100E600004E0614B3B44042183F8641116F0080F41
:100E700001D0C82300E08823128843EA024344F8E3
:100E8000353067E0584B3B4493F86431032B0FD85F
:100E9000DFE803F060600208534B3B44002283F814
:100EA000642157E0504B3B44012283F8642151E018
:100EB00016F0080F01D0032200E002224A4B3B4407
:100EC00083F8642146E054F835301B0C22F8083CC6
:100ED000002B37D0002322F8063C42F8043C424B5A
:100EE00003EB87035B6823B93F4B03EB8703596030
:100EF00005E03D4B03EB8703D3F8343159603A4B9F
:100F000003EB8700C0F8341132F8081C03EB4703E9
:100F10009A8A0A449A82FFF7D5FC034650B10833F7
:100F2000736016F0080F01D0334B00E0334B44F8E8
:100F300035300FE0002344F835302B4A1378013365
:100F4000137007E016F0080F01D02B4B00E02B4B7D
:100F500044F835300822224B1A7014E714F0010FC0
:100F600024D02748022303701F4A002182F8201052
:100F7000204B224C1C6002F5C2755D609C6002F53E
:100F8000E272DA60196199610D221E4B1A70FF231B
:100F90001D4A1370083A1370183211700C3A13700E
:100FA0009F221A4B1A7001230370F8BD14F0800FB2
:100FB00005D00D22134B1A708022403B1A7014F09A
:100FC000020F06D0104A1378DBB213700222044BD2
:100FD0001A7014F0100F02D01022014B1A70F8BDD5
:100FE00080200740E520FF1F2413FF1FE420FF1F80
:100FF000902007400000FF1FC8004000880040000C
:1010000094200740C02007408820074084200740E4
:10101000704700BF08B503F0F5F8002307E01E4A4B
:10102000002142F8331002EBC30251600133102B50
:10103000F5DD1A4A136843F480231360184A1368D5
:1010400043F040731360144BC3F3072102F5C92228
:101050009C321170C3F30741143211701B0E04321D
:101060001370FF23343A137008321370783A1370F8
:1010700001238432137000216C3211707C3A13709A
:101080007022084B1A704FF40012A3F231331A6029
:101090001022054B1A7008BD0000FF1F3480044069
:1010A00000D8004035E400E008210740830043F009
:1010B0000202244B03EBC2030138032841D810B4C9
:1010C00072B6214A024492F86421032A09D8DFE863
:1010D00002F021022305083302221EE00833042215
:1010E0001BE0194B03EB8003D3F844312BB9164BAB
:1010F00003EB8003C3F8441105E0134B03EB8003BB
:10110000D3F854315960104B03EB8000C0F85411F0
:1011100062B614E0032200E005220B4C204480F864
:10112000642101F108025A6013F0080F01D0C822AF
:1011300000E08822098842EA01421A6062B65DF83E
:10114000044B70470000FF1F2413FF1F01380328C2
:101150000DD872B6074B03EB8000D0F84431002065
:1011600001E001305B68002BFBD162B670470020C4
:10117000704700BF2413FF1FF8B504460F46012235
:10118000324B1A700E465AE0314B1B6873BB002578
:10119000304B1B7813F0FF0F05D100222B4B1A7038
:1011A0004FF0FF30F8BD0420FFF7D0FF07280AD822
:1011B0000122264B1A70FFF785FB254B1860A8B952
:1011C0000022224B1A7001354DF2E8039D4203D8EC
:1011D000214B93F8043233B101221F4B83F80422D0
:1011E0004FF0FF30F8BD03F0B3F8D1E700221A4BFF
:1011F00083F80422164B19684888C0F140039E42C8
:1012000000D2334601F10802024418444880F61A1D
:1012100004E0237813702B46013201345D1E002B4D
:10122000F7D14B883F2B07D940230B800420FFF7D1
:101230003DFF0022064B1A600522084B1A70002E53
:10124000A2D10022014B1A703846F8BDDD20FF1FE5
:10125000E020FF1FE520FF1F2413FF1FE420FF1FD6
:1012600000B583B002AB03F8010D01211846FFF76A
:1012700083FF03B05DF804FB08B50846FFF7F0FFF5
:1012800008BD00BF08B508461146FFF775FF08BD49
:10129000074A92F82230DBB292F82300C0B28342B0
:1012A00001D3181A70471B1A03F14000704700BFA2
:1012B0002413FF1F0D4B1B6813F4806F15D00C4BCC
:1012C000DA7802F0CB02DA7040225A74DA7842F00F
:1012D0003402DA70074B93F89220D2B283F891204F
:1012E000D3F8D4300BB100221A7070473480044018
:1012F00000A006402413FF1F0A4B93F89120D2B29E
:1013000093F89230DBB29A4209D001333F2B00D9D7
:101310000023044A134493F89400C0B270474FF07E
:10132000FF3070472413FF1F144B93F89120D2B263
:1013300093F89230DBB29A421AD010B401333F2BAB
:1013400000D900230D49C81890F89400C0B2DCB24F
:1013500081F89240D1F8D41069B1934201D8D31AE0
:1013600001E0D31A40331A2B05DC00230B7002E096
:101370004FF0FF3070475DF8044B70472413FF1F98
:10138000074A92F89130DBB292F89200C0B28342E1
:1013900001D3181A70471B1A03F14000704700BFB1
:1013A0002413FF1F074A92F8D830D8B292F8D930E8
:1013B000DBB2984203D31B1A03F13F0070471B1A9C
:1013C000581E70472413FF1F08B501E002F0C0FF4C
:1013D000034B93F81C3113F0FF0FF7D108BD00BF8A
:1013E0002413FF1F70B546182A4B1B6813F4806F37
:1013F0004ED00546284BD3F82031002B43D0012294
:101400001A7040E0244B93F8D84001343F2C00D9A7
:101410000024214B93F8D930DBB29C4227D1BC2267
:101420001E4BDA7000F052FF402816DC1B4B1B7974
:1014300013F0800F15D0184B93F8D93001333F2BA0
:1014400000D900231449CA1892F8DC20D2B21348FC
:10145000C271DBB281F8D93003E0FF2801DD02F070
:1014600077FF0D4B93F8D930DBB29C42DAD0297864
:10147000094B1A1982F8DC10012283F81C21E4B20E
:1014800083F8D8401544B542BCD3BC22034BDA7074
:1014900070BD00BF348004402413FF1F00A006402D
:1014A00038B5244B1B6813F4806F41D0224BD3F81E
:1014B00020310BB101221A7005461F4B93F8D8401A
:1014C00001343F2C20D900241EE000F0FFFE40280C
:1014D00016DC1A4B1B7913F0800F15D0164B93F8BE
:1014E000D93001333F2B00D900231349CA1892F891
:1014F000DC20D2B21148C271DBB281F8D93003E0EE
:10150000FF2801DD02F024FF0B4B93F8D930DBB24A
:101510009C42DAD0EDB2084B1A1982F8DC50012255
:1015200083F81C21E4B283F8D840BC22034BDA7064
:1015300038BD00BF348004402413FF1F00A00640C4
:10154000114B1B6813F4806F1BD0122804D140F29A
:1015500002320E4B1A600DE0142804D140F2023220
:101560000B4B1A6006E00B4A537B03F0FE035373E8
:1015700000207047074A537B43F001035373012057
:1015800070470020704700BF348004400CA0044026
:1015900014C0044000A006400F4B1B6813F4806F7A
:1015A00017D03F2810D810B50C4B03EBC0039B6D30
:1015B0000B4CC4F8D430012100F006FBD4F8D43031
:1015C00000221A70012010BD0020054BC3F8D40082
:1015D00070470020704700BF34800440E87000006E
:1015E0002413FF1F184B93F8053283422AD0174A61
:1015F000126812F4806F22D0152B06D01B2B08D056
:1016000053B90022124B1A6006E00022114B1A60F7
:1016100002E00022104B1A60152807D01B280AD0C0
:1016200068B940F213320A4B1A6008E040F21332F4
:10163000084B1A6003E040F21332074B1A60024B6A
:1016400083F80502704700BF2413FF1F3480044055
:1016500040A0044018C004403C90044010B40C4624
:1016600009B140F080001D4B1B79984233D01C4AD1
:10167000126812F4806F2CD003F07F03052B07D083
:101680001A2B09D0012B0AD10022164B1A6006E052
:101690000022154B1A6002E00022144B1A600CB1B4
:1016A000602300E0442300F07F02052A08D01A2AB4
:1016B0000BD0012A0DD143F440730A4A136008E0AD
:1016C00043F44073084A136003E043F44073074A4D
:1016D0001360024B18715DF8044B7047F807FF1F49
:1016E0003480044044A004401CC0044038900440AE
:1016F00072B60C4B1B680C4A12680C49096862B63A
:1017000011F0806F02D0322B00D90132C3F5EA33D9
:10171000BF330748A0FB03139B094FF47A7000FB0B
:101720000230704718E000E0CC20FF1F04ED00E01D
:1017300089888888044B00221A6004490A60044A98
:10174000106010221A60704714D0034004D0034088
:1017500000D003401030024B43F82010704700BF08
:101760000002FF1F704700BFFEE700BF704700BFC9
:101770001022014B1A80704700200540F0B58BB055
:1017800022B903681B68C9B2984732E01646012A9D
:1017900000D10A2621B930228DF82520212419E014
:1017A00021243746B1FBF6F206FB1212D2B22546CF
:1017B000092A02D83032D2B201E03732D2B20DF16A
:1017C000280E754405F8242CB1FBF7F111B1013C4A
:1017D000E4B2E6E733B1013CE4B20AAB23442D2284
:1017E00003F8242C03685B68C4F1220201A9214498
:1017F00098470BB0F0BD00BFF8B505460024561E53
:101800004AB12B681B684F1C097828469847044446
:1018100032463946F3E72046F8BD00BF08B50E4B07
:101820001B6813F4802F01D0FFF7ACFA0A4B1B683A
:1018300013F4806F01D0FEF7A5FF074B1B6813F46C
:10184000006F01D002F07EFB034B1B6813F4805F36
:10185000E5D002F00BFBE2E73480044008B5FFF767
:10186000DDFF00BF38B50546FFF742FF044625B946
:1018700038BD013D0AD004F57A74FFF739FF001B2B
:10188000B0F57A7FF5D202F063FDF6E738BD00BF10
:1018900070B5364B4FF000621A604FF080521A60FC
:1018A0004FF000521A604FF080421A604FF0004231
:1018B0001A6000202E4B18604EF6FF710433196039
:1018C00028232C4A13600832136008321360083250
:1018D0001360083213600832136008321360083254
:1018E0001360254D2B60254C236002F5002202F683
:1018F000D872136008321360083213600832136024
:10190000083213600832136009221D4E326006F55A
:101910008056043630600436316004363360083651
:101920003360143E326006F5FE260436306004361D
:1019300031600436336008363360143E326006F599
:101940008056043630600F4801602B6023600E4BD8
:101950001A6002F0CDFC3220FFF784FFFFF75AFB3C
:101960004FF4AF70FFF77EFF70BD00BF04E100E0F1
:10197000048003400C8003400C900B4014900B40FB
:101980000080034008900B4000900B4008B5264BA8
:101990001B6813F4806F02D108BD02F0D9FC234B01
:1019A0001B7813F0FF0FF8D14FF00042204B1A6064
:1019B0000022204BDA70204B1B78152B07D01B2BF5
:1019C0000AD06BB940F203121C4B1A6008E040F2D7
:1019D00003121B4B1A6003E040F20312194B1A600A
:1019E000194B1B7803F07F03052B08D01A2B0BD063
:1019F000012B0DD140F20312144B1A6008E040F2A3
:101A00000312134B1A6003E040F20312114B1A60E9
:101A10000023114A1370114A1370114B1B680BB14C
:101A200001221A7008BD00BF348004404014FF1F1B
:101A300080E100E000A006402915FF1F40A00440FF
:101A400018C004403C900440FC07FF1F44A0044021
:101A50001CC0044038900440B513FF1FB613FF1F8D
:101A6000F813FF1F1B4B9B7803F0EC0200F00303FD
:101A7000134310F0040F01D043F01003154A937084
:101A800000F00F03042B03D1937943F040039371CB
:101A9000104B5B7903F0EF0310F0100F01D043F00F
:101AA00010030C4A5371937903F0EF0310F0200FE9
:101AB00001D043F01003074A937110F4807F07D0E0
:101AC00013465278D2B2197841F0200119705A7039
:101AD000704700BF00A006402B4A136843F48063A0
:101AE00013600023294A1370294A1370294A13707E
:101AF000294A1370294A1370294B1B78152B07D0DC
:101B00001B2B0AD06BB940F21332264B1A6008E047
:101B100040F21332244B1A6003E040F21332234B9D
:101B20001A60234B1B78052B08D01A2B0BD0012BE6
:101B30000DD14FF451721F4B1A6008E04FF45172EF
:101B40001D4B1A6003E04FF451721C4B1A60C0F336
:101B500044321B4B1A70C0F347125A7000F01F003A
:101B6000987204229A700221D9745A7588221A74C4
:101B70003C22DA704022134B1A704FF00042A3F25D
:101B80001F331A60704700BF34800440B513FF1F35
:101B9000B613FF1FFC13FF1FFD13FF1F4014FF1F91
:101BA0002915FF1F40A0044018C004403C90044089
:101BB000FC07FF1F44A004401CC0044038900440B0
:101BC00000A006401FE400E03F2835D81B4B03EB84
:101BD000C0035B68012901D0042914D1174A52F8C7
:101BE0003020012082F880024FF4A2721A6004298A
:101BF00004D11A6842F020021A6070471A6822F075
:101C000020021A6070470D4A52F83020002082F8F6
:101C1000800219B94FF480721A607047022903D10B
:101C200040F203121A607047032903D14FF4817206
:101C30001A60704700221A60704700BF40710000B0
:101C40003F2806D8044B53F8303093F80002C0B256
:101C500070470020704700BF407100003F281ED829
:101C60000F4B53F8303093F8802212F0FF0F08D05A
:101C700019B1012283F880207047012283F80021E6
:101C80007047074B03EBC000436821B11A6842F06C
:101C900003021A6070471A6822F002021A60704745
:101CA0004071000010B50446094B1B7813F0FF0F7C
:101CB000FAD101212046FFF787FF00212046FFF7D8
:101CC000CDFF044B53F83420034B1A6010BD00BF06
:101CD0004014FF1F407100004414FF1F30B4DFEDBB
:101CE0004A7AB4EEE70AF1EE10FA03D5022447F679
:101CF000122201E00124454A00230FE022FA03F1F9
:101D000007EE901AF8EE677A9FED417A67EE877AD0
:101D1000B4EEE70AF1EE10FA02DA0133062BEDD940
:101D2000DA4007EE902AF8EE677A87EE807AF6EED0
:101D3000007A77EE677AFCEEE77A17EE902AB2F532
:101D4000803F01D34FF6FF72C11EC9B201290CD8E2
:101D5000304900200860304D28603048026003F0B0
:101D6000070343EAC4030B604BE0A0F11601C9B2BC
:101D700001290BD9092809D00A2807D0062805D03F
:101D8000142803D0152801D005280CD1244900209F
:101D90000860244D28602448026003F0070343EAEA
:101DA000C4030B602DE0A0F11D01C9B201290CD8BC
:101DB0001E49002008601E4D28601E48026003F086
:101DC000070343EAC4030B601BE002280DD00E2872
:101DD0000BD0072809D0082807D0232805D02428AD
:101DE00003D0252801D026280BD1134900200860F4
:101DF000124D28601248026003F0070343EAC4034F
:101E00000B6030BC704700BFC0E1E4400087930323
:101E10000000803700900340049003400890034086
:101E200000800340048003400880034000800B4092
:101E300004800B4008800B4000900B4004900B4046
:101E400008900B40034610B1102802D802E001238D
:101E500000E01023024A92F8B40182F8B4317047CE
:101E60008C08FF1F38B50446A0F14203DBB2012BFA
:101E700016D8934B93F8B4310B2B03D8C3F10C0352
:101E8000994003E00C2B01D90C3B1941422C03D1A2
:101E9000084602F011FA38BD084602F0F1F938BDE3
:101EA000874B93F8B4510122AA40002907DC002196
:101EB000FFF7D4FE01212046FFF786FE38BD0B4612
:101EC0008A4207D80121FFF7C9FE01212046FFF70A
:101ED0007BFE38BDC21ED2B2012A06D8794A1068EC
:101EE00000FB011222FA05F327E01D38C0B20128D9
:101EF00006D8754A106800FB011222FA05F31CE0AF
:101F0000022C0DD00E2C0BD0072C09D0082C07D09A
:101F1000232C05D0242C03D0252C01D0262C06D12F
:101F20006A48006800FB033222FA05F305E0684ABC
:101F3000126802FB011222FA05F3A21E242A00F203
:101F4000B380DFE812F079005D00640056004100C4
:101F500087008E0033003A00B100B100B10080006C
:101F6000B100B100B100B100B10048004F00250040
:101F70002C00B100B100B100B100B1006B007200E3
:101F8000B100B100B100B10095009C00A300AA000F
:101F9000504A136040F244424F4B1A6038BD4F4ADA
:101FA000136040F244424E4B1A6038BD4D4A1360F4
:101FB00040F244424C4B1A6038BD4C4A136040F228
:101FC00044424B4B1A6038BD4A4A136040F24442C7
:101FD000494B1A6038BD494A136040F24442484BAD
:101FE0001A6038BD474A136040F24442464B1A60BB
:101FF00038BD464A136040F24442454B1A6038BD32
:10200000444A13604FF45172434B1A6038BD434A3F
:1020100013604FF45172424B1A6038BD414A13604D
:102020004FF45172404B1A6038BD404A13604FF470
:1020300051723F4B1A6038BD3E4A136040F2444231
:102040003D4B1A6038BD3D4A136040F244423C4B60
:102050001A6038BD3B4A136040F244423A4B1A6062
:1020600038BD3A4A136040F24442394B1A6038BDD9
:10207000384A13604FF45172374B1A6038BD374AF3
:1020800013604FF45172364B1A6038BD354A1360F5
:102090004FF45172344B1A6038BD344A13604FF418
:1020A0005172334B1A6038BD7F29D4BF0021012102
:1020B0002046FFF7D3FD01212046FFF785FD38BDFF
:1020C0008C08FF1F0890034008800B4008900B40CD
:1020D000088003401080034004B00440188003408F
:1020E00008B00440208003400CB004402880034026
:1020F00010B004403080034010C0044038800340DA
:1021000014C004404080034018C00440488003408D
:102110001CC00440109003403090044018900340CD
:102120003490044010800B4048A0044018800B40BD
:102130004CA0044010900B4000C0044018900B408D
:1021400004C0044020900B4008C0044028900B407D
:102150000CC0044030900B4020B0044038900B403D
:1021600024B0044040900B4028B0044048900B40FD
:102170002CB0044070B53F2868D8042A66D8DFE840
:1021800002F00709050B03000B2306E00A2304E015
:10219000082302E00C2300E009230D461B0443F052
:1021A00080762B4B03EBC0035C68236813F4E06F6D
:1021B00002D10021FFF708FD26493B20FFF7CAFAAC
:1021C00025493C20FFF7C6FA24493D20FFF7C2FA13
:1021D00023493E20FFF7BEFA22493F20FFF7BAFA13
:1021E00004F14043A3F592237C2B19D904F1404319
:1021F000A3F594237C2B15D904F14043A3F5962332
:102200007C2B11D904F14043A3F598237C2B0DD9E5
:1022100004F14043A3F59A237C2B09D9002208E05E
:10222000114A06E0114A04E0114A02E0114A00E0B6
:10223000114A5AB1C4F3840172B6236823F470239F
:10224000236042F821503343236062B670BD00BF63
:1022500040710000F906FF1F2907FF1F5907FF1FE4
:102260008D07FF1FC107FF1F8C08FF1F0409FF1FF9
:102270006409FF1F9409FF1FD409FF1F70B40024D5
:10228000B0FBF2F302FB130326460D19092B02D80B
:102290003033DBB201E03733DBB22B70B0FBF2F04E
:1022A00008B10134ECE7013600238B5505E0CA5C28
:1022B000085DC8540A550133013C9C42F7DC0846CE
:1022C00070BC704708B504F007FF08BDEFF3138337
:1022D000ABB9EFF31083ABB9EFF3058323B10F2B49
:1022E00005D9094A985C03E04FF4807000E00020B3
:1022F000EFF311833BB1984205D9184670474FF070
:10230000FF30704700207047F0E300E0FEE700BFB9
:1023100008B50C4BD3F8B83188B16A461818A2F545
:102320000052904206D302F021FA0C2303604FF0D2
:10233000FF3008BD034AC2F8B801184608BD184668
:1023400008BD00BF8C08FF1F08B500F0B9FE01F002
:102350005BFC01F0FDFFFAE72DE9F04F85B0824606
:1023600016461F469DF838401046194603F0C8FB34
:1023700040B1DAF800305B6803225F495046984765
:102380008346AEE027F000494FF0FF325B4B30460A
:10239000494603F0B5FB48B94FF0FF32574B304682
:1023A000494603F08FFB08B9012300E0002343B145
:1023B000DAF800305B68032251495046984783465B
:1023C0008FE04FF060424F4B3046394603F08EFBB2
:1023D00040B1DAF800305B6803224B495046984719
:1023E00083467EE04FF06042484B3046394603F06A
:1023F0005FFB40B1DAF800305B6803224249504687
:10240000984783466DE0002200233046394603F0AA
:102410004FFB28B107F100431F464FF0010801E0D0
:102420004FF00008002500203949A54207D230A30B
:10243000D3E9002303F0CAF80135EDB2F5E702460F
:102440000B463046394602F00FFF06460F4603F0B2
:1024500095FB054603F044F802460B4630463946E4
:1024600002F000FF06460F4643460A222946504620
:10247000FFF784F98346A4B32E238DF800300F2C88
:1024800000D90F24012504F1FF385FFA88F80CB356
:102490000022204B3046394603F098F806460F4696
:1024A00003F06CFBC0B205F101095FFA89F904ABD6
:1024B0001D4400F1300305F8103C03F021F80246FA
:1024C0000B463046394602F0CDFE06460F464446DE
:1024D0004D46D8E7DAF800305B682A466946504630
:1024E0009847584605B0BDE8F08F00BFAFF30080B5
:1024F000000000A09999B93FF0730000FFFFEF7F43
:10250000F4730000FFFFEF41F8730000FFFFEFC11D
:102510000000E03F0000244010B5144603685B68EB
:102520009847204610BD00BF00B583B0054B1B88FF
:10253000ADF8043003685B68022201A9984703B034
:102540005DF804FB4073000008B5002902DA494237
:102550002D2300E000230A22FFF710F908BD00BF79
:10256000704700BF704700BF01281ED14FF6FF73B0
:1025700099421AD110B584B000238DF804304FF47D
:102580007A7202928DF80C3004A9084B41F8103D84
:10259000074C4FF4E132204601F074FA054A06492F
:1025A000204602F0D7F804B010BD704788730000D1
:1025B0003015FF1FF407FF1F9935000008B50023F1
:1025C000312B06D803F11002120100218150013392
:1025D000F6E70023C0F82034C0F824344361836157
:1025E000C36180F82030012380F82130FEF7C8FE57
:1025F00010B1FEF799FEF9E708BD00BF014B03607B
:10260000704700BF04740000014B0360704700BFB7
:1026100014740000014B0360704700BF2474000075
:1026200008B503681B68C9B2984708BD08B50368B8
:102630001B68C9B2984708BD08B503681B68C9B2D2
:10264000984708BD08B503681B68C9B2984708BD1C
:10265000704700BF0020704710B504461120FFF7F7
:10266000EFFA18B16369013B636110BD636901331F
:10267000636110BD08B50248FFF7EEFF08BD00BF5B
:10268000641EFF1F10B504461020FFF7D9FA18B1D9
:1026900063690133636110BD6369013B636110BD10
:1026A00008B50248FFF7EEFF08BD00BF641EFF1F1C
:1026B00010B504461B20FFF7C3FA18B12369013B8C
:1026C000236110BD23690133236110BD08B50248A1
:1026D000FFF7EEFF08BD00BF641EFF1F10B50446E4
:1026E0001A20FFF7ADFA18B123690133236110BD39
:1026F0002369013B236110BD08B50248FFF7EEFFD7
:1027000008BD00BF641EFF1F10B504460E20FFF772
:1027100097FA18B1E368013BE36010BDE368013349
:10272000E36010BD08B50248FFF7EEFF08BD00BF2B
:10273000641EFF1F10B504460F20FFF781FA18B181
:10274000E3680133E36010BDE368013BE36010BD63
:1027500008B50248FFF7EEFF08BD00BF641EFF1F6B
:1027600008B500210E20FFF72FFA00210F20FFF7F8
:102770002BFA00211B20FFF727FA00211A20FFF770
:1027800023FA00211120FFF71FFA00211020FFF784
:102790001BFA03220E490E20FFF7ECFC03220D4921
:1027A0000F20FFF7E7FC03220B491B20FFF7E2FC99
:1027B00003220A491A20FFF7DDFC032208491120F1
:1027C000FFF7D8FC032207491020FFF7D3FC08BD10
:1027D0005127000025270000F9260000CD26000023
:1027E000A1260000752600002DE9F0472DED048B91
:1027F00084B08246C3695A6892ED027ADFED3C7A72
:10280000C7EE278A90ED018A38EE888A80ED018A2A
:102810005E68306802F086FE04460D4618EE100A27
:1028200002F080FE41EC190B41EC100B03F018FA9A
:1028300053EC102B8DED000B2046294602F0C6FE0E
:1028400080468946706802F06DFE06460F46B0EE7F
:10285000490AF0EE690A03F063FA53EC102B8DED90
:10286000020B3046394602F0B1FE02460B464046A6
:10287000494602F0F7FC03F0A1F908EE100A3246CF
:102880003B46DDE9000102F0A1FE06460F46DDE908
:1028900002232046294602F099FE02460B463046A6
:1028A000394602F0E1FC03F089F9DAF808305B6898
:1028B000D3ED007A77EE887AC3ED007ADAF8083043
:1028C0005B68D3ED017A07EE100A77EE877AC3EDE5
:1028D000017ADAF808305B68D3ED027A77EEA87AED
:1028E000C3ED027A04B0BDEC048BBDE8F08700BFF5
:1028F0000000AA4270B5044672B690ED036AD0EDAE
:10290000046A90ED057A0023C3600361436162B6F7
:1029100083695B68B8EEC66ADFED367AC6EE275A81
:10292000C3ED005A83695B68F8EEE66A86EEA76A33
:1029300083ED016A83695B68B8EEC77AC7EE276AE0
:10294000C3ED026AC26981692B4801F0C5FD70B10F
:1029500006462A4D2B685B68372229492846984746
:1029600031462846FFF7F0FD2846FFF7DDFD2046FB
:10297000FFF73AFF236A5B68A2695268D2ED006AEA
:10298000DFED207A86EEA77A83ED007A236A5B6812
:10299000A2695268D2ED016A86EEA77A83ED017AC8
:1029A000236A5B68A2695268D2ED026A86EEA77A52
:1029B00083ED027A636A5B68E2695268D2ED006A6D
:1029C00086EEA77A83ED007A636A5B68E2695268F3
:1029D000D2ED016A86EEA77A83ED017A636A5B68BD
:1029E000E2695268D2ED026A86EEA77A83ED027A36
:1029F00070BD00BF04DA6E41480AFF1FA00AFF1F26
:102A000030740000CDCC4C3D10B50446FFF7F6FD08
:102A100028212046FFF756FC204610BD10B504467D
:102A2000034B03605421FFF74DFC204610BD00BF4F
:102A30001474000010B50446FFF7ECFD0C2120468D
:102A4000FFF740FC204610BD10B52DED028B04466B
:102A50001D4B03609FED1D8A80ED018A00234361B9
:102A60000361C360B0EE481AF0EE480AB0EE480ABF
:102A700001F09AF86062B0EE481AF0EE480AB0EE43
:102A8000480A01F091F82062B0EE481AF0EE480AC8
:102A9000B0EE480A01F088F8A061B0EE481AF0EEF6
:102AA000480AB0EE480A01F07FF8E061B0EE481A3B
:102AB000F0EE480AB0EE480A01F076F8A060204631
:102AC000BDEC028B10BD00BF0474000000000000CC
:102AD00010B52DED028B04461A4B03609FED1A8A48
:102AE000B0EE481AF0EE480AB0EE480A01F05CF881
:102AF0002065B0EE481AF0EE480AB0EE480A01F040
:102B000053F860600023E364A364636484ED048A83
:102B100084ED038A84ED028A84ED078A84ED068AB7
:102B200084ED058A094BA36263622362084B6363E9
:102B30002363E362074B2364E363A3632046BDEC96
:102B4000028B10BD14740000000000009A99993E99
:102B5000CDCC4C3ECDCCCC3D38B51446D8B20D1EB4
:102B600001DD012100E00021FFF778F885EAE57139
:102B7000A1EBE571E0B2FFF775F938BDF0B595B09E
:102B8000044600230293039304930323ADF800301B
:102B90000123ADF8023002AB01936A4641689248C6
:102BA00001F09AFC70B10646904D2B685B683822A4
:102BB0008F492846984731462846FFF7C5FC2846E6
:102BC000FFF7B2FC8B4B1B6A019AD2ED006A5B687F
:102BD000D3ED007A76EEE76A92ED017AD3ED017AD1
:102BE00037EE677A92ED026AD3ED027A76EE677A73
:102BF000DFED815ACDED055A94ED026A36EE866A14
:102C00008DED066A7D4B0793B4EEE56AF1EE10FA9E
:102C100001D805AB00E006ABD3ED005A9FED786A12
:102C2000F4EEC65AF1EE10FA00DD07ABD3ED005A10
:102C3000C4ED025A9FED705A8DED085A94ED036A67
:102C400037EE066A8DED096A6C4B0A93B4EEC56ADD
:102C5000F1EE10FA01D808AB00E009AB93ED005A91
:102C60009FED676AB4EEC65AF1EE10FA00DD0AABCA
:102C700093ED006A84ED036ADFED5F4ACDED0B4A08
:102C800094ED045A37EE855A8DED0C5A5B4B0D933B
:102C9000B4EEE45AF1EE10FA01D80BAB00E00CAB45
:102CA000D3ED004A9FED565AF4EEC54AF1EE10FA04
:102CB00000DD0DABD3ED002AC4ED042A94ED053AF6
:102CC00036EEC33AD4ED063A77EE633A94ED074A0E
:102CD00037EEC44AC4ED056A84ED067AC4ED077A7E
:102CE00094ED085A66EE854AD4ED0B6A65EEA66A45
:102CF00034EEA65AD4ED0E6A63EE266A75EE266AA5
:102D0000D4ED095A27EE255A94ED0C7A26EE077A6F
:102D100075EE075A94ED0F7A23EE877A35EE877AAF
:102D200094ED0A6A67EE865AD4ED0D7A62EEA77AC0
:102D300035EEA76AD4ED107A64EE277A76EE277A1C
:102D40006FF0FA030E93FDEEE66A16EE903ACDEDC3
:102D50000F6A13F1FA0F01DA0EAB00E00FAB1A683D
:102D6000FB2A00DD274B1F686FF0FA031093BDEEBE
:102D7000C77A17EE103A8DED117A13F1FA0F01DAD6
:102D800010AB00E011AB1A68FB2A00DD1D4B1E687A
:102D90006FF0FA031293FDEEE77A17EE903ACDED5D
:102DA000137A13F1FA0F01DA12AB00E013AB1A68D1
:102DB000FB2A00DD134B1D682423232239462046BD
:102DC000FFF7CAFE1D231E2231462046FFF7C4FE30
:102DD0001723152229462046FFF7BEFE6764A66426
:102DE000E56415B0F0BD00BF500AFF1FA00AFF1F29
:102DF00068740000641EFF1F0000FAC40000FA445B
:102E00000000FA442C74000008B52DED028B082058
:102E1000FFF718F801212320FEF7D6FE0121242018
:102E2000FEF7D2FE9FED118AB0EE480A2320FEF78E
:102E300055FF01211E20FEF7C7FE01211D20FEF7D0
:102E4000C3FEB0EE480A1E20FEF748FF0121152000
:102E5000FEF7BAFE01211720FEF7B6FEB0EE480AD3
:102E60001520FEF73BFFBDEC028B08BDBAE16444C0
:102E7000F0B52DED028B8BB006461F4B586802F063
:102E800051FB41EC180B41EC100B02F0E9FE51EC48
:102E9000100B02F093FE0546B0EE480AF0EE680A09
:102EA00002F03EFF51EC100B02F088FE0446242293
:102EB000002101A801F088FC4FF07E530993019591
:102EC000029407EE904AF1EE677ACDED047A05950B
:102ED000736801AC5D6809AF26460FCE2860696053
:102EE000AA60EB6034461035BE42F5D130682860E8
:102EF0000BB0BDEC028BF0BD641EFF1F10B5044685
:102F0000084B03609FED080AB0EE401AF0EE400A4D
:102F100000F04AFEA0600321084600F021FE606038
:102F2000204610BD247400000000000008B50846CB
:102F3000FEF7B6FA012008BD08B50846FEF7B0FA5C
:102F4000012008BD38B50D46084602F019F90446BF
:102F500001462846FEF746FA204638BD10B5084619
:102F600014461146FEF73EFA204610BD08B5FEF79E
:102F700019FA08BD08B5FEF79DF908BD08B5FEF7BA
:102F800023FA08BD08B5FEF7CFF908BD08B5FEF76E
:102F9000B3F908BD08B5FEF7F3F908BD08B5084652
:102FA000FEF7CEFA003018BF012008BD08B508466C
:102FB000FEF7F2FA003018BF012008BD08B5084638
:102FC0001146FEF74BFB08BD08B50846FEF70AFBA5
:102FD00008BD00BF08B50846FEF764FE08BD00BF87
:102FE00008B5FEF7D3FC08BD10B51446054B03EB3E
:102FF0005100B0FBF1F0FEF76FFD2046FEF732FD09
:1030000010BD00BF001C4E0E08B5044B03EB510071
:10301000B0FBF1F0FEF760FD08BD00BF001C4E0ED6
:10302000704700BF704700BF01280ED14FF6FF73F5
:1030300099420AD110B5054C2046FFF705FD044A18
:103040000449204601F086FB10BD7047641EFF1F37
:10305000F407FF1FFD25000010B5044672B60023DB
:103060004360002343610361C360806800F066FD34
:10307000A06900F063FDE06900F060FD206A00F0E7
:103080005DFD606A00F05AFD62B610BD83685A6843
:1030900000231360826852685360826852689360AC
:1030A000704700BF38B504460D46084602F068F880
:1030B00023685B68024629462046984738BD00BF12
:1030C00010B582B0FFF74CFB1948FFF79DFE194C75
:1030D00019492046FFF7E6FF2046FFF725FA01F0E1
:1030E0009FF9164800F012FD154B1B680193019AD9
:1030F000144B1A60144C0023237001210D20FEF79D
:1031000063FD21780D20FEF7A9FD104C10492046E3
:1031100000F098FC0F49204600F0A6FC0E4920461E
:1031200000F080FC0D49204600F06AFC02B010BDA2
:103130008C1EFF1FA00AFF1FA4740000E01EFF1FCB
:10314000CC20FF1FF81EFF1FFC1EFF1F3015FF1FA6
:10315000593900000D390000E5350000D53900006F
:1031600008B5FFF7C7FB08BD01280ED14FF6FF7366
:1031700099420AD110B5054C2046FFF7A9FC044A34
:103180000449204601F0E6FA10BD70478C1EFF1F6F
:10319000F407FF1F0926000010B50446242323224C
:1031A0000021FFF7D9FC1D231E2200212046FFF736
:1031B000D3FC1723152200212046FFF7CDFC6068C1
:1031C00000F0BCFC206D00F0B9FC0023022B10DCE9
:1031D0009A1C04EB8202002111601A1D04EB82028A
:1031E000516003F1100204EB8202002151600133AF
:1031F000ECE710BD08B5FFF7C1FC08BD704700BF84
:1032000001280ED14FF6FF7399420AD110B5054C33
:103210002046FFF773FE044A0449204601F09AFA5B
:1032200010BD7047581EFF1FF407FF1F1526000032
:1032300010B50446406800F081FCA06800F07EFCF8
:1032400010BD00BF30B587B00446FFF711FE002364
:103250000393049305930123ADF806300323ADF8DF
:10326000043003AB029301AAA168606801F034F94D
:1032700070B105460C4C23685B683F220B49204621
:10328000984729462046FFF75FF92046FFF74CF99B
:10329000074B5B685B68029A106851689268186017
:1032A00059609A6007B030BDA00AFF1FAC740000DF
:1032B0008C1EFF1FFFFFFFFF0A460023082B01DCC7
:1032C0000133FBE784B001AB1068516803C3127A85
:1032D0001A7003230020082B06DC04AA1A4412F8F3
:1032E0000C2C50400133F6E704B070470A46002327
:1032F0000A2B01DC0133FBE784B001AB1068516895
:1033000003C31189927A19809A70032300200A2B33
:1033100006DC04AA1A4412F80C2C50400133F6E7DC
:1033200004B0704710B400231C46312B0ED803F1B3
:10333000100200EB021212798A4205D103F1100249
:1033400012010024845001240133EEE720465DF889
:10335000044B704770B58AB004460D464B78052B78
:1033600000F2A280DFE803F0030735677993C9789C
:10337000FFF7D8FF98E0C978FFF7D4FF0021D4F811
:103380002424D4F82004121A28324D4BA3FB0263E4
:103390005B0903EB8303DE00931B994216D20844BA
:1033A000474BA3FB00235B0903EB8303DA00831A7B
:1033B0002A7904EB431090F82804121A12F0FF0F38
:1033C00002D1C4F8203401E00131D8E72B79A361A0
:1033D0006AE0B1F80300A0F5004002F091F8CDE9F1
:1033E0000401B5F80500A0F5004002F089F8CDE928
:1033F0000601B5F8070002F083F82DA3D3E90023F6
:1034000002F00EFA2CA3D3E9002301F02BFFCDE943
:1034100008010025E36C9D4246D205F1080304EB48
:1034200083035B689DED040B9DED061B9DED082B52
:1034300098470135EEE7CB7802938B8803930025FC
:10344000A36F9D4230D205F1140354F8232002AB40
:1034500093E8030090470135F2E7CB78DA098DF85D
:103460000420C3F380128DF80520C3F340138DF8B8
:1034700006300025D4F8A4309D4215D205F11E0374
:1034800004EB83035B68019898470135F2E7002558
:10349000D4F8FC309D4207D205F1340304EB8303DA
:1034A0005B6898470135F3E70AB070BDAFF3008061
:1034B000000000C0264C9040000000407A6A3F4067
:1034C000CDCCCCCC82B010B485B0044606A880E840
:1034D0000C00009101AB07C803C323F8022B120CA8
:1034E0001A700023312B10D803F110021201A258D8
:1034F0004AB9103304EB031404AB13E90F0084E85A
:103500000F00012302E00133ECE700230BB10020A0
:1035100000E0012005B05DF8044B02B0704700BF29
:1035200030B587B004460D4600230A2B06DC06AAF8
:103530001A44002102F80C1C0133F6E703AB28689B
:10354000696803C32989AA7A19809A702946204696
:10355000FFF7CCFE8DF80E00E36906AD05F80C3DD3
:103560000133E36163685B680B222946201D98479D
:10357000084B1B6802930299059BADF800301B0CA9
:103580008DF8023095E80C002046FFF79BFF07B04E
:1035900030BD00BFCC20FF1F014B0360704700BF50
:1035A000F474000082B00D4B1B680093009B4168CF
:1035B0005B1A826893420DD30AB1037833B1074B8B
:1035C0001B680193019B4360012004E00A444260B0
:1035D000012000E0002002B0704700BFCC20FF1F98
:1035E000816070472DE9F04387B059EC118B57EC9F
:1035F000126B51EC100B02F0E1FA054640464946C9
:1036000002F0DCFA04463046394602F0D7FA0A4B9B
:103610009A68526815609A68526854609B685B6843
:10362000DFED067A07EE100A67EE277AC3ED027A1D
:1036300007B0BDE8F08300BF581EFF1F0000AA427C
:1036400030B587B00546FDF79BFE002850D0FDF74A
:1036500097FE08284CDD0024082C07DCFDF764FEEB
:1036600006AB234403F80C0C0134F5E703A9284604
:10367000FFF722FE9DF80E30984239D100238DF8D5
:1036800001309DF80C308DF803306B685B680B22BD
:103690006946281D984795F82130F3B99DF80D30FB
:1036A000052B1AD09DF80C3095F820209A1A02F5B7
:1036B0008071104B0B40002B03DA013B63F0FF03DA
:1036C0000133002B14DD0B4B1340002B03DA013BBD
:1036D00063F0FF0301337F2B0ADC002385F82130E0
:1036E00006A911F80C3D85F820302846FFF732FE78
:1036F00007B030BDFF0000802DE9F04F2DED048BA9
:103700008FB004460D4616469DED1C9B43695A1C1E
:10371000794B1340002B03DA013B63F0FF030133C5
:1037200063618DF80830284601F0EAFECDE9040116
:10373000304601F0E5FECDE906018DED089B59EC20
:10374000198B4FF0000AD4F82474D4F82024B91A45
:1037500028316A4BA3FB01035B0903EB8303D80009
:103760000B1A9A4534D25244644FA7FB02377F09A3
:1037700007EB8707FB00D71A04EB471B0BF58663A3
:1037800093ED008B284601F0BBFE53EC182B01F0A3
:103790006BFD02F0CBF905460BF5876B9BED008BBB
:1037A000304601F0ADFE53EC182B01F05DFD02F048
:1037B000BDF90646223704EB4717D7E900234046F8
:1037C000494601F051FD804689460AF1010ABAE7EF
:1037D00004EB471E0EF5856E0DF1080CBCE80F00DA
:1037E000AEE80F009CE80F008EE80F000137434B56
:1037F000A3FB07235B0903EB8303DA00BB1AC4F8BE
:10380000243405F5004506F5004637A3D3E9002327
:103810004046494601F028FD35A3D3E9002301F0D5
:10382000D5FE02F083F98346354B186901F07AFE24
:10383000344F4FF0020ACDF800A002460B4638463E
:10384000FEF78AFD3B685B6801222F49384698479E
:10385000CDF800A053EC192B3846FEF77DFD3B68F0
:103860005B680122284938469847CDF800A04246B7
:103870004B463846FEF770FD3B685B6801222249E3
:103880003846984759463846FEF75EFE3846FEF7FA
:103890004BFEB5F5803F19D2B6F5803F19D2BBF586
:1038A000803F19D201238DF82D30A3698DF82F3078
:1038B00063698DF83030ADF83150ADF83360ADF854
:1038C00035B00BA92046FFF72BFE07E06FF009008B
:1038D00004E06FF00A0001E06FF00B000FB0BDECE8
:1038E000048BBDE8F08F00BF00000060FB210940A1
:1038F00000000060305FC440FF000080CDCCCCCC25
:10390000581EFF1FA00AFF1F2475000010B582B0CB
:1039100002AB03E903000D4C23685B680E220C49DF
:103920002046984700992046FEF70EFE23685B6804
:10393000142208492046984701992046FEF704FEC4
:103940002046FEF7F1FD02B010BD00BFA00AFF1F28
:10395000287500003875000010B582B00190134C36
:1039600023685B680E221249204698479DF8041090
:103970002046FEF7E9FD23685B680F220D492046CB
:1039800098479DF805102046FEF7DEFD23685B682A
:103990000F220949204698479DF806102046FEF759
:1039A000D3FD2046FEF7C0FD02B010BDA00AFF1FE8
:1039B00050750000607500007075000010B5044679
:1039C000FFF7EAFD40F628112046FEF77BFC204673
:1039D00010BD00BF10B5084C04F13400FFF7DCFB4C
:1039E00004F10C00FFF738FB2046FFF721FC0348E9
:1039F000FEF7E4FD10BD00BF581EFF1F3015FF1F6E
:103A0000D0F8FC30092B09D803F1340200EB820214
:103A100051600133C0F8FC30002070474FF0FF3098
:103A2000704700BFC36C092B08D803F1080200EBF4
:103A3000820251600133C364002070474FF0FF30B1
:103A4000704700BFD0F8A430092B09D803F11E023B
:103A500000EB820251600133C0F8A43000207047AF
:103A60004FF0FF30704700BF836F092B07D803F179
:103A7000140240F8221001338367002070474FF092
:103A8000FF30704738B505461B4B03601B4B436046
:103A90000B7903721A4B43608B68C3600B7B037412
:103AA000184B4360002444618461C46180F8204065
:103AB000012380F82130C4648467C0F8A440C0F8B2
:103AC000D040C0F8FC40104B03EB5200B0FBF2F0CA
:103AD000FEF702F82346312B06D803F1100212013B
:103AE0000021A9500133F6E70023C5F82034C5F8BA
:103AF0002434284638BD00BFF47400004C73000025
:103B00006473000088730000001C4E0E82B0034BEB
:103B10001B680193019B436002B07047CC20FF1FDC
:103B200010B5044600230370FFF75AFD2046FFF747
:103B3000EDFF204610BD00BF704700BF10B44488A1
:103B4000038803FB04F40023A34206DA426802EB75
:103B50008302002111600133F6E75DF8044B7047E2
:103B600070B505460E46082003F0AEFA044606FB83
:103B700005F0800003F0A8FA04B148B9084C0949DF
:103B80002046FFF78FFA2046FEF7CEFC002070BDDE
:103B90006680258060602046FFF7D0FF204670BD1C
:103BA000A00AFF1F8075000008B52DED048BB0EE54
:103BB000409AF0EE608AB0EE418A01210320FFF7BF
:103BC000CFFF426882ED009A4268C2ED008A4368E6
:103BD00083ED008ABDEC048B08BD00BF012810D125
:103BE0004FF6FF7399420CD110B5064C322104F107
:103BF0008800FFF795FFC82104F19400FFF790FFBC
:103C000010BD7047581EFF1F10B52DED028B84B0FC
:103C1000284B1B680293029B274AD2F8A0209B1ACC
:103C200040F2DB5293420FD9234C94F8A41081F058
:103C3000010184F8A4100D20FEF710F81D4B1B683D
:103C40000393039BC4F8A0301C48FFF7F9FC1C4801
:103C5000FFF7A8FC58B1184C04F10C00FFF780FAEC
:103C60002046FFF7EFFA04F13400FFF7C3FA1548D6
:103C7000FFF798FCD0B1104C63695B6893ED008A44
:103C8000BDEEC88AD3ED018AFDEEE88A986801F09E
:103C900049FCCDE9000118EE902A18EE101A0748E9
:103CA000FFF72AFD04F10C00FFF7F0F904B0BDECBA
:103CB000028B10BDCC20FF1F581EFF1F3015FF1FA9
:103CC000E01EFF1FEC1EFF1F10B4284B1B7913F0E2
:103CD000200F12D0254BDB79D9B2254B1B7801334D
:103CE0003F2B00D90023224A5278D2B2934204D00B
:103CF0001F4AD0180171DBB213701C4BDB78DBB2AA
:103D000013F0800F1FD0194A127912F0800F1AD0C9
:103D1000174A92F84410C9B292F84520D2B29142A3
:103D200003D16C21114AD1700DE00132272A00D94C
:103D300000220F48811891F84810C9B20B4CE1716C
:103D4000D2B280F8452013F0400F0BD0074B1B79FF
:103D500013F0400F06D00022054B83F870202C2270
:103D6000024BDA705DF8044B704700BF00B00E40A4
:103D7000001FFF1F064A1378DBB25078C0B283429F
:103D800001D3181A70471B1A03F14000704700BF97
:103D9000001FFF1F10B42A4B1B7913F0200F16D001
:103DA000274BDB79D9B2274B93F8713001333F2B86
:103DB00000D90023234A92F87220D2B2934206D04F
:103DC000204AD01880F87410DBB282F871301C4B96
:103DD000DB78DBB213F0800F1FD0194A127912F092
:103DE000800F1AD0174A92F8B410C9B292F8B520D1
:103DF000D2B2914203D16C21114AD1700DE001324F
:103E0000272A00D900220F48811891F8B810C9B2AA
:103E10000B4CE171D2B280F8B52013F0400F0BD0FB
:103E2000074B1B7913F0400F06D00022054B83F897
:103E3000E0202C22024BDA705DF8044B704700BF83
:103E400000D00640001FFF1F074A92F87130DBB216
:103E500092F87200C0B2834201D3181A70471B1A3D
:103E600003F14000704700BF001FFF1F10B42A4B32
:103E70001B7913F0200F16D0274BDB79D9B2274BD3
:103E800093F8E13001333F2B00D90023234A92F805
:103E9000E220D2B2934206D0204AD01880F8E41033
:103EA000DBB282F8E1301C4BDB78DBB213F0800F21
:103EB0001FD0194A127912F0800F1AD0174A92F8BF
:103EC0002411C9B292F82521D2B2914203D16C21BA
:103ED000114AD1700DE00132272A00D900220F4883
:103EE000811891F82811C9B20B4CE171D2B280F857
:103EF000252113F0400F0BD0074B1B7913F0400F17
:103F000006D00022054B83F850212C22024BDA7098
:103F10005DF8044B704700BF00C00640001FFF1F44
:103F2000074A92F8E130DBB292F8E200C0B2834275
:103F300001D3181A70471B1A03F14000704700BFE5
:103F4000001FFF1F10B4384B1B7913F0300F29D01E
:103F500072B6354B9A7D02F0FF032AB9324BDA79FB
:103F600040225A7462B61DE062B6304A92F851019E
:103F7000C0B292F85241E4B22B4AD279D1B2421C7B
:103F80003F2A00D90022A24204D02848104480F8D9
:103F900054111046013B13F0FF03EDD1C0B2234B87
:103FA00083F85101204BDB78DBB213F0800F29D06E
:103FB0001D4A127912F0800F24D01C4A92F89441C5
:103FC000E4B292F89521D2B2A2420FD00132272A50
:103FD00000D90022144908791448104490F8980137
:103FE000C0B2C871097DC9B20729EDD9D2B20F4953
:103FF00081F895210C4A127912F0800F02D07C21B1
:10400000094AD17013F0400F0BD0074B1B7913F006
:10401000400F06D00022054B83F8C0213C22024B02
:10402000DA705DF8044B704700B00640001FFF1FB8
:10403000074A92F85131DBB292F85201C0B2834282
:1040400001D3181A70471B1A03F14000704700BFD4
:10405000001FFF1F704700BF704700BF704700BFC1
:10406000704700BF1D4BD3F8C4312BB98360C360C8
:104070001A4BC3F8C4012EE001681A6891420BD2B2
:1040800083600022C260D86001681A68521A1A6000
:10409000124BC3F8C4011EE09A68A2B11968026805
:1040A000521A02609B6819688A42F5D28360DA6806
:1040B000C260D860C268906001681A68521A1A60BB
:1040C00002230375704719680268521A02600022C1
:1040D0008260C3609860022303757047001FFF1F52
:1040E00010B5194BD3F8C441E4B1236813B1013BB7
:1040F000236017E0A3680BB10022DA60124AC2F80D
:10410000C43100212175206903681B682246984745
:1041100063681BB123602046FFF7A4FF0A4BD3F866
:10412000C441E1E7EFF3108372B6074AD2F8C80141
:104130000021C2F8C81103B962B620B18468FFF744
:1041400091FF2046F9E710BD001FFF1F08B5044A84
:10415000D2F8CC310133C2F8CC31FFF7C1FF08BD32
:10416000001FFF1F08B5EFF3108272B60A4BD3F899
:10417000D00168B143690849C1F8D0310BB10021C1
:10418000996102B962B60023437783689847EAE7EA
:1041900002B962B608BD00BF001FFF1F08B5FFF7D8
:1041A000E1FF08BD08B54FF6FF710120FEF7DCF90D
:1041B0004FF6FF710120FFF7BFFC4FF6FF710120A2
:1041C000FFF70CFD4FF6FF710120FEF729FF4FF6B8
:1041D000FF710120FEF726FF4FF6FF710120FEF769
:1041E00023FF4FF6FF710120FEF7BEFF4FF6FF7170
:1041F0000120FFF703F84FF6FF710120FFF700F8E9
:1042000008BD00BF72B6184B70221A701749184AC1
:10421000116080221A70144B1B7813F0800FFAD0B3
:1042200000B585B0134B186862B6134B984202D89C
:104230000A2303FB00F00A2201A9FEF71FF800235E
:1042400009E004AA1A4412F80C1C31B10B4A02EB23
:10425000430251800133092BF3D901335B00074A34
:10426000137005B05DF804FB000002400000074138
:10427000040002400C0002407F969800B00AFF1F25
:104280000A4A136843F400531360C022084B1A70A3
:10429000002803DBB0F5805F02DA03E0002001E0D4
:1042A00040F6FF7000B2034B188070472C8004402A
:1042B00021D00C4000D00C400A4A136843F48053CC
:1042C0001360C022084B1A70002803DBB0F5805F32
:1042D00002DA03E0002001E040F6FF7000B2034B79
:1042E000188070472C80044021C00C4000C00C4056
:1042F0006022144B1A70E12201331A703922A3F59F
:104300006333A3F2F9331A6013230F490B6001F5ED
:10431000FF2101F2FC710A600C4A13600023A2F530
:10432000FF22A2F2EC72136002F5002213608423D4
:10433000A2F5FF22A2F2FC72136002F500221360C4
:10434000704700BF004007400CB003400CB00B406A
:10435000204B93F8D431002B3AD110B51D4C0123DA
:1043600084F8D431FDF70CF8FFF762FEFFF7D8FDB3
:10437000FFF76AFDFCF78CFFFFF7FCFC002384F8D5
:10438000D431EFF3058313BBEFF3108372B6D4F887
:10439000D80110B9DBB962B610BD0E4A92F8DC2123
:1043A00012B1A3B962B610BD0A49012281F8DC211D
:1043B0004269C1F8D8210AB10021916103B962B6FE
:1043C0000024447783689847024B83F8DC4110BD92
:1043D000704700BF001FFF1F08B5104B93F8DD3179
:1043E00013F0FF0F19D10D4BD3F8E01149B14B88F1
:1043F0000B800420FCF75AFE0022084BC3F8E02192
:1044000008BDFCF75FFA014618B10420FCF74EFE28
:1044100008BD0122014B83F8E42108BD001FFF1FE6
:1044200038B5174B93F8E53113F0FF0F26D0144B36
:10443000012283F8DD21D3F8E01159B11C46002593
:1044400083F8E4514B880B800420FCF72FFEC4F85E
:10445000E0510FE0FCF736FA014638B10022084B74
:1044600083F8E4210420FCF721FE03E00122044B41
:1044700083F8E4210022024B83F8DD2138BD00BF20
:10448000001FFF1F08B5134B012283F8DD21D3F86D
:10449000E031ABB90F4B93F8E53113F0FF0F0AD0C1
:1044A0000420FCF753FE072805D8FCF70BFA094B4C
:1044B000C3F8E00120B90020064B83F8DD0108BDF8
:1044C000044BD3F8E0215088C0F14000002283F86B
:1044D000DD2108BD001FFF1F2DE9F00F8AB05468D1
:1044E0000091009B009E1D8841887688476809944A
:1044F0008D420388079640F028811188994240F048
:1045000024815088B04240F0208105F003000290E1
:10451000029A05914FEA9508531E08F1FF34B20044
:10452000A0B2F4009EB2009B0394013004EB42045D
:104530004FEA860B4FF0000CAE005B68089600FB5C
:1045400004F507EB0016CDF80480CDF818C00495EB
:104550000BF1040B60460999DDF81C8001EB800922
:104560009FED7B6A1D464FF0000CCA46019B002B55
:1045700000F0E780D5ED007AD7ED002AB0EE462AAC
:1045800002EEA72AA818D0ED001A97ED011A039998
:10459000F0EE427A691841EE217AD1ED000A97EDEA
:1045A000020A8B1840EE207AC7EB060993ED007AD9
:1045B000D7ED036A07F11003A9F11000B342C0F36D
:1045C000001946EE877A05EB0400214460D0B9F16A
:1045D000000F20D093ED004AD0ED004A00EB020915
:1045E00044EE247A93ED013AD9ED003A43EE237A72
:1045F00093ED022AD1ED002A01EB020942EE227A64
:1046000093ED031AD9ED001A1033B342204441EE62
:10461000217A21443CD0B94693ED003AD0ED003ADE
:10462000871843EE237A93ED012AD7ED002A42EE54
:10463000227A93ED021AD1ED001A8F1841EE217AF9
:1046400093ED030AD7ED000A201840EE207AD3ED4F
:10465000046A90ED007A871846EE877A93ED055A42
:10466000D7ED005A091945EE257A93ED064AD1EDAA
:10467000004A8F1844EE247A93ED073AD7ED003ABA
:104680002033B342204443EE237A2144C4D14F4621
:1046900004996D18029850B31946B1EC014AD5ED52
:1046A000004A5B44ABF104009942C0F3800044EE41
:1046B000247A15441BD040B1B1EC010AD5ED000AB3
:1046C0009942154440EE207A11D00846F0EC016A78
:1046D00095ED007AAD1846EE877A91ED015AD5ED49
:1046E000005A011D994245EE257A1544EDD1EAECB8
:1046F000017A009B0CF101055B6808F1FF311FFA9C
:1047000085FC1FFA81F803EB8C05B8F1000F7FF4EC
:104710002DAF059DDDF818C0691E079D0CEB050047
:10472000DDF820C089B280B20591069067446644E6
:1047300000297FF410AF0B4658B20AB0BDE8F00F65
:104740007047DFED037A3B46A4E7FD23F4E700BFA3
:10475000000000000B460146184600F001B800BFFB
:1047600013460A460146022000F07CB8014B186847
:10477000704700BFF00EFF1F70B50F4E0F4D761B38
:10478000B61018BF002405D0013455F8043B9847F3
:10479000A642F9D10A4E0B4D761B02F0F1FFB6107E
:1047A00018BF002406D0013455F8043B9847A642B0
:1047B000F9D170BD70BD00BF8C7700008C77000010
:1047C000987700008C77000070B4840746D0541EA0
:1047D000002A41D0CDB2034602E0621EE4B3144683
:1047E00003F8015B9A07F8D1032C2ED9CDB245EA24
:1047F00005250F2C45EA054519D903F11002264677
:10480000103E0F2E42F8105C42F80C5C42F8085C37
:1048100042F8045C02F11002F2D8A4F1100222F076
:104820000F0204F00F041032032C13440DD91E465E
:104830002246043A032A46F8045BFAD8221F22F0E3
:1048400003020432134404F003042CB1C9B21C4423
:1048500003F8011BA342FBD170BC7047144603460A
:10486000C2E700BF2DE9F047254C2568D5F848413F
:104870000646884692469946C4B360681F2817DCEE
:10488000431C76B104EB80050122C5F888A0D4F85A
:10489000881182401143022EC4F88811C5F808918E
:1048A0001ED00230636044F820800020BDE8F0870D
:1048B000144B03B34FF4C87002F006FC0446D0B1A9
:1048C000D5F84831002780E88800C5F848413846C7
:1048D0000123C4F88871C4F88C71002EE1D0D1E7AF
:1048E000D4F88C110A43C4F88C21DAE705F5A674D4
:1048F000C5F84841C1E74FF0FF30BDE8F08700BF81
:10490000A4750000C9700000024B13B1024800F00A
:1049100005B8704700000000294900000023014647
:104920001A461846FFF79EBF38B5074D074C2C1B9B
:10493000A41005D0013C55F8043D9847002CF9D14E
:10494000BDE8384002F028BF000000000000000071
:10495000F8B5234F0C46064600F0E8FBBB685D68DF
:1049600025F00305291B01F6EF7121F47F6121F089
:104970000F01A1F58054B4F5805F07DB00213046BC
:1049800000F0D8FBBB682B44984204D0304600F0BE
:10499000CFFB0020F8BD6142304600F0CBFB013078
:1049A0000DD0104BBA6819682D1B45F00105304633
:1049B000091B5560196000F0BBFB0120F8BD002108
:1049C000304600F0B7FBBA68831A0F2BDEDD064CC9
:1049D0000449246843F00103001B53600860D5E7D5
:1049E000F40EFF1FF420FF1F0013FF1F002945D006
:1049F0002DE9F0410D46804600F098FB55F8047C07
:104A00006A4927F00103A5F10804E2188E6850688E
:104A1000B24220F0030062D0FE0750600BD455F87C
:104A2000087CE41B01F1080EA56875453B446FD076
:104A3000E768EF60BD6015186D68ED0742D543F07B
:104A400001026260E350B3F5007F18D2DB085A1C04
:104A50004D6851F83270A76001209B1000FA03F3F3
:104A600001EBC2001D430838E0604D6041F8324060
:104A7000FC604046BDE8F04100F05ABB70475A0A5E
:104A8000042A53D89A0902F139077F0002F1380548
:104A900001EB870051F827204449083890424DD057
:104AA000516821F003018B4202D292689042F7D103
:104AB000D068E060A2608460D4604046BDE8F04108
:104AC00000F036BB95683A4FBD4203443FD0D068F2
:104AD000E86043F0010285606260E350B3E7FF07DE
:104AE000034407D455F8082CA41A1344A068E268BC
:104AF000C26090602F4A126843F0010093426060E8
:104B00008C60B6D32C4B40461968FFF721FFB0E705
:104B100011184968C90744D49168D268CA6003442F
:104B200043F0010091606060E350A2E7142A17D8B7
:104B300002F15C077F0002F15B05A9E7AA104B6850
:104B4000012505FA02F213434B600246B1E743F038
:104B500001024C610C61E560A5606260E35088E78A
:104B6000542A06D81A0B02F16F077F0002F16E0576
:104B70008EE7B2F5AA7F06D8DA0B02F178077F003C
:104B800002F1770584E740F25450824206D89A0C2D
:104B900002F17D077F0002F17C0579E7FE277E2583
:104BA00076E743F001026260E35062E7F40EFF1F14
:104BB000FC0EFF1FFC12FF1FF020FF1F2DE9F04F1E
:104BC00001F10B05162D83B0064640F29F8035F0AB
:104BD000070500F1BF80A94200F2BC8000F0A6FAF0
:104BE000B5F5FC7FC0F09C826B0A00F0BA80042B04
:104BF00000F28381A80900F1390E4FEA4E033830E4
:104C0000C44F07EB8303A3F108015C68A14207D1FD
:104C1000ACE0002A80F2AC80E468A14200F0A680FB
:104C2000636823F003035A1B0F2AF2DDB9493C697C
:104C300001F1080E744500F0B381636823F00303AB
:104C40005A1B0F2A00F39981002AC1F814E0C1F819
:104C500010E080F29E80B3F5007F80F06781DB0872
:104C600003F1010C01229B1002FA03F34A6851F888
:104C70003C80C4F8088001EBCC091A43A9F1080371
:104C8000E3604A6041F83C40C8F80C4083100124BE
:104C90009C40944200F28A80144206D120F0030026
:104CA0006400144200F10400FAD007EBC009CC46BE
:104CB0008046DCF80C108C4507D173E1002A80F2A5
:104CC0008181C9688C4500F06D814B6823F0030336
:104CD0005A1B0F2AF2DD0C46D1F80CC054F8088F8D
:104CE0004B1945F001054D6042F00101C8F80CC0B8
:104CF0003046CCF808807B613B61C3F80CE0C3F818
:104D000008E059609A5000F013FA1FE0102921D8EA
:104D100000F00CFA1025062302207E4F07EB8303D8
:104D2000A3F108025C68944200F045816368E16881
:104D3000A56823F00303234430465A68E96042F033
:104D400001028D605A6000F0F3F90834204603B088
:104D5000BDE8F08F00240C232046336003B0BDE88B
:104D6000F08F80234FF0400E3F2049E770465DE70B
:104D70002344E1685A68A56842F00102E9603046C0
:104D80008D605A6000F0D4F90834204603B0BDE8C5
:104D9000F08F234430465A6842F001025A6000F016
:104DA000C7F90834204603B0BDE8F08FBC686368DB
:104DB00023F00308A84504D3C5EB08030F2B00F329
:104DC0008C80554BDFF860911A68D9F800300133B8
:104DD0002A4404EB080A00F0608102F580520F3289
:104DE00022F47F6222F00F0211463046019200F059
:104DF000A1F9B0F1FF3F8346019A00F05881824546
:104E000000F2FC80454B1968DA451144196000F046
:104E10005381D9F80000DFF810E101301BBFCAEB65
:104E20000B0A5144CEF800B019601BF0070100F0E6
:104E30001781C1F10800C1F58051834408315A44FB
:104E4000C2F30B02C2EB010949463046019300F060
:104E500071F9431C019B00F03F81CBEB00024A44F7
:104E600042F001021968C7F808B04944BC42CBF8C7
:104E700004201960DFF8A49016D0B8F10F0F40F2AB
:104E8000FD806268A8F10C0323F00703E01802F02C
:104E900001024FF0050E1A430F2B6260C0F804E0C8
:104EA000C0F808E000F21C811D4BBC681A689142F2
:104EB00088BF19601B4B1A689142626888BF1960ED
:104EC00022F003029542A2EB050301D80F2B04DC6C
:104ED000304600F02DF9002438E7621943F0010351
:104EE00045F0010565603046BA60536000F020F976
:104EF0000834204603B0BDE8F08F142B71D9542B31
:104F000000F2A480280B00F16F0E4FEA4E036E30C2
:104F100076E600BFF40EFF1FF020FF1FF420FF1FF6
:104F2000EC20FF1FE820FF1F0013FF1F5A0A042A6E
:104F30005ED9142A00F2B38002F15C0149005B32B1
:104F400007EB810C57F82110DFF8DC81ACF1080C7D
:104F50008C4500F088804A6822F00302934202D216
:104F600089688C45F7D1D1F80CC07A68C4F80CC0B8
:104F7000A160CCF80840CC6088E6631942F00107D4
:104F800045F00105656030464B610B61C3F80CE0EC
:104F9000C3F808E05F609A50083400F0C9F8D5E61D
:104FA0004A6873E608F1010818F0030F0CF1080CC9
:104FB0007FF47FAE30E0DC68A34208BF02303FF4EC
:104FC00035AEB3E60B440C465A68C96854F8085F1E
:104FD00042F001025A603046E9608D6000F0A8F8A6
:104FE000B4E603F15C0E03F15B004FEA4E0307E603
:104FF0009A0902F1390149003832A1E7BC424A4B13
:105000003FF400AF9C68626822F003025AE759F847
:105010000839994540F0828010F0030F00F1FF300D
:10502000F5D17B6823EA04037B6064009C423FF671
:10503000BDAE002C3FF4BAAE1C4240467FF435AE04
:1050400064001C4200F10400FAD02EE6B3F5AA7FFA
:1050500018D8E80B00F1780E4FEA4E037730CFE511
:105060004FF48051EBE60121D8F80430921001FA98
:1050700002F21A43C8F80420614677E70123CBF80F
:10508000043025E740F25452934220D8A80C00F196
:105090007D0E4FEA4E037C30B2E51032A4E6542A6E
:1050A00026D81A0B02F16F0149006E3248E7BC683E
:1050B000626822F0030205E7CAF30B0000287FF4C0
:1050C000A8AE4244BB6842F001025A60ECE6FE23FF
:1050D0004FF07F0E7E2093E501224FF00009C1E6DC
:1050E00004F108013046FFF781FCD9F80010DBE637
:1050F000B2F5AA7F05D8DA0B02F1780149007732C0
:105100001EE740F254518A4205D89A0C02F17D0103
:1051100049007C3214E7FE217E2211E77B6884E798
:10512000E808431C5B00F8E5F40EFF1F704700BF62
:10513000704700BF38B5074C00230546084623607A
:10514000FDF7E6F8431C00D038BD2368002BFBD0E8
:105150002B6038BD1C21FF1FFFFFFFFFFFFFFFFF7C
:10516000FFFFFFFFFFFFFFFFFFFFFFFFFFFFFFFF4F
:10517000FFFFFFFFFFFFFFFFFFFFFFFFFFFFFFFF3F
:1051800090F800F06DE9024520F007016FF0000C87
:1051900010F0070491F820F040F049804FF000042F
:1051A0006FF00700D1E9002391F840F000F108000A
:1051B00082FA4CF2A4FA8CF283FA4CF3A2FA8CF342
:1051C0004BBBD1E9022382FA4CF200F10800A4FAA9
:1051D0008CF283FA4CF3A2FA8CF3E3B9D1E90423FD
:1051E00082FA4CF200F10800A4FA8CF283FA4CF334
:1051F000A2FA8CF37BB9D1E9062301F1200182FAEE
:105200004CF200F10800A4FA8CF283FA4CF3A2FAF3
:105210008CF3002BC6D0002A04BF04301A4612BA01
:10522000B2FA82F2FDE8024500EBD2007047D1E904
:10523000002304F00305C4F100004FEAC50514F093
:10524000040F91F840F00CFA05F562EA05021CBF64
:1052500063EA050362464FF00004A9E781F00041CC
:1052600002E000BF83F0004330B54FEA41044FEA4B
:10527000430594EA050F08BF90EA020F1FBF54EAE6
:10528000000C55EA020C7FEA645C7FEA655C00F082
:10529000E2804FEA5454D4EB5555B8BF6D420CDD53
:1052A0002C4480EA020281EA030382EA000083EAD6
:1052B000010180EA020281EA0303362D88BF30BD76
:1052C00011F0004F4FEA01314FF4801C4CEA1131CC
:1052D00002D0404261EB410113F0004F4FEA03332B
:1052E0004CEA133302D0524263EB430394EA050FB6
:1052F00000F0A780A4F10104D5F1200E0DDB02FA25
:105300000EFC22FA05F2801841F1000103FA0EF2B8
:10531000801843FA05F359410EE0A5F120050EF17E
:10532000200E012A03FA0EFC28BF4CF0020C43FAAF
:1053300005F3C01851EBE37101F0004507D54FF0BC
:10534000000EDCF1000C7EEB00006EEB0101B1F50C
:10535000801F1BD3B1F5001F0CD349085FEA300052
:105360004FEA3C0C04F101044FEA445212F5800F5D
:1053700080F09A80BCF1004F08BF5FEA500C50F1FA
:10538000000041EB045141EA050130BD5FEA4C0CDD
:10539000404141EB010111F4801FA4F10104E9D166
:1053A00091F0000F04BF01460020B1FA81F308BF5D
:1053B0002033A3F10B03B3F120020CDA0C3208DD29
:1053C00002F1140CC2F10C0201FA0CF021FA02F104
:1053D0000CE002F11402D8BFC2F1200C01FA02F174
:1053E00020FA0CFCDCBF41EA0C019040E41AA2BF99
:1053F00001EB0451294330BD6FEA04041F3C1CDA61
:105400000C340EDC04F11404C4F1200220FA04F080
:1054100001FA02F340EA030021FA04F345EA03012A
:1054200030BDC4F10C04C4F1200220FA02F001FAEC
:1054300004F340EA0300294630BD21FA04F029466E
:1054400030BD94F0000F83F4801306BF81F4801107
:105450000134013D4EE77FEA645C18BF7FEA655C7A
:1054600029D094EA050F08BF90EA020F05D054EA4C
:10547000000C04BF1946104630BD91EA030F1EBF51
:105480000021002030BD5FEA545C05D14000494155
:1054900028BF41F0004130BD14F580043CBF01F548
:1054A000801130BD01F0004545F0FE4141F470012E
:1054B0004FF0000030BD7FEA645C1ABF1946104609
:1054C0007FEA655C1CBF0B46024650EA013406BF0A
:1054D00052EA033591EA030F41F4002130BD00BFC9
:1054E00090F0000F04BF0021704730B54FF4806486
:1054F00004F132044FF000054FF0000150E700BF07
:1055000090F0000F04BF0021704730B54FF4806465
:1055100004F1320410F0004548BF40424FF0000152
:105520003EE700BF42004FEAE2014FEA31014FEA95
:1055300002701FBF12F07F4393F07F4F81F06051E4
:10554000704792F0000F14BF93F07F4F704730B553
:105550004FF4607401F0004521F0004120E700BFE6
:1055600050EA010208BF704730B54FF000050AE06D
:1055700050EA010208BF704730B511F0004502D56E
:10558000404261EB41014FF4806404F132045FEA70
:10559000915C3FF4DCAE4FF003025FEADC0C18BF15
:1055A00003325FEADC0C18BF033202EBDC02C2F10B
:1055B000200300FA03FC20FA02F001FA03FE40EA9D
:1055C0000E0021FA02F11444C1E600BF70B54FF09D
:1055D000FF0C4CF4E06C1CEA11541DBF1CEA13557F
:1055E00094EA0C0F95EA0C0F00F0DEF82C4481EAE7
:1055F000030621EA4C5123EA4C5350EA013518BF07
:1056000052EA033541F4801143F4801338D0A0FBF3
:1056100002CE4FF00005E1FB02E506F00042E0FBA0
:1056200003E54FF00006E1FB03569CF0000F18BFA6
:105630004EF0010EA4F1FF04B6F5007F64F540744E
:1056400004D25FEA4E0E6D4146EB060642EAC621E1
:1056500041EA55514FEAC52040EA5E504FEACE2E4E
:10566000B4F1FD0C88BFBCF5E06F1ED8BEF1004F51
:1056700008BF5FEA500E50F1000041EB045170BDCD
:1056800006F0004646EA010140EA020081EA030111
:10569000B4EB5C04C2BFD4EB0C0541EA045170BD0D
:1056A00041F480114FF0000E013C00F3AB8014F187
:1056B000360FDEBF002001F0004170BDC4F10004D0
:1056C000203C35DA0C341BDC04F11404C4F1200551
:1056D00000FA05F320FA04F001FA05F240EA0200AC
:1056E00001F0004221F0004110EBD37021FA04F6E2
:1056F00042EB06015EEA430E08BF20EAD37070BD9C
:10570000C4F10C04C4F1200500FA04F320FA05F0FA
:1057100001FA04F240EA020001F0004110EBD370FC
:1057200041F100015EEA430E08BF20EAD37070BD6C
:10573000C4F1200500FA05F24EEA020E20FA04F345
:1057400001FA05F243EA020321FA04F001F00041F4
:1057500021FA04F220EA020000EBD3705EEA430E65
:1057600008BF20EAD37070BD94F0000F0FD101F094
:105770000046400041EB010111F4801F08BF013CCD
:10578000F7D041EA060195F0000F18BF704703F00B
:105790000046520043EB030313F4801F08BF013D92
:1057A000F7D043EA0603704794EA0C0F0CEA13554E
:1057B00018BF95EA0C0F0CD050EA410618BF52EA08
:1057C0004306D1D181EA030101F000414FF000000E
:1057D00070BD50EA410606BF1046194652EA43061C
:1057E00019D094EA0C0F02D150EA013613D195EA90
:1057F0000C0F05D152EA03361CBF104619460AD1D8
:1058000081EA030101F0004141F0FE4141F47001E1
:105810004FF0000070BD41F0FE4141F4780170BDD1
:1058200070B54FF0FF0C4CF4E06C1CEA11541DBF36
:105830001CEA135594EA0C0F95EA0C0F00F0A7F838
:10584000A4EB050481EA030E52EA03354FEA013165
:1058500000F088804FEA03334FF0805545EA131378
:1058600043EA12634FEA022245EA111545EA106540
:105870004FEA00260EF000419D4208BF964244F1D7
:10588000FD0404F5407402D25B084FEA3202B61AF6
:1058900065EB03055B084FEA32024FF480104FF4CA
:1058A000002CB6EB020E75EB030E22BFB61A75463E
:1058B00040EA0C005B084FEA3202B6EB020E75EBD1
:1058C000030E22BFB61A754640EA5C005B084FEA39
:1058D0003202B6EB020E75EB030E22BFB61A754606
:1058E00040EA9C005B084FEA3202B6EB020E75EB11
:1058F000030E22BFB61A754640EADC0055EA060ED2
:1059000018D04FEA051545EA16754FEA06164FEA14
:10591000C30343EA52734FEAC2025FEA1C1CC0D1C0
:1059200011F4801F0BD141EA00014FF000004FF04D
:10593000004CB6E711F4801F04BF01430020B4F10E
:10594000FD0C88BFBCF5E06F3FF6AFAEB5EB030CC6
:1059500004BFB6EB020C5FEA500C50F1000041EBC3
:10596000045170BD0EF0004E4EEA113114EB5C0490
:10597000C2BFD4EB0C0541EA045170BD41F4801163
:105980004FF0000E013C90E645EA060E8DE60CEA6B
:10599000135594EA0C0F08BF95EA0C0F3FF43BAF88
:1059A00094EA0C0F0AD150EA01347FF434AF95EA3F
:1059B0000C0F7FF425AF104619462CE795EA0C0F23
:1059C00006D152EA03353FF4FDAE1046194622E7F0
:1059D00050EA410618BF52EA43067FF4C5AE50EACA
:1059E00041047FF40DAF52EA43057FF4EBAE12E7BA
:1059F0004FF0FF3C06E000BF4FF0010C02E000BF9B
:105A00004FF0010C4DF804CD4FEA410C7FEA6C5C7D
:105A10004FEA430C18BF7FEA6C5C1BD001B050EA20
:105A2000410C0CBF52EA430C91EA030F02BF90EA0B
:105A3000020F0020704710F1000F91EA030F58BFCA
:105A4000994208BF90422CBFD8176FEAE37040F02C
:105A5000010070474FEA410C7FEA6C5C02D150EACA
:105A6000013C07D14FEA430C7FEA6C5CD6D152EA85
:105A7000033CD3D05DF8040B704700BF844610464A
:105A800062468C461946634600E000BF01B5FFF749
:105A9000B7FF002848BF10F1000F01BD4DF808ED19
:105AA000FFF7F4FF0CBF012000205DF808FB00BFEA
:105AB0004DF808EDFFF7EAFF34BF012000205DF844
:105AC00008FB00BF4DF808EDFFF7E0FF94BF012091
:105AD00000205DF808FB00BF4DF808EDFFF7CEFF92
