:10000000000002209901000021230000E1220000ED
:10001000E1220000E1220000E1220000E1220000D4
:10002000E1220000E1220000E12200002123000083
:1000300021230000E122000039310000E9300000F6
:1000400021230000212300002123000021230000A0
:100050002123000021230000212300002123000090
:100060002123000021230000212300002123000080
:100070002123000021230000212300002123000070
:100080002123000021230000212300002123000060
:100090002123000021230000212300002123000050
:1000A0002123000021230000212300002123000040
:1000B000212300002123000021230000351400002B
:1000C00021230000D92E000021230000012E000072
:1000D00021230000292D00002123000021230000FE
:1000E0002123000021230000212300002123000000
:1000F00021230000212300002123000021230000F0
:1001000021230000212300002123000021230000DF
:10011000212300004D1A00002123000021230000AC
:1001200021230000212300002123000021230000BF
:1001300021230000212300002123000021230000AF
:100140002123000021230000512C00002123000066
:10015000852B000021230000212300002123000023
:10016000212300002123000021230000212300007F
:10017000212300002123000021230000212300006F
:10018000212300002123000021230000212300005F
:10019000212300002123000008B5574B4CF22052C8
:1001A0001A804DF628121A8000BF00BF02F04CF8EA
:1001B000524B4FF030621A60514A9A60514ADA60ED
:1001C000514B4FF470021A60504A136813F4807355
:1001D00004D14F490B604FF4A85313604D4B1A786C
:1001E000110703D51A7842F008021A704A4B4B499E
:1001F0002A221A704A4A4B4B8B4204D252F8040FFF
:1002000043F8040BF8E7484B484900228B4202D2DE
:1002100043F8042BFAE74649464A002352F82300E4
:1002200041F823000133662BF8D1434B434A802128
:1002300003F8011B9342FBD1414B3D4A1A60414BED
:100240008A221A70A3F5805324225A70A0221A70B1
:100250009A799207FCD59A79D406FCD43A4A9379D4
:1002600003F00C03082B384BF9D103221A714622F4
:100270005A719A799006FCD5334A9179324B4906E6
:10028000FBD5324A4FF08271116009215160202262
:100290001A709A7902F00C020C2AFAD12C4B2D4AD2
:1002A0001A602D4B2D4A1A6000225A60072243F82B
:1002B000042C2B4AC3F80C2D62B602F035F8144B0F
:1002C0001B68DA0705D5274801F0A2FF264B274A0D
:1002D0001A60274B1B785B0609D5234C234B2268F9
:1002E0009A4204D11F4801F093FF0023236003F0DA
:1002F000F3F902F0F1FA00BF0E200540308004400F
:10030000823F04000100002B88ED00E010D0034084
:1003100014D0034002D0074000E007400413FF1F41
:1003200058640000F806FF1F0413FF1F5019FF1F39
:100330000002FF1F0000000000E400E056E400E0BF
:1003400008ED00E0005006400040064044800440B4
:1003500004800440C010050014E000E0BFD4010098
:10036000000020200C072F5A1CE00340A5C3945A1C
:1003700000F00740FFFFFFFFFFFFFFFFFFFFFFFF52
:10038000FFFFFFFFFFFFFFFFFFFFFFFFFFFFFFFF7D
:10039000FFFFFFFFFFFFFFFFFFFFFFFFFFFFFFFF6D
:1003A000FFFFFFFFFFFFFFFFFFFFFFFFFFFFFFFF5D
:1003B000FFFFFFFFFFFFFFFFFFFFFFFFFFFFFFFF4D
:1003C000FFFFFFFFFFFFFFFFFFFFFFFFFFFFFFFF3D
:1003D000FFFFFFFFFFFFFFFFFFFFFFFFFFFFFFFF2D
:1003E000FFFFFFFFFFFFFFFFFFFFFFFFFFFFFFFF1D
:1003F000FFFFFFFFFFFFFFFFFFFFFFFFFFFFFFFF0D
:10040000FFFFFFFFFFFFFFFFFFFFFFFFDEF9FFFF23
:1004100010B5054C237833B9044B13B10448AFF33E
:1004200000800123237010BD0413FF1F0000000093
:100430005C640000084B10B51BB108490848AFF3D5
:1004400000800848036803B910BD074B002BFBD0A0
:10045000BDE81040184700BF000000000813FF1F50
:100460005C6400000413FF1F00000000054A0260E6
:1004700080ED020AC0ED030A80ED041A00224260FA
:10048000704700BFB05E0000014B0360704700BFC3
:10049000B05E000010B5054C054B9C4205D054F8E9
:1004A000143D1B6820469847F6E710BD8814FF1FCF
:1004B0002013FF1F436803EB83039A00024492ED6D
:1004C000050A704710B50446FFF7DEFF14212046E9
:1004D00002F0D6F9204610BD10B504461B2001F0ED
:1004E000A1FD18B1E36B0133E36310BDE36B013B86
:1004F000E36310BD08B50248FFF7EEFF08BD00BF7B
:100500008814FF1F10B504461A2001F08BFD18B1A6
:10051000E36B013BE36310BDE36B0133E36310BDA9
:1005200008B50248FFF7EEFF08BD00BF8814FF1FA3
:1005300010B504460E2001F075FD18B1A36B013310
:10054000A36310BDA36B013BA36310BD08B50248B4
:10055000FFF7EEFF08BD00BF8814FF1F10B504466B
:100560000F2001F05FFD18B1A36B013BA36310BD29
:10057000A36B0133A36310BD08B50248FFF7EEFF7C
:1005800008BD00BF8814FF1F10B50446112001F0FC
:1005900049FD18B1636B0133636310BD636B013BAD
:1005A000636310BD08B50248FFF7EEFF08BD00BF4A
:1005B0008814FF1F10B50446102001F033FD18B158
:1005C000636B013B636310BD636B0133636310BDF9
:1005D00008B50248FFF7EEFF08BD00BF8814FF1FF3
:1005E00008B50021112001F0DFFC0021102001F0EE
:1005F000DBFC00210E2001F0D7FC00210F2001F0D0
:10060000D3FC00211B2001F0CFFC00211A2001F0B7
:10061000CBFC03220E49112002F08AF803220D4977
:10062000102002F085F803220B490E2002F080F81A
:1006300003220A490F2002F07BF8032208491B20FD
:1006400002F076F8032207491A2002F071F808BD7B
:10065000D1050000A5050000790500004D0500004A
:1006600021050000F50400002DE9F04F2DED028B6F
:100670008BB005460C4690ED0C8AFFF71BFF38EE59
:10068000008AA06803F02EFE06460F4618EE100AF8
:1006900003F028FE41EC180B41EC100B04F0C0F9FC
:1006A00053EC102B8DED000B3046394603F06EFEF7
:1006B00080468946E06803F015FE82468B46B0EE20
:1006C000480AF0EE680A04F00BFA53EC102B8DED9B
:1006D000020B5046594603F059FE02460B4640466F
:1006E000494603F09FFC04F049F908EE100A52460F
:1006F0005B46DDE9000103F049FE80468946DDE9FD
:1007000002233046394603F041FE02460B4640467E
:10071000494603F089FC04F031F907EE900A84EDB4
:10072000028AE0609FED137A84ED047A6E68B70068
:10073000BB199C002C4494ED030AD4ED040A94EDFB
:10074000051A31EE071A77EEA00A38EE000A05A85E
:10075000FFF78CFE069BA360079BE360089B236169
:10076000099B636105A8FFF78FFE0BB0BDEC028B00
:10077000BDE8F08F0000000008B52DED028B0820C9
:1007800001F038FD0121152001F00EFC0121172098
:1007900001F00AFC0121162001F006FC9FED158AEC
:1007A000B0EE480A152001F071FC0121232001F070
:1007B000FBFB0121242001F0F7FB0121272001F0A0
:1007C000F3FBB0EE480A232001F060FC01211E205B
:1007D00001F0EAFB01211D2001F0E6FB01211C20B4
:1007E00001F0E2FBB0EE480A1E2001F04FFCBDEC28
:1007F000028B08BDC0E1644710B50446D1ED027A12
:10080000D1ED030A91ED041A81EE001AC0EE800AC0
:1008100087EE800A02F0A0F9204610BD70B596B0B0
:10082000044672B690ED0D6AD0ED0E6A90ED0F7A27
:10083000002343638363C36362B6B8EEC66ADFED29
:10084000417AC6EE275ACDED095AF8EEE66A86EEF1
:10085000A76A8DED0A6AB8EEC77AC7EE276ACDEDB2
:100860000B6A0323ADF81C300123ADF81E3009AB31
:1008700008930C2005F008FB054648B9324E336852
:100880005B682D22314930469847304602F014F912
:100890000323ADF814300123ADF81630069505AAF0
:1008A00007A92B4802F0C8FD064668B1264D2B6803
:1008B0005B6837222749284698473146284602F088
:1008C0000BF9284602F0F8F8069B93ED021ADFEDCB
:1008D000227A81EE271AD3ED010A93ED000A6846C9
:1008E000FFF7C4FDE3682362236963626369A3625F
:1008F000A369E3629FED190A69460CA8FFF77CFF24
:100900000D9BE3600E9B23610F9B6361109BA361B2
:100910000CA801F0DFFC124B1193019B1293029B78
:100920001393039B1493049B159311A92046FFF77F
:100930009BFE11A8FFF7A8FD6846FFF7A5FD16B0BE
:1009400070BD00BFEECF0741F807FF1F0C5F00002E
:100950000808FF1F3C5F000000002A43CDCC4C3D3F
:10096000B05E000008B50269426242698262826933
:10097000C262FFF753FF08BD10B50446054B40F8AF
:100980001C3B01F0A7FC04F1080001F0A3FC204689
:1009900010BD00BFC05E000010B50446FFF7ECFFBD
:1009A0004021204601F06CFF204610BD2DE9F041AA
:1009B000AAB0044690ED030ADFF8A483D8ED5E7A6E
:1009C000D0ED040A98ED5F7A90ED051AD8ED606AD3
:1009D00031EE661A70EEC70A30EE670A17A802F009
:1009E000BBF894ED080AD4ED090A94ED0A1ADDED7E
:1009F0001B7A31EE271ADDED1A7A70EEA70ADDEDCB
:100A0000197A30EE270A1CA802F0A6F81D9BE361B4
:100A10001E9B23621F9B6362209BA3621CA801F0A4
:100A200059FC94ED0D0AD4ED0E0A94ED0F1ADDED8C
:100A30001B7A31EE671ADDED1A7A70EEE70ADDED0A
:100A4000197A30EE670A12A802F086F8DFEDB97A5B
:100A50009DED1B1A21EE271ADDED1A0A60EEA70A9A
:100A60009DED190A20EE270A0DA802F075F8251D44
:100A7000B14C23685B680822B04920469847A868B3
:100A800003F030FC0226009602460B46204601F099
:100A90002BFFAB4F23685B680122394620469847FD
:100AA000E86803F01FFC009602460B46204601F062
:100AB0001BFF23685B680122394620469847286956
:100AC00003F010FC009602460B46204601F00CFF96
:100AD0009C4D23685B683246294620469847236828
:100AE0005B680822984920469847D8F8780103F0B7
:100AF000F9FB009602460B46204601F0F5FE2368FE
:100B00005B680122394620469847D8F87C0103F0FB
:100B1000E9FB009602460B46204601F0E5FE2368FD
:100B20005B680122394620469847D8F8800103F0D7
:100B3000D9FB009602460B46204601F0D5FE2368FD
:100B40005B68324629462046984723685B6807223F
:100B50007E4920469847199803F0C4FB0096024648
:100B60000B46204601F0C0FE23685B68012239462F
:100B7000204698471A9803F0B5FB009602460B46AC
:100B8000204601F0B1FE23685B6801223946204609
:100B900098471B9803F0A6FB009602460B4620469A
:100BA00001F0A2FE23685B6832462946204698473A
:100BB00023685B6805226649204698470F9803F032
:100BC00091FB009602460B46204601F08DFE2368FD
:100BD0005B680122394620469847109803F082FB53
:100BE000009602460B46204601F07EFE23685B68B5
:100BF0000122394620469847119803F073FB00966E
:100C000002460B46204601F06FFE23685B68002217
:100C1000504920469847204601F04EFF0F9B0A930B
:100C2000109B0B93119B0C930326ADF820600125BC
:100C3000ADF822500AAB099305AB474A07CA83E8CF
:100C40000700ADF80C60ADF80E50049303AA08A994
:100C500004F1180002F0F0FB68B1054623685B68F8
:100C600038223E49204698472946204601F034FF65
:100C7000204601F021FF049BD3ED007AF5EEC07A07
:100C8000F1EE10FA01DD012100E00021172001F052
:100C9000D7F9049BD3ED017AF5EEC07AF1EE10FAA4
:100CA00001DD012100E00021242001F0C9F9049BAD
:100CB000D3ED027AF5EEC07AF1EE10FA01DD0121F2
:100CC00000E000211D2001F0BBF900232193049ACC
:100CD000D2ED007AF5EEC07AF1EE10FA01DCF1EE19
:100CE000677AFDEEE77A17EE903ACDED227AFF2192
:100CF0002391002B01DC21AB00E022AB1968FF2916
:100D000000DD23AB196800232493D2ED017AF5EEC0
:100D1000C07AF1EE10FA01DCF1EE677AFDEEE77AC7
:100D200017EE903ACDED257AFF202690002B19DCA6
:100D300024AB18E09A99993EF807FF1F745F0000F2
:100D4000805F0000845F0000885F0000945F000007
:100D50009C5F0000905F0000C85E0000A45F000080
:100D60002013FF1F25AB1868FF2800DD26AB1D6888
:100D700000232793D2ED027AF5EEC07AF1EE10FA55
:100D800001DCF1EE677AFDEEE77A17EE903ACDEDF1
:100D9000287AFF222992002B01DC27AB00E028AB48
:100DA0001A68FF2A00DD29AB1C68152001F03AFB08
:100DB0002946232001F036FB21461E2001F032FB9C
:100DC0000DA801F087FA12A801F084FA17A801F023
:100DD00081FA2AB0BDE8F08108B5FFF7E7FD08BD4C
:100DE00010B50446064B40F82C3B01F073FA04F1B1
:100DF000180001F06FFA201D01F06CFA204610BDBA
:100E0000DC5E000010B50446084B40F82C3B01F0B6
:100E100061FA04F1180001F05DFA201D01F05AFAA0
:100E20004821204601F02CFD204610BDDC5E00006C
:100E300010B50446084B40F8083B01F099FE04F158
:100E40001C0001F095FE0023636000222263E3632F
:100E5000A3636363204610BDC05E000010B586B07A
:100E60000446114B40F8043B01F082FE04F11800E7
:100E700001F07EFE04F12C0001F07AFE01A801F0E1
:100E800077FE029BE361039B2362049B6362059BE5
:100E9000A36201A801F01EFA002323640023636407
:100EA000204606B010BD00BFDC5E0000012840F007
:100EB000D9804FF6FF73994240F0D48010B52DEDE4
:100EC000048B694C322104F5D47001F039FE4FF4E3
:100ED0007A6104F5DA7001F033FE9FED648ADFED8C
:100EE000648AB0EE481AF0EE480AB0EE680A20466E
:100EF00001F032FEB0EE481AF0EE680AB0EE480A91
:100F000004F1140001F028FE9FED5A1AF0EE480A91
:100F1000B0EE480A04F1280001F01EFE9FED569A3B
:100F2000B0EE481AF0EE480AB0EE490A04F13C006F
:100F300001F012FEB0EE481AF0EE480A9FED4F0A9B
:100F400004F1500001F008FEB0EE481AF0EE480A35
:100F5000B0EE490A04F1640001F0FEFDB0EE481A5B
:100F6000F0EE480AB0EE680A04F1780001F0F4FDF2
:100F7000B0EE481AF0EE480A9FED410A04F18C00E9
:100F800001F0EAFD9FED3F0AB0EE401AF0EE480A8C
:100F900004F1A00001F0E0FDB0EE481AF0EE480ABE
:100FA0009FED390A04F1B40001F0D6FDDFED378A78
:100FB0009FED371AF0EE480AB0EE680A04F1C80057
:100FC00001F0CAFDB0EE481AF0EE480A9FED310A72
:100FD00004F1DC0001F0C0FD9FED2F9AB0EE481A3D
:100FE000F0EE480AB0EE490A04F1F00001F0B4FD59
:100FF000B0EE481AF0EE480A9FED280A04F5827018
:1010000001F0AAFDB0EE481AF0EE480AB0EE490A27
:1010100004F58C7001F0A0FDB0EE481AF0EE480A1D
:10102000B0EE680A04F5967001F096FDB0EE481A2D
:10103000F0EE480A9FED1A0A04F5A07001F08CFD4D
:10104000B0EE481AF0EE480AB0EE480A04F5AA706D
:1010500001F082FD134A1449002002F02BFBBDEC85
:10106000048B10BD704700BF2013FF1F000000005D
:101070000000C842CDCCCC3D0000484300007A437C
:1010800000004842CDCC4C3ECDCC48C20000C8C286
:10109000CDCC4CBE000016C3000048C300007AC38C
:1010A000000048C2F407FF1F9504000010B518485F
:1010B00001F028FD40B1174C04F5B470FFF752FC65
:1010C00004F5E070FFF788FE134801F01BFDE8B15E
:1010D000104AD2F808128800084483001344586864
:1010E000C2F8C8019868C2F8CC01D868C2F8D0012B
:1010F0001B69C2F8D4310131084B83FB0103A3EB18
:10110000E17303EB4303CB1AC2F8083210BD00BFF2
:10111000C814FF1F2013FF1FD414FF1F5655555529
:1011200010B5FFF75DFA0E48FFF726FB00F022FA34
:101130000028FBD00B4C23685B6805220A49204637
:101140009847204601F0B8FC02F01AF9074C04F564
:10115000DA7001F0CDFC04F5D47001F0C9FC10BDCB
:10116000E014FF1FF807FF1FE05F00002013FF1FC0
:1011700001280ED14FF6FF7399420AD110B5054CE4
:101180002046FFF755FE044A0449204602F092FA31
:1011900010BD70478814FF1FF407FF1F7909000076
:1011A00001280ED14FF6FF7399420AD110B5054CB4
:1011B0002046FFF753FE044A0449204602F07AFA1B
:1011C00010BD7047E014FF1FF407FF1FE10D000082
:1011D00000BE704710B572B61C4A01232DE0511CA9
:1011E000127812F0080F26D09A00194C54F83240A9
:1011F0006CB90830164B03EBC2014860154943F83F
:101200003210154A1378013B137062B610BD42F0DC
:1012100001020F4C54F832406CB908300C4B03EB10
:10122000C20148600D4943F832100B4A1378013B64
:10123000137062B610BD01330A46042BCFD962B6D3
:101240000022054B1A7000F00BF810BDE85F00009B
:101250000000FF1F880040003015FF1FC80040003D
:1012600008B50F4BC31A0F4AA2FB03231B090B2B14
:1012700014D80D4A12783AB10C4A127812F0FF0FC6
:1012800002D0FFF7A7FF08BD4FF0004222FA03F398
:1012900072B6074A11680B43136062B608BD00BFFF
:1012A0009803FF1F398EE3383015FF1F1519FF1FF4
:1012B0006008FF1F421E032A13D872B60C4B03EBC3
:1012C0008203586890B110B44468094B03EB820163
:1012D0004C60018803EB42039A8A521A9A8262B6E2
:1012E00001E0002070475DF8044B704762B670471C
:1012F0003015FF1F08B50A4B1B7813F0FF0F0ED0F7
:10130000084BD86920B1FFF7ABFF0022054BDA612B
:101310000320FFF7CFFF10B1FFF7A2FFF8E708BDEA
:101320001519FF1F3015FF1F08B5FFF7E3FF08BDB4
:1013300008B50F4BDB6953B90E4B1B7813F0FF0F49
:101340000CD00320FFF7B6FF094BD86148B1084B1A
:10135000DB694BB15A881344187A08BD4FF0FF304F
:1013600008BD4FF0FF3008BD4FF0FF3008BD00BF93
:101370003015FF1F1519FF1F08B5FFF7D9FF08BD6E
:1013800010B5134BDB6953B9124B1B7813F0FF0FE9
:1013900018D00320FFF78EFF0D4BD861A8B10C4B7E
:1013A000D86943885A1C03441C7A03889A4206D39E
:1013B000FFF756FF0022064BDA61204610BD42803F
:1013C000204610BD4FF0FF3010BD4FF0FF3010BD74
:1013D0003015FF1F1519FF1F08B5FFF7D1FF08BD16
:1013E00030B40F4D95F8203043F002040D4A02EB63
:1013F000C402506095F821200AB1C82000E088207E
:1014000040EA0141074840F83410054982F00102E2
:1014100081F8212083F0010381F8203030BC70472F
:101420003015FF1F0000FF1F0F22014B1A7070477D
:10143000C020074010B4384B1B7913F0300F29D06F
:1014400072B6354B9A7D02F0FF032AB9324BDA7936
:1014500040225A7462B61DE062B6304A92F8220009
:10146000C0B292F82340E4B22B4AD279D1B2421CE6
:101470003F2A00D90022A24204D02848104480F814
:1014800024101046013B13F0FF03EDD1C0B2234BF3
:1014900083F82200204BDB78DBB213F0800F29D0D9
:1014A0001D4A127912F0800F24D01C4A92F8644031
:1014B000E4B292F86520D2B2A2420FD001323F2AA4
:1014C00000D90022144908791448104490F86800A3
:1014D000C0B2C871097DC9B20729EDD9D2B20F498E
:1014E00081F865200C4A127912F0800F02D07C211D
:1014F000094AD17013F0400F0BD0074B1B7913F042
:10150000400F06D00022054B83F8A8203C22024B56
:10151000DA705DF8044B704700A006403015FF1FDD
:1015200072B60C4B1B680C4A12680C49096862B60B
:1015300011F0806F02D0322B00D90132C3F5EA33AB
:10154000BF330748A0FB03139B094FF47A7000FBDD
:101550000230704718E000E0FC18FF1F04ED00E0C7
:101560008988888808B501F03DFF08BD08B501F0FD
:1015700007FF08BD044B188BDB691BB11A885B8819
:10158000D31A1844704700BF3015FF1F08B5FFF786
:10159000F1FF08BD72B60D4B1A68B2FA82F30B2B3D
:1015A00002D962B6002070474FF00041D94022EACC
:1015B000010206490A6062B603EBC303DA0004497C
:1015C000881800238B504360704700BF6008FF1FDE
:1015D0009803FF1F70B5B64BB3F8B43040F2816288
:1015E000934219D8B3F5D06F80F03481B3F5817F81
:1015F00000F0008106D8802B00F0D780822B00F00D
:10160000DD804EE140F20232934200F00B81B3F5EF
:10161000A06F00F0498144E142F22102934200F0C0
:10162000848107D8B3F5086F00F0B880B3F5106F68
:101630000BD036E142F22122934200F0268142F2A1
:101640002132934200F030812BE1994B93F8B62080
:10165000984B1A7004240DE0974B53F8343013F074
:10166000800F06D0944B03EBC40358680838FFF78B
:10167000F7FD0134132CEFDD00253BE08C4B03EB31
:101680008503586803E04468FFF7EAFD2046002818
:10169000F9D1874B03EB850300225A60C3F8BC20C5
:1016A000D3F8CC0003E04468FFF7DAFD20460028B9
:1016B000F9D17F4B03EB85010022C1F8CC20C1F8A2
:1016C000DC2003EB45018A822B4493F8EC30023B8B
:1016D000032B0ED8DFE803F002080208744B2B44FA
:1016E000002283F8EC2004E0714B2B44012283F8A4
:1016F000EC200135032DC1DD00226D4B1A70012451
:101700006E4B6F4D45E05E1C1B7805F8043B13F0F3
:10171000080F31D0FFF73EFF034648B1A20008335F
:10172000654901EB44104360664841F8320008E027
:10173000A3000021604A42F833105D4A1378013358
:101740001370FFF727FF024658B1A30043F00103CF
:101750000832594901EBC30042605B4A41F833202B
:101760000AE0A30043F001030021534A42F833107A
:101770004F4A137801331370A30043F002004E4A1E
:10178000002142F8301043F0030342F833100134D3
:101790003346042CB7DD00231C469FE0454B1B78E5
:1017A000434C04F8AC3F012398E0414C002384F8FB
:1017B000AC3084F8AD300223AC348FE03C4BB3F84E
:1017C000B83003F07F03042B02DDFFF72DFE70BD60
:1017D000374A002182F8AC1082F8AD103B4A12F86B
:1017E000233013F0020F77D0314C012304F8AC3FC3
:1017F000022373E02E4BB3F8B83003F07F03042BC1
:1018000003DC2B4AB2F8B62012B1FFF70DFE70BD13
:101810002E4911F8232022F0020201F82320002390
:101820001C465BE0224BB3F8B83003F07F03042B77
:1018300003DC1F4AB2F8B62012B1FFF7F5FD70BD08
:10184000224911F8232042F0020201F8232000234C
:101850001C4643E01E4B5C68A4B1154AB2F8B620A2
:1018600019888A420CD11249B1F8B80059888842C7
:1018700006D1120A032A01D123782FE01B892DE01B
:101880000C33E8E7FFF7D0FD70BD124B1A68084B28
:10189000C3F8F02093F8B62083F8F42000231C4608
:1018A0001CE0FFF7C1FD70BD00231C4616E000BF21
:1018B0003015FF1F1519FF1F0000FF1FE85F000014
:1018C000C420074088004000C8004000C0200740F6
:1018D000EC5F0000FC18FF1F0223144C144AB2F8FE
:1018E000BA50AB4200D81D46402D01D82E4600E02C
:1018F000402631462046FFF773FD3444AD1B01D12D
:101900003F2E12D9402D01D82E4600E04026314608
:101910002046FFF765FD3444AD1B01D13F2E04D9AD
:10192000034BC3F8F840A3F8FC5070BDDC15FF1F53
:101930003015FF1F38B585083E4C04EBC50254F83E
:101940003530C3F383035268013B0C2B6DD8DFE8BD
:1019500003F01F1F6C6C6C6C6C6C426C6C6C070041
:101960001168354BC3F8B4105268C3F8B820334A35
:1019700044F835200022C3F8F8202E490A618A6114
:10198000012483F82140FFF725FE2D4B1C704CE00D
:10199000294BB3F8B41042F22103994217D105E064
:1019A0001078087001330131013201E0254900232C
:1019B000062BF5DD204BD3F80031862B03D10F2207
:1019C0001D4B83F8082100210846FFF709FD1B4B3A
:1019D00044F8353029E0184BD3F8F840BCB1B3F8DF
:1019E000FC50402D00D9402529462046FFF7F8FC41
:1019F0002C44114AB2F8FC305B1B9BB2A2F8FC30BD
:101A000013B9402D00D000240B4BC3F8F8400A4B0B
:101A1000B3F8B430B3F5A06F07D1074B002283F8B9
:101A2000B52093F8B620084B1A700122044B1A70A7
:101A300038BD00BF0000FF1F3015FF1FC800400069
:101A4000942007403016FF1F98200740F8B5964BAA
:101A50001C78E4B214F0040F21D0944B1B7813F0DF
:101A6000FF0F19D0924B93F8082102F0FF033AB10F
:101A7000013BDBB28E4A82F808310BB9FFF7A8FBB5
:101A80008C4B1A7802F0FF0332B1013BDBB2894A7A
:101A900013700BB901F050FC0422834B1A7014F040
:101AA000080F00F0BF80844B1878C0B2030902D140
:101AB000FFF740FFB2E08508804C04EBC506726872
:101AC000A2F10801013BDFB210F0080F5FD0084619
:101AD000FFF7C6FB764B03EB8703D3F8CC20002A35
:101AE00034D05068724B03EB8701C1F8CC0002F18F
:101AF000080171603B4493F8EC30032B1AD8DFE8FF
:101B000003F002080E146A4B3B44032183F8EC10E7
:101B100010E0674B3B44022183F8EC100AE0644B71
:101B20003B44052183F8EC1004E0614B3B44042165
:101B300083F8EC1016F0080F01D0C82300E08823CA
:101B4000128843EA024344F8353067E0584B3B447F
:101B500093F8EC30032B0FD8DFE803F06060020845
:101B6000534B3B44002283F8EC2057E0504B3B445E
:101B7000012283F8EC2051E016F0080F01D0032277
:101B800000E002224A4B3B4483F8EC2046E054F844
:101B900035301B0C22F8083C002B37D0002322F8EC
:101BA000063C42F8043C424B03EB87035B6823B9D5
:101BB0003F4B03EB8703596005E03D4B03EB870385
:101BC000D3F8BC3059603A4B03EB8700C0F8BC1027
:101BD00032F8081C03EB47039A8A0A449A82FFF7FB
:101BE000D9FC034650B10833736016F0080F01D0DA
:101BF000334B00E0334B44F835300FE0002344F81A
:101C000035302B4A13780133137007E016F0080FB4
:101C100001D02B4B00E02B4B44F835300822224BEF
:101C20001A7014E714F0010F24D027480223037020
:101C30001F4A002182F82010204B224C1C6002F524
:101C400086755D609C6002F5A672DA601961996123
:101C50000D221E4B1A70FF231D4A1370083A137091
:101C6000183211700C3A13709F221A4B1A7001230C
:101C70000370F8BD14F0800F05D00D22134B1A70BD
:101C80008022403B1A7014F0020F06D0104A1378DD
:101C9000DBB213700222044B1A7014F0100F02D042
:101CA0001022014B1A70F8BD802007401519FF1F44
:101CB0003015FF1F1419FF1F902007400000FF1F61
:101CC000C80040008800400094200740C020074022
:101CD0008820074084200740704700BF08B501F006
:101CE00041FA002307E01E4A002142F8331002EBBC
:101CF000C30251600133102BF5DD1A4A136843F417
:101D000080231360184A136843F040731360144B28
:101D1000C3F3072102F5C9229C321170C3F30741B6
:101D2000143211701B0E04321370FF23343A1370F7
:101D300008321370783A1370012384321370002133
:101D40006C3211707C3A13707022084B1A704FF489
:101D50000012A3F231331A601022054B1A7008BD2D
:101D60000000FF1F3480044000D8004035E400E04C
:101D700008210740830043F00202244B03EBC20317
:101D80000138032841D810B472B6214A024492F8AF
:101D9000EC20032A09D8DFE802F0210223050833EA
:101DA00002221EE0083304221BE0194B03EB8003E0
:101DB000D3F8CC302BB9164B03EB8003C3F8CC100F
:101DC00005E0134B03EB8003D3F8DC305960104B74
:101DD00003EB8000C0F8DC1062B614E0032200E0E0
:101DE00005220B4C204480F8EC2001F108025A60D7
:101DF00013F0080F01D0C82200E08822098842EAC7
:101E000001421A6062B65DF8044B70470000FF1F84
:101E10003015FF1F013803280DD872B6074B03EBAE
:101E20008000D0F8CC30002001E001305B68002B4E
:101E3000FBD162B670470020704700BF3015FF1F0E
:101E4000F8B504460F460122324B1A700E465AE08E
:101E5000314B1B6873BB0025304B1B7813F0FF0F11
:101E600005D100222B4B1A704FF0FF30F8BD042033
:101E7000FFF7D0FF07280AD80122264B1A70FFF778
:101E800089FB254B1860A8B90022224B1A70013536
:101E90004DF2E8039D4203D8214B93F88C3133B1C6
:101EA00001221F4B83F88C214FF0FF30F8BD01F069
:101EB000FFF9D1E700221A4B83F88C21164B1968E1
:101EC0004888C0F140039E4200D2334601F1080227
:101ED000024418444880F61A04E0237813702B4615
:101EE000013201345D1E002BF7D14B883F2B07D9FF
:101EF00040230B800420FFF73DFF0022064B1A60B1
:101F00000522084B1A70002EA2D10022014B1A7034
:101F10003846F8BD0D19FF1F1019FF1F1519FF1FB7
:101F20003015FF1F1419FF1F00B583B002AB03F873
:101F3000010D01211846FFF783FF03B05DF804FB94
:101F400008B50846FFF7F0FF08BD00BF08B5084612
:101F50001146FFF775FF08BD074A92F82230DBB241
:101F600092F82300C0B2834201D3181A70471B1A9B
:101F700003F14000704700BF3015FF1F38B505461C
:101F8000FFF7CEFA044625B938BD013D0AD004F565
:101F90007A74FFF7C5FA001BB0F57A7FF5D201F02D
:101FA00087F9F6E738BD00BF3F2837D81C4B03EB55
:101FB000C003DB6D012901D0042915D1184A02EBB9
:101FC000C000826D012082F880024FF4A2721A6074
:101FD000042904D11A6842F020021A6070471A6876
:101FE00022F020021A6070470D4A02EBC000826D99
:101FF000002082F8800219B94FF480721A6070478D
:10200000022903D140F203121A607047032903D159
:102010004FF481721A60704700221A60704700BF47
:10202000E85F00003F2807D8044B03EBC000836D36
:1020300093F80002C0B2704700207047E85F0000CC
:102040003F281FD8104B03EBC0039B6D93F88022F1
:1020500012F0FF0F08D019B1012283F880207047D9
:10206000012283F800217047074B03EBC000C36DCA
:1020700021B11A6842F003021A6070471A6822F010
:1020800002021A60704700BFE85F000030B4DFED65
:102090004A7AB4EEE70AF1EE10FA03D5022447F6C5
:1020A000122201E00124454A00230FE022FA03F145
:1020B00007EE901AF8EE677A9FED417A67EE877A1D
:1020C000B4EEE70AF1EE10FA02DA0133062BEDD98D
:1020D000DA4007EE902AF8EE677A87EE807AF6EE1D
:1020E000007A77EE677AFCEEE77A17EE902AB2F57F
:1020F000803F01D34FF6FF72C11EC9B201290CD82F
:10210000304900200860304D28603048026003F0FC
:10211000070343EAC4030B604BE0A0F11601C9B208
:1021200001290BD9092809D00A2807D0062805D08B
:10213000142803D0152801D005280CD124490020EB
:102140000860244D28602448026003F0070343EA36
:10215000C4030B602DE0A0F11D01C9B201290CD808
:102160001E49002008601E4D28601E48026003F0D2
:10217000070343EAC4030B601BE002280DD00E28BE
:102180000BD0072809D0082807D0232805D02428F9
:1021900003D0252801D026280BD113490020086040
:1021A000124D28601248026003F0070343EAC4039B
:1021B0000B6030BC704700BFC0E1E4400087930370
:1021C00000008037009003400490034008900340D3
:1021D00000800340048003400880034000800B40DF
:1021E00004800B4008800B4000900B4004900B4093
:1021F00008900B40034610B1102802D802E00123DA
:1022000000E01023014A1079137170476008FF1F26
:10221000044B00221A6004490A60044A106010222C
:102220001A60704714D0034004D0034000D003402C
:102230001030024B43F82010704700BF0002FF1F10
:10224000704700BF704700BF1022014B1A807047D3
:1022500000200540F0B58BB022B903681B68C9B2F5
:10226000984732E01646012A00D10A2621B93022C9
:102270008DF82520212419E021243746B1FBF6F200
:1022800006FB1212D2B22546092A02D83032D2B247
:1022900001E03732D2B20DF1280E754405F8242C36
:1022A000B1FBF7F111B1013CE4B2E6E733B1013C17
:1022B000E4B20AAB23442D2203F8242C03685B68A4
:1022C000C4F1220201A9214498470BB0F0BD00BF20
:1022D00081607047014B0360704700BF4862000097
:1022E00008B50E4B1B6813F4802F01D0FFF7AEFB2F
:1022F0000A4B1B6813F4806F01D0FFF79BF8074B64
:102300001B6813F4006F01D000F0E6FD034B1B685F
:1023100013F4805FE5D000F073FDE2E73480044001
:1023200008B5FFF7DDFF00BF70B5364B4FF0006218
:102330001A604FF080521A604FF000521A604FF04E
:1023400080421A604FF000421A6000202E4B186045
:102350004EF6FF710433196028232C4A13600832AB
:1023600013600832136008321360083213600832B9
:1023700013600832136008321360254D2B60254C22
:10238000236002F5002202F6D8721360083213604F
:102390000832136008321360083213600832136089
:1023A00009221D4E326006F5805604363060043630
:1023B00031600436336008363360143E326006F50F
:1023C000FE26043630600436316004363360083649
:1023D0003360143E326006F58056043630600F4894
:1023E00001602B6023600E4B1A6000F031FF322039
:1023F000FFF7C4FDFFF772FC4FF4AF70FFF7BEFDAF
:1024000070BD00BF04E100E0048003400C80034085
:102410000C900B4014900B400080034008900B4040
:1024200000900B4038B50446A0F14203DBB2012B0B
:1024300015D8924B1B780B2B03D8C3F10C03994092
:1024400003E00C2B01D90C3B1941422C03D1084667
:1024500000F0E2FE38BD084600F0C2FE38BD874BF2
:102460001D780122AA40002907DC0021FFF7E8FDC2
:1024700001212046FFF798FD38BD0B468A4207D858
:102480000121FFF7DDFD01212046FFF78DFD38BD5D
:10249000C21ED2B2012A06D8794A106800FB011286
:1024A00022FA05F327E01D38C0B2012806D8754A84
:1024B000106800FB011222FA05F31CE0022C0DD07B
:1024C0000E2C0BD0072C09D0082C07D0232C05D0BC
:1024D000242C03D0252C01D0262C06D16A48006874
:1024E00000FB033222FA05F305E0684A126802FB9A
:1024F000011222FA05F3A21E242A00F2B380DFE8BB
:1025000012F079005D0064005600410087008E00E3
:1025100033003A00B100B100B1008000B100B10059
:10252000B100B100B10048004F0025002C00B100FF
:10253000B100B100B100B1006B007200B100B10098
:10254000B100B10095009C00A300AA00504A13609E
:1025500040F244424F4B1A6038BD4F4A136040F27C
:1025600044424E4B1A6038BD4D4A136040F244421B
:102570004C4B1A6038BD4C4A136040F244424B4BFE
:102580001A6038BD4A4A136040F24442494B1A600F
:1025900038BD494A136040F24442484B1A6038BD86
:1025A000474A136040F24442464B1A6038BD464ADF
:1025B000136040F24442454B1A6038BD444A1360F0
:1025C0004FF45172434B1A6038BD434A13604FF4C5
:1025D0005172424B1A6038BD414A13604FF4517238
:1025E000404B1A6038BD404A13604FF451723F4B64
:1025F0001A6038BD3E4A136040F244423D4B1A60B7
:1026000038BD3D4A136040F244423C4B1A6038BD2D
:102610003B4A136040F244423A4B1A6038BD3A4A92
:10262000136040F24442394B1A6038BD384A136097
:102630004FF45172374B1A6038BD374A13604FF46C
:102640005172364B1A6038BD354A13604FF45172DF
:10265000344B1A6038BD344A13604FF45172334B17
:102660001A6038BD7F29D4BF002101212046FFF721
:10267000E7FC01212046FFF797FC38BD6408FF1FE7
:102680000890034008800B4008900B4008800340EE
:102690001080034004B004401880034008B0044098
:1026A000208003400CB004402880034010B0044058
:1026B0003080034010C004403880034014C0044000
:1026C0004080034018C00440488003401CC00440C0
:1026D0001090034030900440189003403490044020
:1026E00010800B4048A0044018800B404CA00440D0
:1026F00010900B4000C0044018900B4004C00440F0
:1027000020900B4008C0044028900B400CC00440AF
:1027100030900B4020B0044038900B4024B004406F
:1027200040900B4028B0044048900B402CB004402F
:1027300070B53F2868D8042A66D8DFE802F0070998
:10274000050B03000B2306E00A2304E0082302E044
:102750000C2300E009230D461B0443F080762B4B2D
:1027600003EBC0035C68236813F4E06F02D100211F
:10277000FFF71AFC26493B20FFF75AFD25493C206C
:10278000FFF756FD24493D20FFF752FD23493E2027
:10279000FFF74EFD22493F20FFF74AFD04F1404379
:1027A000A3F592237C2B19D904F14043A3F594237C
:1027B0007C2B15D904F14043A3F596237C2B11D92A
:1027C00004F14043A3F598237C2B0DD904F1404339
:1027D000A3F59A237C2B09D9002208E0114A06E0D0
:1027E000114A04E0114A02E0114A00E0114A5AB1CC
:1027F000C4F3840172B6236823F47023236042F883
:1028000021503343236062B670BD00BF40600000BA
:10281000F906FF1F2907FF1F5907FF1F8D07FF1F1D
:10282000C107FF1FF408FF1F6C09FF1FCC09FF1F22
:10283000FC09FF1F3C0AFF1F70B40024B0FBF2F339
:1028400002FB130326460D19092B02D83033DBB2E5
:1028500001E03733DBB22B70B0FBF2F008B101348A
:10286000ECE7013600238B5505E0CA5C085DC854CF
:102870000A550133013C9C42F7DC084670BC7047A6
:1028800008B503F009FB08BD10B50446FFF722FDAB
:1028900014212046FFF7F4FF204610BDFEE700BFDD
:1028A00008B50C4BD3F8B43188B16A461818A2F5B4
:1028B0000052904206D300F009FF0C2303604FF052
:1028C000FF3008BD034AC2F8B401184608BD1846D7
:1028D00008BD00BFF408FF1F08B5FEF721FCFEF796
:1028E000E5FB00F0E5FCFAE72DE9F04F85B0824604
:1028F00016461F469DF838401046194601F0E0FF85
:1029000040B1DAF800305B6803225F4950469847CF
:102910008346AEE027F000494FF0FF325B4B304674
:10292000494601F0CDFF48B94FF0FF32574B3046D2
:10293000494601F0A7FF08B9012300E0002343B195
:10294000DAF800305B6803225149504698478346C5
:102950008FE04FF060424F4B3046394601F0A6FF02
:1029600040B1DAF800305B6803224B495046984783
:1029700083467EE04FF06042484B3046394601F0D6
:1029800077FF40B1DAF800305B68032242495046D5
:10299000984783466DE0002200233046394601F017
:1029A00067FF28B107F100431F464FF0010801E01F
:1029B0004FF00008002500203949A54207D230A376
:1029C000D3E9002301F0E2FC0135EDB2F5E7024660
:1029D0000B463046394601F027FB06460F4601F00C
:1029E000ADFF054601F05CFC02460B463046394619
:1029F00001F018FB06460F4643460A222946504678
:102A0000FFF728FC8346A4B32E238DF800300F2C4B
:102A100000D90F24012504F1FF385FFA88F80CB3C0
:102A20000022204B3046394601F0B0FC06460F46E6
:102A300001F084FFC0B205F101095FFA89F904AB26
:102A40001D4400F1300305F8103C01F039FC02464A
:102A50000B463046394601F0E5FA06460F46444635
:102A60004D46D8E7DAF800305B682A46694650469A
:102A70009847584605B0BDE8F08F00BFAFF300801F
:102A8000000000A09999B93F54620000FFFFEF7F5A
:102A900058620000FFFFEF415C620000FFFFEFC1E2
:102AA0000000E03F0000244010B5144603685B6856
:102AB0009847204610BD00BF00B583B0054B1B886A
:102AC000ADF8043003685B68022201A9984703B09F
:102AD0005DF804FB5062000008B5002902DA4942A3
:102AE0002D2300E000230A22FFF7B4FB08BD00BF3E
:102AF00082B0034B1B680193019B436002B0704797
:102B0000FC18FF1F82B00D4B1B680093009B4168AF
:102B10005B1A826893420DD30AB1037833B1074B35
:102B20001B680193019B4360012004E00A4442605A
:102B3000012000E0002002B0704700BFFC18FF1F1A
:102B400010B5044600230370FFF7C2FB2046FFF7D1
:102B5000CFFF204610BD00BF044A026080ED020A8C
:102B6000C0ED030A80ED041A704700BF4862000000
:102B7000034A026000220261C2608260704700BFA7
:102B80004862000010B4284B1B7913F0200F12D0BC
:102B9000254BDB79D9B2254B1B7801333F2B00D96C
:102BA0000023224A5278D2B2934204D01F4AD0184E
:102BB0000171DBB213701C4BDB78DBB213F0800FBA
:102BC0001FD0194A127912F0800F1AD0174A92F8C2
:102BD0004410C9B292F84520D2B2914203D16C217F
:102BE000114AD1700DE00132272A00D900220F4886
:102BF000811891F84810C9B20B4CE171D2B280F83B
:102C0000452013F0400F0BD0074B1B7913F0400FFA
:102C100006D00022054B83F870202C22024BDA707C
:102C20005DF8044B704700BF00B00E40C016FF1F98
:102C3000064A1378DBB25078C0B2834201D3181A27
:102C400070471B1A03F14000704700BFC016FF1FFA
:102C500010B42A4B1B7913F0200F16D0274BDB79C9
:102C6000D9B2274B93F8713001333F2B00D90023A1
:102C7000234A92F87220D2B2934206D0204AD0184A
:102C800080F87410DBB282F871301C4BDB78DBB259
:102C900013F0800F1FD0194A127912F0800F1AD04A
:102CA000174A92F8B410C9B292F8B520D2B2914244
:102CB00003D16C21114AD1700DE00132272A00D9CD
:102CC00000220F48811891F8B810C9B20B4CE1717D
:102CD000D2B280F8B52013F0400F0BD0074B1B7910
:102CE00013F0400F06D00022054B83F8E0202C2281
:102CF000024BDA705DF8044B704700BF00A00E4035
:102D0000C016FF1F074A92F87130DBB292F87200CA
:102D1000C0B2834201D3181A70471B1A03F1400056
:102D2000704700BFC016FF1F10B42A4B1B7913F069
:102D3000200F16D0274BDB79D9B2274B93F8E1301F
:102D400001333F2B00D90023234A92F8E220D2B26C
:102D5000934206D0204AD01880F8E410DBB282F803
:102D6000E1301C4BDB78DBB213F0800F1FD0194A27
:102D7000127912F0800F1AD0174A92F82411C9B2B2
:102D800092F82521D2B2914203D16C21114AD1701F
:102D90000DE00132272A00D900220F48811891F84E
:102DA0002811C9B20B4CE171D2B280F8252113F081
:102DB000400F0BD0074B1B7913F0400F06D00022B9
:102DC000054B83F850212C22024BDA705DF8044B3E
:102DD000704700BF00D00640C016FF1F074A92F898
:102DE000E130DBB292F8E200C0B2834201D3181A9C
:102DF00070471B1A03F14000704700BFC016FF1F49
:102E000010B42A4B1B7913F0200F16D0274BDB7917
:102E1000D9B2274B93F8513101333F2B00D900230E
:102E2000234A92F85221D2B2934206D0204AD018B7
:102E300080F85411DBB282F851311C4BDB78DBB2E5
:102E400013F0800F1FD0194A127912F0800F1AD098
:102E5000174A92F89411C9B292F89521D2B29142D0
:102E600003D16C21114AD1700DE00132272A00D91B
:102E700000220F48811891F89811C9B20B4CE171EA
:102E8000D2B280F8952113F0400F0BD0074B1B797D
:102E900013F0400F06D00022054B83F8C0212C22EE
:102EA000024BDA705DF8044B704700BF00C006406B
:102EB000C016FF1F074A92F85131DBB292F8520157
:102EC000C0B2834201D3181A70471B1A03F14000A5
:102ED000704700BFC016FF1F10B4384B1B7913F0AA
:102EE000300F29D072B6354B9A7D02F0FF032AB914
:102EF000324BDA7940225A7462B61DE062B6304A2B
:102F000092F8C101C0B292F8C241E4B22B4AD27920
:102F1000D1B2421C3F2A00D90022A24204D0284844
:102F2000104480F8C4111046013B13F0FF03EDD1AB
:102F3000C0B2234B83F8C101204BDB78DBB213F026
:102F4000800F29D01D4A127912F0800F24D01C4A1C
:102F500092F80442E4B292F80522D2B2A2420FD013
:102F60000132272A00D90022144908791448104454
:102F700090F80802C0B2C871097DC9B20729EDD91D
:102F8000D2B20F4981F805220C4A127912F0800F53
:102F900002D07C21094AD17013F0400F0BD0074BAF
:102FA0001B7913F0400F06D00022054B83F8302226
:102FB0003C22024BDA705DF8044B704700B00640CB
:102FC000C016FF1F074A92F8C131DBB292F8C20166
:102FD000C0B2834201D3181A70471B1A03F1400094
:102FE000704700BFC016FF1F704700BF704700BF8B
:102FF000704700BF704700BF704700BF704700BFF9
:103000001D4BD3F834322BB98360C3601A4BC3F81D
:1030100034022EE001681A6891420BD283600022CC
:10302000C260D86001681A68521A1A60124BC3F85D
:1030300034021EE09A68A2B119680268521A02604E
:103040009B6819688A42F5D28360DA68C260D860EA
:10305000C268906001681A68521A1A6002230375E8
:10306000704719680268521A026000228260C360C9
:103070009860022303757047C016FF1F10B5194BE7
:10308000D3F83442E4B1236813B1013B236017E065
:10309000A3680BB10022DA60124AC2F83432002170
:1030A0002175206903681B682246984763681BB135
:1030B00023602046FFF7A4FF0A4BD3F83442E1E730
:1030C000EFF3108372B6074AD2F838020021C2F833
:1030D000381203B962B620B18468FFF791FF204629
:1030E000F9E710BDC016FF1F08B5044AD2F83C32FC
:1030F0000133C2F83C32FFF7C1FF08BDC016FF1F05
:1031000008B5EFF3108272B60A4BD3F8400268B1EB
:1031100043690849C1F840320BB10021996102B9F5
:1031200062B60023437783689847EAE702B962B63C
:1031300008BD00BFC016FF1F08B5FFF7E1FF08BDBF
:1031400008B54FF6FF710120FDF7B0FE4FF6FF7195
:103150000120FEF70DF84FF6FF710120FEF720F871
:1031600008BD00BF72B6184B70221A701749184A72
:10317000116080221A70144B1B7813F0800FFAD064
:1031800000B585B0134B186862B6134B984202D84D
:103190000A2303FB00F00A2201A9FFF74DFB0023DD
:1031A00009E004AA1A4412F80C1C31B10B4A02EBD4
:1031B000430251800133092BF3D901335B00074AE5
:1031C000137005B05DF804FB0000024000000741E9
:1031D000040002400C0002407F969800AC0AFF1FDA
:1031E0000A4A136843F400531360C022084B1A7054
:1031F000002803DBB0F5805F02DA03E0002001E085
:1032000040F6FF7000B2034B188070472C800440DA
:1032100021D00C4000D00C400A4A136843F480537C
:103220001360C022084B1A70002803DBB0F5805FE2
:1032300002DA03E0002001E040F6FF7000B2034B29
:10324000188070472C80044021C00C4000C00C4006
:103250006022144B1A70E12201331A703922A3F54F
:103260006333A3F2F9331A6013230F490B6001F59E
:10327000FF2101F2FC710A600C4A13600023A2F5E1
:10328000FF22A2F2EC72136002F500221360842385
:10329000A2F5FF22A2F2FC72136002F50022136075
:1032A000704700BF004007400CB003400CB00B401B
:1032B000204B93F84432002B3AD110B51D4C01231A
:1032C00084F84432FEF748FEFFF77CFEFFF7F2FD7C
:1032D000FFF784FDFFF716FDFFF7AAFC002384F833
:1032E0004432EFF3058313BBEFF3108372B6D4F8C7
:1032F000480210B9DBB962B610BD0E4A92F84C22F2
:1033000012B1A3B962B610BD0A49012281F84C225C
:103310004269C1F848220AB10021916103B962B63D
:103320000024447783689847024B83F84C4210BDD1
:10333000704700BFC016FF1F08B5104B93F84D3201
:1033400013F0FF0F19D10D4BD3F8501249B14B8830
:103350000B800420FEF70EFD0022084BC3F850221C
:1033600008BDFEF717F9014618B10420FEF702FD6B
:1033700008BD0122014B83F8542208BDC016FF1F6F
:1033800038B5174B93F8553213F0FF0F26D0144B76
:10339000012283F84D22D3F8501259B11C46002562
:1033A00083F854524B880B800420FEF7E3FCC4F8EA
:1033B00050520FE0FEF7EEF8014638B10022084BFC
:1033C00083F854220420FEF7D5FC03E00122044BCD
:1033D00083F854220022024B83F84D2238BD00BFEF
:1033E000C016FF1F08B5134B012283F84D22D3F8F6
:1033F0005032ABB90F4B93F8553213F0FF0F0AD090
:103400000420FEF707FD072805D8FEF7C3F8094B8F
:10341000C3F8500220B90020064B83F84D0208BDC6
:10342000044BD3F850225088C0F14000002283F8AA
:103430004D2208BDC016FF1F2DE9F00F8AB0546859
:103440000091009B009E1D884188768847680994FA
:103450008D420388079640F028811188994240F0F8
:1034600024815088B04240F0208105F00300029092
:10347000029A05914FEA9508531E08F1FF34B200F5
:10348000A0B2F4009EB2009B0394013004EB42040E
:103490004FEA860B4FF0000CAE005B68089600FB0D
:1034A00004F507EB0016CDF80480CDF818C004959C
:1034B0000BF1040B60460999DDF81C8001EB8009D3
:1034C0009FED7B6A1D464FF0000CCA46019B002B06
:1034D00000F0E780D5ED007AD7ED002AB0EE462A5D
:1034E00002EEA72AA818D0ED001A97ED011A039949
:1034F000F0EE427A691841EE217AD1ED000A97ED9B
:10350000020A8B1840EE207AC7EB060993ED007A89
:10351000D7ED036A07F11003A9F11000B342C0F31D
:10352000001946EE877A05EB0400214460D0B9F11A
:10353000000F20D093ED004AD0ED004A00EB0209C5
:1035400044EE247A93ED013AD9ED003A43EE237A22
:1035500093ED022AD1ED002A01EB020942EE227A14
:1035600093ED031AD9ED001A1033B342204441EE13
:10357000217A21443CD0B94693ED003AD0ED003A8F
:10358000871843EE237A93ED012AD7ED002A42EE05
:10359000227A93ED021AD1ED001A8F1841EE217AAA
:1035A00093ED030AD7ED000A201840EE207AD3ED00
:1035B000046A90ED007A871846EE877A93ED055AF3
:1035C000D7ED005A091945EE257A93ED064AD1ED5B
:1035D000004A8F1844EE247A93ED073AD7ED003A6B
:1035E0002033B342204443EE237A2144C4D14F46D2
:1035F00004996D18029850B31946B1EC014AD5ED03
:10360000004A5B44ABF104009942C0F3800044EEF1
:10361000247A15441BD040B1B1EC010AD5ED000A63
:103620009942154440EE207A11D00846F0EC016A28
:1036300095ED007AAD1846EE877A91ED015AD5EDF9
:10364000005A011D994245EE257A1544EDD1EAEC68
:10365000017A009B0CF101055B6808F1FF311FFA4C
:1036600085FC1FFA81F803EB8C05B8F1000F7FF49D
:103670002DAF059DDDF818C0691E079D0CEB0500F8
:10368000DDF820C089B280B2059106906744664497
:1036900000297FF410AF0B4658B20AB0BDE8F00F16
:1036A0007047DFED037A3B46A4E7FD23F4E700BF54
:1036B000000000000B460146184600F001B800BFAC
:1036C00013460A460146022000F02EB8014B186846
:1036D000704700BFF00EFF1F70B50F4E0F4D761BE9
:1036E000B61018BF002405D0013455F8043B9847A4
:1036F000A642F9D10A4E0B4D761B02F0A1FEB61080
:1037000018BF002406D0013455F8043B9847A64260
:10371000F9D170BD70BD00BF4C6400004C64000066
:10372000586400004C6400002DE9F047254C2568E2
:10373000D5F848410646884692469946C4B3606823
:103740001F2817DC431C76B104EB80050122C5F865
:1037500088A0D4F8881182401143022EC4F8881141
:10376000C5F808911ED00230636044F82080002024
:10377000BDE8F087144B03B34FF4C87002F084FB2C
:103780000446D0B1D5F84831002780E88800C5F854
:10379000484138460123C4F88871C4F88C71002E62
:1037A000E1D0D1E7D4F88C110A43C4F88C21DAE7D0
:1037B00005F5A674C5F84841C1E74FF0FF30BDE8F4
:1037C000F08700BF60620000895E0000024B13B109
:1037D000024800F005B8704700000000ED37000017
:1037E000002301461A461846FFF79EBF38B5074D1D
:1037F000074C2C1BA41005D0013C55F8043D9847FC
:10380000002CF9D1BDE8384002F026BE00000000CF
:1038100000000000F8B5234F0C46064600F0E8FB18
:10382000BB685D6825F00305291B01F6EF7121F4E3
:103830007F6121F00F01A1F58054B4F5805F07DBB3
:103840000021304600F0D8FBBB682B44984204D0DE
:10385000304600F0CFFB0020F8BD6142304600F05A
:10386000CBFB01300DD0104BBA6819682D1B45F009
:1038700001053046091B5560196000F0BBFB0120B3
:10388000F8BD0021304600F0B7FBBA68831A0F2B51
:10389000DEDD064C0449246843F00103001B53603D
:1038A0000860D5E7F40EFF1F2419FF1F0013FF1F48
:1038B000002945D02DE9F0410D46804600F098FBE7
:1038C00055F8047C6A4927F00103A5F10804E218C1
:1038D0008E685068B24220F0030062D0FE0750604C
:1038E0000BD455F8087CE41B01F1080EA56875455A
:1038F0003B446FD0E768EF60BD6015186D68ED0759
:1039000042D543F001026260E350B3F5007F18D264
:10391000DB085A1C4D6851F83270A76001209B10DB
:1039200000FA03F301EBC2001D430838E0604D606C
:1039300041F83240FC604046BDE8F04100F05ABB1F
:1039400070475A0A042A53D89A0902F139077F00AE
:1039500002F1380501EB870051F827204449083867
:1039600090424DD0516821F003018B4202D29268FF
:103970009042F7D1D068E060A2608460D460404695
:10398000BDE8F04100F036BB95683A4FBD420344B4
:103990003FD0D068E86043F0010285606260E35088
:1039A000B3E7FF07034407D455F8082CA41A1344BF
:1039B000A068E268C26090602F4A126843F001007C
:1039C000934260608C60B6D32C4B40461968FFF779
:1039D00021FFB0E711184968C90744D49168D2683B
:1039E000CA60034443F0010091606060E350A2E7C5
:1039F000142A17D802F15C077F0002F15B05A9E7E2
:103A0000AA104B68012505FA02F213434B600246E7
:103A1000B1E743F001024C610C61E560A5606260B2
:103A2000E35088E7542A06D81A0B02F16F077F008B
:103A300002F16E058EE7B2F5AA7F06D8DA0B02F125
:103A400078077F0002F1770584E740F25450824204
:103A500006D89A0C02F17D077F0002F17C0579E718
:103A6000FE277E2576E743F001026260E35062E7BD
:103A7000F40EFF1FFC0EFF1FFC12FF1F2019FF1F7B
:103A80002DE9F04F01F10B05162D83B0064640F2EB
:103A90009F8035F0070500F1BF80A94200F2BC808D
:103AA00000F0A6FAB5F5FC7FC0F09C826B0A00F02E
:103AB000BA80042B00F28381A80900F1390E4FEA85
:103AC0004E033830C44F07EB8303A3F108015C6851
:103AD000A14207D1ACE0002A80F2AC80E468A142A8
:103AE00000F0A680636823F003035A1B0F2AF2DD5F
:103AF000B9493C6901F1080E744500F0B38163686F
:103B000023F003035A1B0F2A00F39981002AC1F8FE
:103B100014E0C1F810E080F29E80B3F5007F80F0E1
:103B20006781DB0803F1010C01229B1002FA03F309
:103B30004A6851F83C80C4F8088001EBCC091A436C
:103B4000A9F10803E3604A6041F83C40C8F80C4022
:103B5000831001249C40944200F28A80144206D1D2
:103B600020F003006400144200F10400FAD007EBD7
:103B7000C009CC468046DCF80C108C4507D173E1B7
:103B8000002A80F28181C9688C4500F06D814B6804
:103B900023F003035A1B0F2AF2DD0C46D1F80CC0A8
:103BA00054F8088F4B1945F001054D6042F00101B2
:103BB000C8F80CC03046CCF808807B613B61C3F884
:103BC0000CE0C3F808E059609A5000F013FA1FE0C7
:103BD000102921D800F00CFA1025062302207E4F70
:103BE00007EB8303A3F108025C68944200F045816F
:103BF0006368E168A56823F00303234430465A68EC
:103C0000E96042F001028D605A6000F0F3F9083477
:103C1000204603B0BDE8F08F00240C23204633601B
:103C200003B0BDE8F08F80234FF0400E3F2049E7FE
:103C300070465DE72344E1685A68A56842F00102D6
:103C4000E96030468D605A6000F0D4F908342046AF
:103C500003B0BDE8F08F234430465A6842F00102B9
:103C60005A6000F0C7F90834204603B0BDE8F08F71
:103C7000BC68636823F00308A84504D3C5EB0803B8
:103C80000F2B00F38C80554BDFF860911A68D9F840
:103C9000003001332A4404EB080A00F0608102F589
:103CA00080520F3222F47F6222F00F02114630461A
:103CB000019200F0A1F9B0F1FF3F8346019A00F0B4
:103CC0005881824500F2FC80454B1968DA45114461
:103CD000196000F05381D9F80000DFF810E10130DD
:103CE0001BBFCAEB0B0A5144CEF800B019601BF0A1
:103CF000070100F01781C1F10800C1F5805183442C
:103D000008315A44C2F30B02C2EB0109494630465E
:103D1000019300F071F9431C019B00F03F81CBEB54
:103D200000024A4442F001021968C7F808B0494449
:103D3000BC42CBF804201960DFF8A49016D0B8F18B
:103D40000F0F40F2FD806268A8F10C0323F0070317
:103D5000E01802F001024FF0050E1A430F2B6260CB
:103D6000C0F804E0C0F808E000F21C811D4BBC68FC
:103D70001A68914288BF19601B4B1A6891426268A9
:103D800088BF196022F003029542A2EB050301D817
:103D90000F2B04DC304600F02DF9002438E76219BF
:103DA00043F0010345F0010565603046BA60536099
:103DB00000F020F90834204603B0BDE8F08F142B42
:103DC00071D9542B00F2A480280B00F16F0E4FEA3A
:103DD0004E036E3076E600BFF40EFF1F2019FF1F62
:103DE0002419FF1F1C19FF1F1819FF1F0013FF1FA5
:103DF0005A0A042A5ED9142A00F2B38002F15C0147
:103E000049005B3207EB810C57F82110DFF8DC81A9
:103E1000ACF1080C8C4500F088804A6822F003025F
:103E2000934202D289688C45F7D1D1F80CC07A68E8
:103E3000C4F80CC0A160CCF80840CC6088E66319D7
:103E400042F0010745F00105656030464B610B61AA
:103E5000C3F80CE0C3F808E05F609A50083400F043
:103E6000C9F8D5E64A6873E608F1010818F0030FAF
:103E70000CF1080C7FF47FAE30E0DC68A34208BF91
:103E800002303FF435AEB3E60B440C465A68C968BD
:103E900054F8085F42F001025A603046E9608D60D4
:103EA00000F0A8F8B4E603F15C0E03F15B004FEA02
:103EB0004E0307E69A0902F1390149003832A1E7B9
:103EC000BC424A4B3FF400AF9C68626822F0030298
:103ED0005AE759F80839994540F0828010F0030FED
:103EE00000F1FF30F5D17B6823EA04037B606400B6
:103EF0009C423FF6BDAE002C3FF4BAAE1C42404699
:103F00007FF435AE64001C4200F10400FAD02EE6C6
:103F1000B3F5AA7F18D8E80B00F1780E4FEA4E03EC
:103F20007730CFE54FF48051EBE60121D8F804302B
:103F3000921001FA02F21A43C8F80420614677E7AA
:103F40000123CBF8043025E740F25452934220D8A5
:103F5000A80C00F17D0E4FEA4E037C30B2E5103222
:103F6000A4E6542A26D81A0B02F16F0149006E32DA
:103F700048E7BC68626822F0030205E7CAF30B0059
:103F800000287FF4A8AE4244BB6842F001025A60A8
:103F9000ECE6FE234FF07F0E7E2093E501224FF0EA
:103FA0000009C1E604F108013046FFF781FCD9F8A9
:103FB0000010DBE6B2F5AA7F05D8DA0B02F1780132
:103FC000490077321EE740F254518A4205D89A0CD4
:103FD00002F17D0149007C3214E7FE217E2211E7C7
:103FE0007B6884E7E808431C5B00F8E5F40EFF1FDC
:103FF000704700BF704700BF38B5074C0023054627
:1040000008462360FEF74CFC431C00D038BD2368F3
:10401000002BFBD02B6038BD4C19FF1F81F00041F5
:1040200002E000BF83F0004330B54FEA41044FEA9D
:10403000430594EA050F08BF90EA020F1FBF54EA38
:10404000000C55EA020C7FEA645C7FEA655C00F0D4
:10405000E2804FEA5454D4EB5555B8BF6D420CDDA5
:104060002C4480EA020281EA030382EA000083EA28
:10407000010180EA020281EA0303362D88BF30BDC8
:1040800011F0004F4FEA01314FF4801C4CEA11311E
:1040900002D0404261EB410113F0004F4FEA03337D
:1040A0004CEA133302D0524263EB430394EA050F08
:1040B00000F0A780A4F10104D5F1200E0DDB02FA77
:1040C0000EFC22FA05F2801841F1000103FA0EF20B
:1040D000801843FA05F359410EE0A5F120050EF1D1
:1040E000200E012A03FA0EFC28BF4CF0020C43FA02
:1040F00005F3C01851EBE37101F0004507D54FF00F
:10410000000EDCF1000C7EEB00006EEB0101B1F55E
:10411000801F1BD3B1F5001F0CD349085FEA3000A4
:104120004FEA3C0C04F101044FEA445212F5800FAF
:1041300080F09A80BCF1004F08BF5FEA500C50F14C
:10414000000041EB045141EA050130BD5FEA4C0C2F
:10415000404141EB010111F4801FA4F10104E9D1B8
:1041600091F0000F04BF01460020B1FA81F308BFAF
:104170002033A3F10B03B3F120020CDA0C3208DD7B
:1041800002F1140CC2F10C0201FA0CF021FA02F156
:104190000CE002F11402D8BFC2F1200C01FA02F1C6
:1041A00020FA0CFCDCBF41EA0C019040E41AA2BFEB
:1041B00001EB0451294330BD6FEA04041F3C1CDAB3
:1041C0000C340EDC04F11404C4F1200220FA04F0D3
:1041D00001FA02F340EA030021FA04F345EA03017D
:1041E00030BDC4F10C04C4F1200220FA02F001FA3F
:1041F00004F340EA0300294630BD21FA04F02946C1
:1042000030BD94F0000F83F4801306BF81F4801159
:104210000134013D4EE77FEA645C18BF7FEA655CCC
:1042200029D094EA050F08BF90EA020F05D054EA9E
:10423000000C04BF1946104630BD91EA030F1EBFA3
:104240000021002030BD5FEA545C05D140004941A7
:1042500028BF41F0004130BD14F580043CBF01F59A
:10426000801130BD01F0004545F0FE4141F4700180
:104270004FF0000030BD7FEA645C1ABF194610465B
:104280007FEA655C1CBF0B46024650EA013406BF5C
:1042900052EA033591EA030F41F4002130BD00BF1B
:1042A00090F0000F04BF0021704730B54FF48064D8
:1042B00004F132044FF000054FF0000150E700BF59
:1042C00090F0000F04BF0021704730B54FF48064B8
:1042D00004F1320410F0004548BF40424FF00001A5
:1042E0003EE700BF42004FEAE2014FEA31014FEAE8
:1042F00002701FBF12F07F4393F07F4F81F0605137
:10430000704792F0000F14BF93F07F4F704730B5A5
:104310004FF4607401F0004521F0004120E700BF38
:1043200050EA010208BF704730B54FF000050AE0BF
:1043300050EA010208BF704730B511F0004502D5C0
:10434000404261EB41014FF4806404F132045FEAC2
:10435000915C3FF4DCAE4FF003025FEADC0C18BF67
:1043600003325FEADC0C18BF033202EBDC02C2F15D
:10437000200300FA03FC20FA02F001FA03FE40EAEF
:104380000E0021FA02F11444C1E600BF70B54FF0EF
:10439000FF0C4CF4E06C1CEA11541DBF1CEA1355D1
:1043A00094EA0C0F95EA0C0F00F0DEF82C4481EA39
:1043B000030621EA4C5123EA4C5350EA013518BF59
:1043C00052EA033541F4801143F4801338D0A0FB46
:1043D00002CE4FF00005E1FB02E506F00042E0FBF3
:1043E00003E54FF00006E1FB03569CF0000F18BFF9
:1043F0004EF0010EA4F1FF04B6F5007F64F54074A1
:1044000004D25FEA4E0E6D4146EB060642EAC62133
:1044100041EA55514FEAC52040EA5E504FEACE2EA0
:10442000B4F1FD0C88BFBCF5E06F1ED8BEF1004FA3
:1044300008BF5FEA500E50F1000041EB045170BD1F
:1044400006F0004646EA010140EA020081EA030163
:10445000B4EB5C04C2BFD4EB0C0541EA045170BD5F
:1044600041F480114FF0000E013C00F3AB8014F1D9
:10447000360FDEBF002001F0004170BDC4F1000422
:10448000203C35DA0C341BDC04F11404C4F12005A3
:1044900000FA05F320FA04F001FA05F240EA0200FE
:1044A00001F0004221F0004110EBD37021FA04F634
:1044B00042EB06015EEA430E08BF20EAD37070BDEE
:1044C000C4F10C04C4F1200500FA04F320FA05F04D
:1044D00001FA04F240EA020001F0004110EBD3704F
:1044E00041F100015EEA430E08BF20EAD37070BDBF
:1044F000C4F1200500FA05F24EEA020E20FA04F398
:1045000001FA05F243EA020321FA04F001F0004146
:1045100021FA04F220EA020000EBD3705EEA430EB7
:1045200008BF20EAD37070BD94F0000F0FD101F0E6
:104530000046400041EB010111F4801F08BF013C1F
:10454000F7D041EA060195F0000F18BF704703F05D
:104550000046520043EB030313F4801F08BF013DE4
:10456000F7D043EA0603704794EA0C0F0CEA1355A0
:1045700018BF95EA0C0F0CD050EA410618BF52EA5A
:104580004306D1D181EA030101F000414FF0000060
:1045900070BD50EA410606BF1046194652EA43066E
:1045A00019D094EA0C0F02D150EA013613D195EAE2
:1045B0000C0F05D152EA03361CBF104619460AD12A
:1045C00081EA030101F0004141F0FE4141F4700134
:1045D0004FF0000070BD41F0FE4141F4780170BD24
:1045E00070B54FF0FF0C4CF4E06C1CEA11541DBF89
:1045F0001CEA135594EA0C0F95EA0C0F00F0A7F88B
:10460000A4EB050481EA030E52EA03354FEA0131B7
:1046100000F088804FEA03334FF0805545EA1313CA
:1046200043EA12634FEA022245EA111545EA106592
:104630004FEA00260EF000419D4208BF964244F129
:10464000FD0404F5407402D25B084FEA3202B61A48
:1046500065EB03055B084FEA32024FF480104FF41C
:10466000002CB6EB020E75EB030E22BFB61A754690
:1046700040EA0C005B084FEA3202B6EB020E75EB23
:10468000030E22BFB61A754640EA5C005B084FEA8B
:104690003202B6EB020E75EB030E22BFB61A754658
:1046A00040EA9C005B084FEA3202B6EB020E75EB63
:1046B000030E22BFB61A754640EADC0055EA060E24
:1046C00018D04FEA051545EA16754FEA06164FEA67
:1046D000C30343EA52734FEAC2025FEA1C1CC0D113
:1046E00011F4801F0BD141EA00014FF000004FF0A0
:1046F000004CB6E711F4801F04BF01430020B4F161
:10470000FD0C88BFBCF5E06F3FF6AFAEB5EB030C18
:1047100004BFB6EB020C5FEA500C50F1000041EB15
:10472000045170BD0EF0004E4EEA113114EB5C04E2
:10473000C2BFD4EB0C0541EA045170BD41F48011B5
:104740004FF0000E013C90E645EA060E8DE60CEABD
:10475000135594EA0C0F08BF95EA0C0F3FF43BAFDA
:1047600094EA0C0F0AD150EA01347FF434AF95EA91
:104770000C0F7FF425AF104619462CE795EA0C0F75
:1047800006D152EA03353FF4FDAE1046194622E742
:1047900050EA410618BF52EA43067FF4C5AE50EA1C
:1047A00041047FF40DAF52EA43057FF4EBAE12E70C
:1047B0004FF0FF3C06E000BF4FF0010C02E000BFED
:1047C0004FF0010C4DF804CD4FEA410C7FEA6C5CD0
:1047D0004FEA430C18BF7FEA6C5C1BD001B050EA73
:1047E000410C0CBF52EA430C91EA030F02BF90EA5E
:1047F000020F0020704710F1000F91EA030F58BF1D
:10480000994208BF90422CBFD8176FEAE37040F07E
:10481000010070474FEA410C7FEA6C5C02D150EA1C
:10482000013C07D14FEA430C7FEA6C5CD6D152EAD7
:10483000033CD3D05DF8040B704700BF844610469C
:1048400062468C461946634600E000BF01B5FFF79B
:10485000B7FF002848BF10F1000F01BD4DF808ED6B
:10486000FFF7F4FF0CBF012000205DF808FB00BF3C
:104870004DF808EDFFF7EAFF34BF012000205DF896
:1048800008FB00BF4DF808EDFFF7E0FF94BF0120E3
:1048900000205DF808FB00BF4DF808EDFFF7CEFFE4
:1048A00094BF012000205DF808FB00BF4DF808ED23
:1048B000FFF7C4FF34BF012000205DF808FB00BFF4
:1048C0004FEA410C7FEA6C5C02D150EA013C0AD10C
:1048D0004FEA430C7FEA6C5C02D152EA033C02D1FE
:1048E0004FF0000070474FF0010070474FEA41025F
:1048F00012F5001215D211D56FF47873B3EB625232
:1049000012D94FEAC12343F0004343EA505311F058
:10491000004F23FA02F018BF404270474FF00000EA
:10492000704750EA013005D111F0004008BF6FF028
:10493000004070474FF00000704700BF4A0011D29E
:1049400012F5001211D20DD56FF47873B3EB6252E9
:104950000ED44FEAC12343F0004343EA505323FAF5
:1049600002F070474FF00000704750EA013002D16A
:104970004FF0FF3070474FF0000070474FEA4102A0
:10498000B2F1E04324BFB3F5001CDCF1FE5C0DD9AD
:1049900001F0004C4FEAC0024CEA5070B2F1004FF7
:1049A00040EB830008BF20F00100704711F0804FFA
:1049B00021D113F13872BCBF01F00040704741F4BF
:1049C00080114FEA5252C2F11802C2F1200C10FAC3
:1049D0000CF320FA02F018BF40F001004FEAC123A7
:1049E0004FEAD32303FA0CFC40EA0C0023FA02F34B
:1049F0004FEA4303CCE77FEA625307D150EA013321
:104A00001EBF4FF0FE4040F44000704701F00040F0
:104A100040F0FE4040F40000704700BFFFFFFFFF82
:104A200000B551EC100B2C4A21F00043934285B0A5
:104A300020DD2A4A934209DD10EE102A0B46FFF7CB
:104A4000F1FA41EC100B05B05DF804FB684600F08C
:104A5000A7F800F00300012828D0022815D060B381
:104A600001209DED021B9DED000B01F015F851ECAE
:104A7000100BE6E79FED161B00F0BAFA51EC100B95
:104A800041EC100B05B05DF804FB9DED021B9DEDA4
:104A9000000B00F0ADFA53EC102B10EE100A03F1EE
:104AA000004141EC100B05B05DF804FB9DED021BCD
:104AB0009DED000B00F0F0FFEDE79DED021B9DED7D
:104AC000000B00F095FA51EC100BBAE7AFF3008041
:104AD0000000000000000000FB21E93FFFFFEF7F26
:104AE00000B551EC100B2C4A21F00043934285B0E5
:104AF00027DD2A4A934209DD10EE102A0B46FFF704
:104B000091FA41EC100B05B05DF804FB684600F02B
:104B100047F800F00300012827D002281DD068B311
:104B20009DED021B9DED000B00F062FA53EC102B83
:104B300010EE100A03F1004141EC100B05B05DF8D6
:104B400004FB00209FED121B00F0A6FF51EC100BA0
:104B500041EC100B05B05DF804FB01209DED021B3C
:104B60009DED000B00F098FFE0E79DED021B9DED31
:104B7000000B00F03DFA51EC100BC2E701209DED57
:104B8000021B9DED000B00F087FF51EC100BB8E706
:104B90000000000000000000FB21E93FFFFFEF7F65
:104BA0002DE9F04F53EC102B974923F0004B8B4528
:104BB0008FB040F3878095498B451C46824629DC9F
:104BC000002C194610EE100A85A3D3E9002340F308
:104BD000A581FFF727FA8E4B9B4504460D4600F052
:104BE000878081A3D3E90023FFF71CFA02460B4616
:104BF000CAE9002320462946FFF714FA7AA3D3E92D
:104C00000023FFF70FFA0125CAE9020128460FB079
:104C1000BDE8F08F7F498B4540F387807E498B4507
:104C20005BDC4FEA2B55A5F21645ABEB055710465A
:104C3000394610EE106AFFF759FEFFF741FB804638
:104C4000894642464B4630463946CDE90889FFF74A
:104C5000E9F90022714BFFF799FB89468046FFF77F
:104C600045FEFFF72DFB06460F4632463B464046C3
:104C70004946CDE90A67FFF7D5F90022674BFFF7F0
:104C800085FB00220023CDE90C01FFF7E7FD00289A
:104C900000F070810023304639460022FFF7DEFD28
:104CA000002814BF012302235D4A019202210091D2
:104CB0002A46514608A800F0DFFA002CC0F24C81C9
:104CC000054606E080ED000B00250024C0E9024502
:104CD000002528460FB0BDE8F08F10EE100A1946E7
:104CE000FFF7A0F90025CAE90201CAE90001F0E7CF
:104CF0003FA3D3E90023FFF795F93FA3D3E90023AE
:104D00000D460446FFF78EF902460B46CAE900231A
:104D100029462046FFF786F937A3D3E90023FFF79A
:104D200081F90125CAE90201D3E700F07FFF57ECC2
:104D3000106B10EE100A32A3D3E900233946FFF7B7
:104D400025FB0022374BFFF76FF9FFF7CFFD054634
:104D5000FFF7B6FA22A3D3E90023CDE90401FFF758
:104D600015FB02460B4630463946FFF75BF91EA39A
:104D7000D3E9002380468946DDE90401FFF706FBFD
:104D80001F2DCDE9020151DC274B6A1E53F822305A
:104D90009B454BD002460B4640464946FFF742F939
:104DA00006460F46CAE9006732463B46404649463A
:104DB000FFF738F9DDE90223FFF734F9002CCAE9DF
:104DC000020186DA07F1004401F100436D42CAF89E
:104DD0000060CAF80440CAF80800CAF80C3078E746
:104DE00000004054FB21F93F3163621A61B4D03DA9
:104DF0000000601A61B4D03D7370032E8A19A33B82
:104E000083C8C96D305FE43FFB21E93F7BD9024095
:104E1000FB21F93FFB213941FFFFEF7F000070418B
:104E2000E46200000000E03F64620000DDE902236C
:104E300040464946FFF7F6F84FEA2B5BC1F30A53A9
:104E4000C3EB0B0306460F46102BCAE90067ABDD28
:104E50005DA3D3E90023DDE90401FFF797FA0646D5
:104E60000F4602460B4640464946FFF7DBF8CDE9C0
:104E7000060102460B4640464946FFF7D3F8324644
:104E80003B46FFF7CFF852A3D3E9002306460F466F
:104E9000DDE90401FFF77AFA32463B46FFF7C2F834
:104EA0000B46CDE902010246DDE90601FFF7BAF83B
:104EB000C1F30A53C3EB0B0B06460F46BBF1310F90
:104EC000CAE9006776DD45A3D3E90023DDE90401E3
:104ED000FFF75CFA06460F4602460B46DDE906017F
:104EE000FFF7A0F802460B4680468946DDE9060139
:104EF000FFF798F832463B46FFF794F839A3D3E919
:104F0000002306460F46DDE90401FFF73FFA32466B
:104F10003B46FFF787F8CDE902013BE7FFF784F84E
:104F20002D4B9B4504460D4626D025A3D3E90023EF
:104F3000FFF77AF802460B46CAE9002329462046C5
:104F4000FFF770F81EA3D3E90023FFF76DF84FF0C9
:104F5000FF35CAE90201BCE6DAF80420DAF80C30C1
:104F600002F1004203F100434542CAF80420CAF8A6
:104F70000C30AEE6032397E613A3D3E90023FFF733
:104F800053F813A3D3E900230D460446FFF74CF86A
:104F900002460B46CAE9002329462046FFF742F89D
:104FA0000BA3D3E90023FFF73FF84FF0FF35CAE921
:104FB00002018EE6DDE90689F6E600BFAFF3008068
:104FC0003163621A61B4D03D0000601A61B4D03D13
:104FD0007370032E8A19A33BFB21F93F0000002EBA
:104FE0008A19A33BC14920259A837B39FFFFFFFF24
:104FF0002DE9F04F57EC106B2DED028BB0EE418A8E
:10500000F0EE618A27F00049B9F1795F83B072DA76
:1050100010EE100A3946FFF769FC002800F0F68010
:1050200032463B4630463946FFF7B0F97CA3D3E918
:10503000002304460D46FFF7A9F97BA3D3E900231B
:10504000FEF7F2FF22462B46FFF7A0F978A3D3E93B
:105050000023FEF7E7FF22462B46FFF797F976A3DA
:10506000D3E90023FEF7E0FF22462B46FFF78EF937
:1050700073A3D3E90023FEF7D5FF22462B46FFF7A3
:1050800085F971A3D3E90023FEF7CEFF22462B4614
:10509000FFF77CF982468B460022714B2046294659
:1050A000FFF774F95246804689465B4620462946FA
:1050B000FFF76CF953EC182B04460D463046394681
:1050C000FFF764F902460B4620462946FEF7AAFF81
:1050D00002460B4640464946FEF7A4FF02460B46F1
:1050E00000206049FEF79EFF41EC100B03B0BDECC1
:1050F000028BBDE8F08F10EE102A10EE100A3B462E
:105100003946FFF743F946A3D3E9002304460D4689
:10511000FFF73CF944A3D3E90023FEF785FF2246BD
:105120002B46FFF733F942A3D3E90023FEF77AFFBA
:1051300022462B46FFF72AF93FA3D3E90023FEF7C7
:1051400073FF22462B46FFF721F93DA3D3E9002345
:10515000FEF768FF22462B46FFF718F93AA3D3E97A
:105160000023FEF761FF2B462246FFF70FF93E4B67
:10517000994582468B468FDD3C4B99453DDC0022AC
:10518000A9F500130020374990469946FEF74AFFDB
:10519000CDE900010022324B20462946FFF7F6F800
:1051A00042464B46FEF73EFF5246804689465B46E6
:1051B00020462946FFF7EAF853EC182B04460D4623
:1051C00030463946FFF7E2F802460B4620462946AC
:1051D000FEF728FF02460B4640464946FEF722FFEF
:1051E00002460B46DDE90001FEF71CFF41EC100B07
:1051F00003B0BDEC028BBDE8F08F9FED157B4FF047
:1052000000088DED007BDFF86890C3E79FED120B7F
:1052100003B0BDEC028BBDE8F08F00BFAFF30080A0
:10522000D43888BEE9FAA8BDC4B1B4BD9EEE213E13
:10523000AD529C804F7E923E9015CB19A001FA3E54
:105240007751C1166CC1563F4C5555555555A53F24
:10525000000000000000E73F000000000000F03FF9
:105260000000E03F0000F03F3233D33F0000E93F51
:105270000000D23FFFFFFFFF2DE9F04FADF51B7D92
:10528000814CA49E814D54F8264007942646D41E96
:1052900085FB0475E417C4EBA50424EAE4741D46F9
:1052A0000A93631CA3EB8303013D02EBC303069344
:1052B0002B460B940095651BF4180390089116D4A7
:1052C0002C44013422AEA59F08E057F82500FEF7D4
:1052D000F7FF0135A542E6E8020108D0002DF4DA17
:1052E000013500200021A542E6E80201F6D1079B26
:1052F000002BC0F2C283079B039ADDF800A003F1E4
:10530000010B0A9B0DF5E479DB00049309EBCB0B51
:1053100002EB0308009B002BC0F2928122AB03EB4F
:10532000CA05039C08350026002775E90223F4E826
:105330000201FFF72BF802460B4630463946FEF7CE
:1053400073FE444506460F46EFD1E9E80267D945AA
:105350000AF1010ADED107990498039C049101F136
:105360008043023B9B0020441A1D83460EA8024442
:1053700003440D920C93049A9AA901EBC203002AEC
:1053800053E9284529DD0DF5E47A0AEBC2080DF151
:10539000340900223E4B20462946FEF7F7FFFFF76F
:1053A000A5FAFEF78DFF00223A4B06460F46FEF7A0
:1053B000EDFF02460B4620462946FEF733FEFFF777
:1053C00095FA78E9022349F8040F39463046FEF78A
:1053D0002BFED04504460D46DBD1DDF8189045EC98
:1053E000104B484600F0BCFC55EC104B00224FF02F
:1053F0007F5310EE100A2946FEF7C8FF41EC100B50
:1054000000F01EFC002251EC100B234BFEF7BEFFF8
:1054100002460B4620462946FEF704FE0D4604468A
:10542000FFF764FA8046FEF74BFF0B46024629461B
:105430002046FEF7F7FD4B46002B06460F4640F38D
:10544000E580049A0EA9013AC9F1180351F82250D7
:1054500045FA03F101FA03F30EA8EB1A40F82230E3
:10546000C9F11705884443FA05F5002D41DD049B79
:10547000002B08F1010840F3C982002214460DA94F
:105480000498AE4612E000BFEC630000ABAAAA2A63
:105490000000703E0000704100002040C3F18075A4
:1054A0000BB10D600124013290420DDD51F8043F33
:1054B000002CF3D0C3F1FF13013203F57F43904278
:1054C0000B604FF00104F1DC7546069B002B0EDDEE
:1054D000012B00F0A380022B09D1049B5A1E0EABB6
:1054E0000EA953F82230C3F3150341F82230022DE0
:1054F00074D00022002330463946FFF7AFF9002868
:1055000000F04982049A079B501E834210DC02F18E
:105510008043013B0EAA0D9C02EB8303002253F84B
:105520000419A34242EA0102F9D1002A40F0A48002
:10553000079B0EAA013B52F82330002B40F06482F7
:105540000C9A012352F8041901330029FAD0049A65
:10555000D31802F1010A9A4509933CDC0B9B0A9A85
:1055600009990AEB0309049B984690448B1809F1AA
:105570008049A59A09F1FF3902EB890922AA02EBB9
:10558000C303049372AB02EBC80803EBCA0A59F8D1
:10559000040FFEF795FE009B002BE8E802014FF098
:1055A00000064FF0000711DB039C454675E9022316
:1055B000F4E80201FEF7EAFE02460B4630463946A1
:1055C000FEF732FD5C4506460F46EFD1049B984539
:1055D000EAE80267DBD1099B0493CCE632463B46FE
:1055E0000020B349FEF71EFD06460F46002C80D072
:1055F00006989FEDAB0B00F0B3FB3046394653ECF9
:10560000102BFEF70FFD06460F4672E711D1049BE3
:105610000EAA013B52F82350ED1526E7049B5A1EB3
:105620000EAB0EA953F82230C3F3160341F8223013
:105630005DE700229F4BFFF72FF958B9054658E761
:1056400000260027E9E80267D9450AF1010A7FF43C
:1056500061AE80E6049B002B08F10108C8BF02255B
:105660003FF70BAF32463B4600209149FEF7DAFC8C
:10567000022506460F463CE70EA9CDF8248051F8D6
:1056800020300699009018390246039506916BB9AF
:1056900000F18043013B0EA800EB830353F804099B
:1056A000013A18390028F9D00092069106989FED2A
:1056B0007C0B00F055FB009B002B55EC104BC0F20F
:1056C000C181DA000DF5E4780EA901EB830608EB41
:1056D000020B069204360BF1080756F8040DFEF78C
:1056E000EFFD22462B46FEF751FE002267E902013C
:1056F000714B20462946FEF749FE474504460D46B4
:10570000EBD14AACDDF81C9004944FF0000AB9F1DB
:10571000000FC0F22B81DFF8A4815D4662A3D3E9BC
:10572000002300260027002403E0A24510DBF8E850
:105730000223F5E80201FEF729FE02460B46304639
:105740003946FEF771FC0134A14506460F46ECDAF6
:10575000049B03EBCA03ABF1080BC3E9006770AB12
:105760009B450AF1010AD2D1A49B049C032B00F2B1
:105770008D80DFE813F0DD00A500A5000400009B8C
:10578000002B40F35C81009B03F1005B069B0BF157
:10579000FF3BE2184FEACB03D2E9008903F108028C
:1057A000103304EB020AE5183AED027B42464B4601
:1057B00051EC170B8DED047BFEF736FC06460F46C9
:1057C00002460B46DDE90401FEF72CFC4B4642463F
:1057D000FEF72AFC65E902014CAB9D42B046B94692
:1057E000CAE90067E0D1009B012B40F32881069BAA
:1057F000234493ED007B4FEACB0B0BF1100A8DEDA8
:10580000007BA2440BF1080B04EB0B05D0460DF511
:105810009C7BCDF810A075E9029ADDE900014A46AB
:105820005346FEF701FC06460F4602460B46484625
:105830005146FEF7F7FBDDE90023FEF7F5FB68E9CB
:105840000201C345CDE90067C5E90067E3D1DDF892
:1058500010A0002000217AE90223FEF7E5FBD345E2
:10586000F9D1039B002B00F0D3806268E368089FA6
:105870002568A4683D6002F1004203F1004301F194
:1058800000417A60FB60BC6038617961099B03F07C
:1058900007000DF51B7DBDE8F08F00BFAFF3008062
:1058A000000000000000F03F00000040FB21F93F35
:1058B0000000F03F0000E03F0000703E0864000080
:1058C000069D083525440020002175E90223FEF7D6
:1058D000ABFBA542F9D1039B002B4AD0089E0246A0
:1058E00001F1004386E80C000B460246D4E90001B2
:1058F000FEF798FB009B002B0DDD4CAD0124F5E875
:105900000223FEF791FB009B0134A342F7DA039BCD
:10591000002B00F0A78001F1004308990246C1E97D
:105920000223099B03F007000DF51B7DBDE8F08FF6
:10593000069B009D0833002000211C4474E90223CB
:10594000013DFEF771FB6B1CF8D1039B0246002B57
:1059500000F08E8001F100430899C1E90023099B02
:1059600003F007000DF51B7DBDE8F08F0026002732
:10597000EEE6089B0246C3E900010B46D4E90001AC
:10598000FEF750FB009C002C02460B46B5DC089944
:10599000C1E90223C5E7069B0395584247EC106B0B
:1059A000CDF8248000F0DCF955EC104B0022384B88
:1059B00010EE100A2946FEF76FFF002834D00022AF
:1059C000344B20462946FEF7E1FCFEF78FFF0646E2
:1059D000FEF776FC00222E4BFEF7D8FC02460B4663
:1059E00020462946FEF71EFBFEF780FF0499069B22
:1059F0000A461833013206930B460EA9009241F86D
:105A0000230041F8226051E60123A0E500245CE573
:105A1000D4E90067D4E90223089DC5E90401C5E97A
:105A20000067C5E9022331E729462046FEF75EFFFD
:105A3000049A00920EA941F8220037E64AAC0020F1
:105A400000210EE7A49B032B3FF620AF01A252F8E2
:105A500023F000BF8B5A0000835A0000835A0000D5
:105A60003D5A00000B4608990246C1E9022358E757
:105A70000B460899C1E9002371E70A9BDB000493F8
:105A800069E4002000214AAC25E7002000215CE702
:105A9000000070410000703E2DE9F04F55EC104BB6
:105AA0002DED028BB0EE418AF0EE618A25F00043C5
:105AB000B3F1795F83B0824607DA10EE100A294607
:105AC000FEF714FF002800F08E8022462B46204669
:105AD0002946FEF75BFC06460F4602460B4620466B
