:100000000000022099010000B925000071250000C0
:100010007125000071250000712500007125000088
:10002000712500007125000071250000B925000030
:10003000B925000071250000ED220000F123000029
:10004000B9250000B9250000B9250000B925000038
:10005000B9250000B9250000B9250000B925000028
:10006000B9250000B9250000B9250000B925000018
:10007000B9250000B9250000B9250000B925000008
:10008000B9250000B9250000B9250000B9250000F8
:10009000B9250000B9250000B9250000B9250000E8
:1000A000B9250000B9250000B9250000B9250000D8
:1000B000B9250000B9250000B92500005926000027
:1000C000B925000085270000B9250000B1280000EF
:1000D000B9250000A9290000B9250000B9250000B4
:1000E000B9250000B9250000B9250000B925000098
:1000F000B9250000B9250000B9250000B925000088
:10010000B9250000B9250000B9250000B925000077
:10011000B925000039170000B9250000B9250000F5
:10012000B9250000B9250000B9250000B925000057
:10013000B9250000B9250000B9250000B925000047
:10014000B9250000B925000059150000B9250000A7
:10015000A12A0000B9250000B9250000B92500003A
:10016000B9250000B9250000B9250000B925000017
:10017000B9250000B9250000B9250000B925000007
:10018000B9250000B9250000B9250000B9250000F7
:10019000B9250000B9250000584B4CF2205210B58B
:1001A0001A804DF628121A8000BF00BF02F008FA2C
:1001B000534B4FF030621A60524A9A60524ADA60EA
:1001C000524B4FF470021A60514A136813F4807353
:1001D00004D150490B604FF4A85313604E4B1A786A
:1001E000110703D51A7842F008021A704B4B4C499C
:1001F0002A221A704B4A4C4B8B4204D252F8040FFD
:1002000043F8040BF8E7494B494900228B4202D2DC
:1002100043F8042BFAE74749474A002352F82300E2
:1002200041F823000133662BF8D1444B444A802126
:1002300003F8011B9342FBD1424B3E4A1A60424BEA
:100240008A221A70A3F5805324225A70A0221A70B1
:100250009A799207FCD59A79D406FCD43B4A9379D3
:1002600003F00C03082B394BF9D103221A714622F3
:100270005A719A799006FCD5344A9179334B4906E4
:10028000FBD5334A4FF08271116009215160202261
:100290001A709A7902F00C020C2AFAD12D4B2E4AD0
:1002A0001A602E4B2E4A1A6000225A60072243F829
:1002B000042C2C4AC3F80C2D62B601F001F8154B42
:1002C0001B68DA0705D5284800F002FE274B284AAC
:1002D0001A60284B1B785B0609D5244C244B2268F6
:1002E0009A4204D1204800F0F3FD0023236005F07A
:1002F00021FA02F06BF900F001FDFEE70E20054047
:1003000030800440823F04000100002B88ED00E0B3
:1003100010D0034014D0034002D0074000E0074053
:100320007C12FF1F3C650000F806FF1F7C12FF1FB8
:100330009817FF1F0002FF1F0000000000E400E00C
:1003400056E400E008ED00E00050064000400640A2
:100350004480044004800440C010050014E000E024
:10036000BFD4010000002020CA2A125A1CE003401A
:10037000A5C3945A00F00740FFFFFFFFFFFFFFFFF8
:10038000FFFFFFFFFFFFFFFFFFFFFFFFFFFFFFFF7D
:10039000FFFFFFFFFFFFFFFFFFFFFFFFFFFFFFFF6D
:1003A000FFFFFFFFFFFFFFFFFFFFFFFFFFFFFFFF5D
:1003B000FFFFFFFFFFFFFFFFFFFFFFFFFFFFFFFF4D
:1003C000FFFFFFFFFFFFFFFFFFFFFFFFFFFFFFFF3D
:1003D000FFFFFFFFFFFFFFFFFFFFFFFFFFFFFFFF2D
:1003E000FFFFFFFFFFFFFFFFFFFFFFFFFFFFFFFF1D
:1003F000FFFFFFFFFFFFFFFFFFFFFFFFFFFFFFFF0D
:10040000FFFFFFFFFFFFFFFFFFFFFFFFDEF9FFFF23
:1004100010B5054C237833B9044B13B10448AFF33E
:1004200000800123237010BD7C12FF1F000000001C
:1004300040650000084B10B51BB108490848AFF3F0
:1004400000800848036803B910BD074B002BFBD0A0
:10045000BDE81040184700BF000000008012FF1FD9
:10046000406500007C12FF1F0000000038B5574CAB
:1004700094ED050AD4ED047A20EE000A2DED028BEE
:10048000A7EEA70A0546B1EEC08AB4EE488AF1EE9F
:1004900010FA73D195ED040AD5ED037A20EE000A27
:1004A000A7EEA70AF1EEC08AF4EE688AF1EE10FA20
:1004B0005FD194ED0A0AD4ED097A20EE000AA7EE86
:1004C000A70AF1EEC06AF4EE666AF1EE10FA4BD1BB
:1004D00078EEC87A95ED067A9FED3D6A37EE877A19
:1004E00038EE668AE7EE067A172085ED067AE8EEA2
:1004F000467AFDEEE77A17EE904A002CCCBF012138
:10050000002100F07BFE84EAE471A1EBE47121B1EB
:1005100040F2FF339942A8BF1946152000F0EAFCCB
:100520009FED2C7AD5ED057A67EE877AFFEE006AAB
:1005300087EEA87AB4EEE67AF1EE10FA11D9F7EE6A
:10054000007AB4EEE77AF1EE10FAC8BF40F21A2250
:1005500019DDBDEC028B02211F48BDE8384000F0D8
:1005600029BB40F2E512F4E702F0C8FCF0EE406A65
:10057000AEE702F0C3FCF0EE408A9AE702F0BEFC60
:10058000B0EE408A86E717EE100A04F045FD41EC14
:10059000100B02F051FC51EC100B05F069F89FEDC7
:1005A0000F7ADFED0F7A06EE900AE6EE877AFDEE1F
:1005B000E77A17EE902A002AD8BF0022C9DD40F260
:1005C000FF339A42A8BF1A46C3E700BFB812FF1F05
:1005D00000000000000048430413FF1F1CED84418D
:1005E00000000044FFF742BF10B5084C084B2046FE
:1005F00040F8043B00F058FA0023A3612046E36171
:10060000044A0549BDE8104005F082B89812FF1F62
:10061000A0600000D407FF1F1D06000010B5044BAA
:10062000044640F8043B00F035FA204610BD00BFF8
:10063000A060000010B5064B044640F8043B00F0F3
:1006400029FA2046202100F061FB204610BD00BFA2
:10065000A060000008B5102000F0D6FD044A536BDE
:1006600010B9013B536308BD0133536308BD00BF9C
:10067000B812FF1F08B5112000F0C6FD044A536BE5
:1006800010B90133536308BD013B536308BD00BF7C
:10069000B812FF1F10B5094B044640F8083B00F0A4
:1006A00003FA04F11C0000F0FFF90023002222638A
:1006B0006360E363A3636363204610BDB060000022
:1006C0002DE9F0472DED028B824684B088680E46F6
:1006D00004F0A2FCDAF80430DAED0C7A03EB8303C1
:1006E0000AEB830393ED057A77EE277A044617EE3B
:1006F000900A0D4604F090FC41EC100B41EC180BF5
:1007000002F0A2FAF0688DED000B04F085FCB0EE6B
:10071000480AF0EE680A06460F4602F0F5FADDE9EF
:1007200000232046294659EC108B04F0C9FC4246B0
:10073000CDE902014B463046394604F0C1FC024681
:100740000B46DDE9020104F007FB04F091FF32469D
:100750003B46CAF81000DDE9000104F0B1FC424656
:1007600006460F464B462046294604F0A9FC0246A1
:100770000B463046394604F0F1FA04F079FFCAF826
:10078000140004B0BDEC028BBDE8F0872DE9F04FFA
:1007900044682DED028B074604EB84048DB007EB13
:1007A000840488680D4604F037FC97ED0C7AD4ED8C
:1007B000057A77EE277A824617EE900A8B4604F088
:1007C0002BFC41EC100B41EC180B02F03DFAE868F1
:1007D0008DED000B04F020FCB0EE480AF0EE680A44
:1007E0008046894602F090FADDE9002350465946DA
:1007F0008DED020B04F064FCDDE90223CDE9040178
:100800004046494604F05CFC02460B46DDE9040123
:1008100004F0A2FA04F02CFF424608EE100A4B4600
:10082000DDE9000104F04CFCDDE902238046894645
:100830005046594604F044FC02460B4640464946A1
:1008400004F08CFA04F014FF85ED028AE86007EEEC
:10085000900A95ED047A94ED030AD4ED040A94ED20
:10086000051A38EE000A77EEA00A31EE071A07A83B
:1008700000F002F9089809990A9A0B9BA060E160C0
:1008800007A82261636100F0EDF80DB0BDEC028BAA
:10089000BDE8F08F08B503220549112000F09CFA4D
:1008A000032204491020BDE8084000F095BA00BFBB
:1008B000550600007506000010B5054C2046FFF7F0
:1008C000E9FE2046034A0449BDE8104004F020BF79
:1008D000B812FF1FD407FF1FDD08000010B5064B3C
:1008E000044640F81C3B00F0D5F804F1080000F085
:1008F000D1F8204610BD00BFB060000010B504461E
:10090000FFF7ECFF2046402100F000FA204610BD22
:1009100030B52DED028B04468BB00221324800F039
:1009200081F9D4ED0D7ADFED316A9FED316A07EE82
:10093000100AF8EEE77AB8EEC77A67EEA67AF2EE1A
:10094000006AB4EEE67A0023F1EE10FA636387EEF4
:10095000868A46DD17EE100A04F05EFB41EC100BB0
:1009600002F032FA002053EC102B224904F0D2FCA2
:1009700004F07EFE07EE900AC8EE278A6846B0EEC5
:10098000681AB0EE480ADFED1C0A00F075F801980D
:100990001A4B039A029D059305A9049B06902046D5
:1009A000089209930795FFF7F1FE05A800F05AF8A1
:1009B000DFED137ADFED100A88EEA71A05A888EE9E
:1009C000270A00F07BF805A92046FFF779FE05A865
:1009D00000F060F8684600F045F80BB0BDEC028B03
:1009E00030BDDFED058AC9E70413FF1F96636F432F
:1009F0000000C8440000694000000000C060000022
:100A00000AD7A33C10B441690469826944628162D7
:100A1000C2625DF8044BFFF77BBF00BF08B5FFF76C
:100A200039FF0248BDE8084000F08AB8F812FF1FFD
:100A300008B5064800F05EF800B908BD0448FFF7A5
:100A4000E1FF0448BDE80840FFF7CCBDF812FF1FE6
:100A5000B812FF1F9812FF1F1421014800F03AB886
:100A6000F812FF1F704700BF10B51421044600F0B4
:100A70004DF9204610BD00BF054980ED020A002255
:100A8000C0ED030A80ED041A80E80600704700BF3D
:100A9000C0600000704700BF10B51421044600F08C
:100AA00035F9204610BD00BF0022034901600261F4
:100AB000C2608260704700BFD0600000044A80EDD1
:100AC000020AC0ED030A80ED041A0260704700BFFD
:100AD000D060000010B40024054A047083B012688E
:100AE0000192019A8160426003B05DF8044B704747
:100AF0003013FF1F10B4114944680B68826883B03B
:100B00000093009B1B1B934212D342B1037833B96D
:100B100022444260012003B05DF8044B70470B682B
:100B20000193019B4360012003B05DF8044B7047C3
:100B3000002003B05DF8044B704700BF3013FF1F67
:100B4000034B82B01B680193019B436002B0704766
:100B50003013FF1F38B500230446837049F6404523
:100B600005E0092B0AD8A2702B46013BFDD100F00D
:100B700097FCA378042803F10102F2DD00F090FC59
:100B8000002813DD00F09CFCC5B2E57000F0CCFC41
:100B9000FF2DF3D1FF28F1D100F092FC00F090FC82
:100BA00000F08EFC00F08CFCA06238BD4FF0FF30EE
:100BB00038BD00BFF8B501F12603161213443344C3
:100BC000DB4303700F46044601214078154600F0D0
:100BD00015FBFF2000F05AFCFF2000F057FC3846C0
:100BE00000F054FC052000F051FC032000F04EFC06
:100BF0001E2000F04BFCE8B200F048FCF0B200F020
:100C000045FC207800F042FC4FF47A53013BFDD1C3
:100C10000021607800F0F2FA2046BDE8F840FFF7C6
:100C200099BF00BF38B501F12C03DB4303700C46BC
:100C300005460121407800F0E1FAFF2000F026FC93
:100C4000FF2000F023FC204600F020FC042000F0F0
:100C50001DFC022000F01AFC242000F017FC0220EA
:100C600000F014FC287800F011FC4FF47A53013B9B
:100C7000FDD10021687800F0C1FA4FF0FF32002367
:100C8000EA61AB7049F6404405E0092B0AD8AA7026
:100C90002346013BFDD100F003FCAB78062803F1AD
:100CA0000102F2DD00F0FCFB002823DD00F008FC6F
:100CB000C4B2EC7000F038FCFF2CF3D1FF28F1D166
:100CC00000F0FEFB00F0FCFB00F0FAFB00F0F8FB8C
:100CD000A86288B900F0F4FB687100F0F1FB6A7952
:100CE0002871030203F47F431344EB6100F0D8FB47
:100CF0000028DBDCE86938BD404238BD08B5FFF7A5
:100D00008DFEFFF795FE01F01FFAFAE704F042BDF1
:100D1000704700BF10B4114B53F8302092F8804256
:100D200034B1012379B182F880305DF8044B70470B
:100D300003EBC0035B681A6851B922F002021A6023
:100D40005DF8044B704782F800315DF8044B704742
:100D500042F003021A605DF8044B7047D86000004F
:100D60001C4A02EBC00301295B6811D004291BD087
:100D700052F83000002280F8802229B1022920D0C8
:100D8000032922D01A6070474FF480721A607047AE
:100D900052F830004FF4A27280F880121A601A687C
:100DA00022F020021A60704752F830104FF4A272FD
:100DB000012081F880021A601A6842F020021A604D
:100DC000704740F203121A6070474FF481721A6044
:100DD000704700BFD86000003F2817D8F8B5042A34
:100DE00013D8DFE802F0494C4F1446002C4872B685
:100DF000236823F4702343F08072C4F38401164304
:100E0000236040F82150266062B6F8BD70474FF469
:100E10001026244B03EBC0030D465C68216811F4D7
:100E2000E06134D0204B214A2149C3F82C2104F140
:100E300040422048C3F83411A2F592211E4FC3F856
:100E400030017C291D48C3F83871C3F83C01CDD965
:100E5000A2F594237C2B18D9A2F596237C2B19D9C3
:100E6000A2F598237C2B17D9A2F59A227C2A15D9B2
:100E7000F8BD4FF43026CCE74FF40026C9E74FF415
:100E80004026C6E74FF42026C3E70D48AFE7FFF73B
:100E900067FFC7E70B48AAE70B48A8E70B48A6E798
:100EA000D807FF1FD86000000002FF1FA907FF1F1F
:100EB0005107FF1F7D07FF1F2507FF1FF906FF1FB3
:100EC0005008FF1FB008FF1FE008FF1F2009FF1F89
:100ED00030B4054B054D064C002210211A602A60E3
:100EE0002060196030BC704714D0034004D0034028
:100EF00000D0034038B5A0F14203012B04461FD9AE
:100F0000002975DD904B1B78012505FA03F28A4212
:100F100002D83F2827D938BDC21E012A2BD9A0F1FB
:100F20001D02012A73D90E2856D9A4F12302032ADF
:100F300057D9864A126802FB011222FA03F320E015
:100F4000814B1B780B2B0AD90C2B1CBF0C3B194176
:100F5000422C084657D0BDE8384001F0EBBAC3F147
:100F60000C039940F4E72946FFF7D4FE2946BDE873
:100F70003840FFF7F5BE764A126802FB011222FAEA
:100F800003F3A21E242A00F2D580DFE812F0CC0081
:100F9000C500BE00B700B000A900A2009B009400ED
:100FA000D300D300D3008D00D300D300D300D300EF
:100FB000D30086007F0078007100D300D300D300F7
:100FC000D300D3006A006300D300D300D300D30062
:100FD0005C0055004E00470044F28412C240D20724
:100FE000A3D55C4A126802FB011222FA03F3C8E798
:100FF0003F2890D80021FFF78DFE20460121BDE853
:101000003840FFF7ADBEBDE8384001F075BA524A2E
:10101000126802FB011222FA03F3B2E74F49504A69
:101020000B604FF45173136038BD4E494E4A0B604C
:101030004FF45173136038BD4C494D4A0B604FF467
:101040005173136038BD4B494B4A0B604FF45173D9
:10105000136038BD49494A4A0B604FF4517313601D
:1010600038BD4849484A0B604FF45173136038BD8E
:101070004649474A0B6040F24443136038BD454936
:10108000454A0B6040F24443136038BD4349444A2B
:101090000B6040F24443136038BD4249424A0B6042
:1010A00040F24443136038BD4049414A0B6040F26E
:1010B0004443136038BD3F493F4A0B6040F244430C
:1010C000136038BD3D493E4A0B6040F24443136013
:1010D00038BD3C493C4A0B6040F24443136038BD84
:1010E0003A493B4A0B6040F24443136038BD3949EA
:1010F000394A0B6040F24443136038BD3749384ADF
:101100000B6040F24443136038BD3649364A0B60E9
:101110004FF45173136038BD3449354A0B604FF4B6
:101120005173136038BD3349334A0B6040F2444376
:10113000136038BD3F2C3FF6EEAE7F29D4BF0021AF
:101140000121204657E700BF8C09FF1F088003409C
:101150000890034008900B4008800B4048900B40DB
:101160002CB0044040900B4028B0044038900B4015
:1011700024B0044030900B4020B0044018800B4055
:101180004CA0044010800B4048A00440188003404D
:1011900008B004401080034004B004404080034085
:1011A00018C004403880034014C0044018900B401D
:1011B00004C004402880034010B004402080034055
:1011C0000CB0044028900B400CC0044020900B4011
:1011D00008C004403080034010C0044048800340F1
:1011E0001CC0044018900340349004401090034009
:1011F0003090044010900B4000C004403F2801D8BC
:10120000FFF788BD704700BF3F2806D8044B53F84E
:10121000303093F80002C0B270470020704700BF22
:10122000D86000002DE9F843054672B6204F214BE7
:10123000214A1B683C68126862B6520102D5322B03
:1012400088BF013495B3C3F5EA331C4EDFF86490D0
:10125000DFF86480BF334FF47A72A6FB031302FBFE
:1012600004F404EB931472B6D9F800103A68D8F875
:1012700000E062B6C1F5EA33BF33A6FB03031EF0FC
:10128000806FC4EB93134FF47A7002D0322988BF79
:10129000013200FB0233B3F57A7F04D3013D05D060
:1012A00004F57A74DFE700F04FFFDCE7BDE8F88370
:1012B0003013FF1F18E000E004ED00E08988888803
:1012C000F8B53E4B3E49DFF818C13E4E3E4ADFF8C6
:1012D00014E13E4D3E4C3F4F4FF0006018604FF020
:1012E000805018604FF0005018604FF08040186038
:1012F0004FF0004018600020086028234EF6FF7170
:10130000CCF80010CEF8003033600EF5012E1360DB
:101310002B60236005F500253B6004F50024B362D3
:1013200007F50027936206F5012602F501220EF16A
:10133000100E05F6E87504F6E87407F57F671032BD
:1013400020362B602360CEF800303B6013603360A2
:10135000214EBB61936109223260A7F5002706F593
:101360008056203F083638603160BB60F36047F834
:10137000042C06F5FD2607F5FE2706F2FC76043759
:1013800030603960B360FB6046F8042C0836C7F85B
:10139000FC0F06F6FC76114831602B60236002607A
:1013A00001F03AF83220FFF73DFF00F0F1FD4FF475
:1013B000AF70BDE8F840FFF735BF00BF04E100E0C3
:1013C00004800340148003401C80034024800340B9
:1013D0002C800340348003400080034000900B4089
:1013E000088003400C8003402DE9F84F214B1B6817
:1013F00007460BB101221A70DFF888901E4D99F84C
:101400000040DFF884801D4E0134272C8ABF4FF046
:10141000000A5FFA84FA5446AB462B78A34216D1F1
:1014200001F0ECF840281FDC33791B06F5D59BF85A
:1014300000300133272B86BF00221346DAB218F89A
:101440000330DBB2F3712A702B78A342E8D00C4949
:101450000A4BFFB208F804700120AC22087089F82A
:1014600000A0DA70BDE8F88FFF28D6DD00F06CFE32
:10147000D3E700BFA813FF1FA513FF1F00A00E4056
:10148000A413FF1FAC13FF1F3C13FF1F034B1B686C
:101490005B0501D5FFF7A8BF704700BF2880044057
:1014A000054A064B10781B78C0B2DBB2984238BFB1
:1014B0004030C01A704700BF3813FF1F3913FF1F99
:1014C00030B4154B154C1A782378D2B2DBB29A425D
:1014D0001ED001333F2B0ED91149124B08781968E1
:1014E0000023C0B2237021B1D31A1A2B01DC0023D0
:1014F0000B7030BC70470A480A49C05C0968DDB20D
:10150000C0B225700029F4D09A4238BF4032EBE7D0
:101510004FF0FF30EDE700BF3813FF1F3913FF1FF7
:101520006413FF1F3413FF1F084A094B12781B78FE
:10153000DBB29A4207D00133402B28BF0023054A73
:10154000D05CC0B270474FF0FF3070473813FF1FB8
:101550003913FF1F6413FF1F30B42B4B1A79940605
:101560001FD52A48DA790378294901333F2B0978B6
:10157000C8BF00238B42D2B203D0264CD9B2E2546A
:101580000170254A116861B1244A1278D2B293429F
:1015900036BFC2F140029B1A9B18272BC4BF012300
:1015A0000B70194AD378DBB2180611D45A060DD540
:1015B000154B1B795B0609D5194B1A491B6800228C
:1015C0000A7003B11A70104B2C22DA7030BC7047CD
:1015D00011790906EAD5144910480C780178C9B286
:1015E0008C420DD04A1C272A84BF00210A460F4D89
:1015F000054C98BFD1B2AA5CD2B2E2710170D5E7B6
:101600006C21D170D2E700BF00A00E403813FF1F3D
:101610003913FF1F6413FF1F3413FF1FA513FF1F90
:10162000A813FF1FA413FF1FAC13FF1F3C13FF1FC2
:10163000F0B472B61A491B4E012311F8014B194F31
:101640009A00240742F0010505D556F8324064B1EE
:1016500056F83520BAB10133052BEED162B6124BE4
:1016600000221A70F0BC00F017BD0F4C0F4D21780E
:1016700047F8325007EB431308304A1E5860227077
:1016800062B6F0BC70470849094B0A7847F8353014
:1016900007EBC5030830013A58600A7062B6F0E7FC
:1016A000D86200000000FF1F8514FF1F8800400063
:1016B000C8004000431E032B1DD81B4A400140F0C8
:1016C000100030B4104472B6184CE25C032A1BD8E8
:1016D000DFE802F00212151703220D88E25410F021
:1016E000080F14BFC823882343EA05430831036069
:1016F000416062B630BC704708300222EDE7052237
:10170000EBE708300422E8E7094A52F8230038B131
:10171000084A52F82300416042F8231062B6E9E714
:1017200042F82310034AF7E70000FF1F9414FF1F3D
:101730005C14FF1F6C14FF1F2DE9F04FDFF804A3AA
:10174000DFF804B387B044E0A94F4FEA930807EBF2
:10175000C809013ED9F8042003F00803F6B2A2F14B
:10176000080003F0FF04002B40F0FE8057F83830EB
:101770001B0C99B222F8081C002B00F0EC809D4B4A
:1017800022F8064C42F8044C53F82620002A00F0B8
:101790002B82994D55F826305860984C45F8260014
:1017A00034F81630194424F8161000F055FC0028BF
:1017B00000F01382924A934B19F0080F00F10800D1
:1017C00018BF1346C9F8040047F8383008238AF8D0
:1017D00000309AF80040E4B260071AD58A4B1B78B3
:1017E000A3B18A490A7802F0FF0322B1013BDBB2C0
:1017F0000B7003B900BE86490A7802F0FF032AB1D4
:10180000013BDBB20B70002B00F0BD8104238AF892
:10181000003004F0080303F0FF02002B00F0C88042
:101820009BF80030DBB21E098ED19C08704F57F830
:10183000342007EBC401C2F38302013A49680C2A41
:1018400000F28580DFE802F07979838383838383E4
:1018500042838383070008686E4B6F4D0193684B8A
:101860004A686E4E47F8343081B240F28164694B69
:101870006A60286000220120A1421A603A61BA61C0
:10188000307000F2E380B1F5D06F80F02782B1F5BF
:10189000817F00F0E08100F2C381802900F0368270
:1018A000822940F0DE81A9885D4B01F07F01042987
:1018B00000F2D8815B4C89000B44227062701A7868
:1018C000930740F122832070022023E2514B0193C1
:1018D0001A683AB3544B514E5449188834780D78ED
:1018E0004028864645F0020828BF4FF0400E002CE5
:1018F00084F001043470CEEB00000CBF8824C824AF
:1019000007EBC80680B285F0010544EA0E44726018
:10191000188047F8384072440D70002800F0B780F6
:10192000019B1A603C4B1A88B2F5A06F0FD10021C1
:101930009A7859703E4B1A7009E0374A108842F283
:101940002102904200F0A8802D4A47F83420394AFD
:10195000012313703AE72A4A2A4B19F0080F18BFDF
:10196000134647F8383031E700F096FB324A3349E6
:1019700052F82630002B00F03B8158688C5D42F80D
:10198000260003F10802C9F80420032C05D8DFE87B
:1019900004F02C02292602228A551A8819F0080F11
:1019A0000CBF8823C82343EA024347F838300DE7C9
:1019B000E00700F1EB80210600F12881A20706D59F
:1019C0001F4A204913780220DBB213700870E30627
:1019D00002D51C4B10221A7007B0BDE8F08F04220C
:1019E0008A55DAE705228A55D7E703228A55D4E7D4
:1019F0000000FF1F0814FF1FB413FF1F8017FF1FF5
:101A0000C8004000880040009014FF1F1914FF1FF9
:101A10009814FF1FB013FF1F7C14FF1F1814FF1F23
:101A2000C02007408814FF1FC413FF1F8414FF1F2A
:101A300098200740942007405C14FF1F9414FF1F58
:101A400088200740802007409020074042F2210470
:101A5000A14200F0948043D8B1F5086F00F0A8814E
:101A6000B1F5106F40F0FD80B84AB94CA9781170FB
:101A700004F1800503E00834AC4200F09E81236A43
:101A80001906F8D5606A083800F006FBF3E7BEF1E6
:101A9000400F18BF002243E7AE4ACD1D11F8013BAD
:101AA00002F8013FA942F9D1AB4A1268862A00F038
:101AB0001181AA49AA4E0A78307882F001050028DF
:101AC00042F002020D700CBF8821C82147F8321085
:101AD00007EBC20280F0010000213070516033E753
:101AE00042F22124A14240F0FE81DFF8BCC29D4BAE
:101AF0009D49AC78DCF800501D6081460C700020D8
:101B0000029080468446044694490D7845F0020EC2
:101B100007EBCE03B9F1000F5C600CBF8824C8242A
:101B200044EA080385F0010447F83E3032700C7037
:101B3000DFF81CE28A4BDFF82482002840F098800E
:101B4000BCF1400F1BD144F0020407EBC403029F19
:101B5000DFF8FCE15F60002A40F09F80020442F061
:101B6000880207444EF8342086F800900D703B46FA
:101B7000402804D100207D4A019910800B607C4AE6
:101B800001231370E3E600F0BBFA3FE6704B7848A0
:101B900072491A614FF0020E80F800E0754F0A702A
:101BA000754919609960754E754D764C9A610D2195
:101BB0003970FF213170DFF8F4E129702270724D25
:101BC000724A8EF800109F27012406F8047C5D609D
:101BD0000470DA6007B0BDE8F08F6D4A47F838004E
:101BE000137801331370F1E543F82600694DD4E50D
:101BF0008B5D032B67D801A252F823F0CD170000AC
:101C0000CD170000511C00004B1C000059495C4BD3
:101C100080220D2008701A70A2077FF5D8AECFE69B
:101C200040F20232914240F05681A98801F07F01D2
:101C3000042916D86A88A2B94E4C89000C44814602
:101C4000217841F00201217059E701238B55BDE550
:101C500000238B55BAE5A98801F07F01042940F2E1
:101C60004781444B0F221A70414A012313706EE6DC
:101C700040287FF668AF44F002040EEBC401029ED8
:101C80004E60AAB1444A83F800903346403888F841
:101C9000005040334EF834206DE70204029B86F872
:101CA000009042F0C8020D7003444EF834205FE704
:101CB00083F80090029B304A88F800504038403347
:101CC0004EF8342057E719F0080F0CBF0223032306
:101CD0008B557BE5314A0F211170EAE6304A546892
:101CE000002CBED06888B5F804E003E00C325468DC
:101CF000002CB6D013888342F8D153887345F5D1B0
:101D0000000A03280CBF2078108903E0254C02202C
:101D100022706270EA88824280F00C810F490D784F
:101D2000402A45F0020E944607EBCE0028BF4FF044
:101D3000400C04EB0C0344600293CCEB02004FEA2E
:101D40000C484FF001090022C824E9E69014FF1F57
:101D50000000FF1F8717FF1F8817FF1F8414FF1F36
:101D60001814FF1F9017FF1FA414FF1FC413FF1F99
:101D700094200740C020074088004000882007408A
:101D80008020074098200740C813FF1F1C14FF1F26
:101D90008514FF1FB413FF1FC80040001914FF1F54
:101DA000DC6200008814FF1F3013FF1F8C200740E7
:101DB000684A694C12782270ACE76849684B694AF6
:101DC00002916949694C6A4D039405964FF00009E8
:101DD00088461C4616460495206828B1456800F0E0
:101DE0005BF92846002DF9D100232360049B30685D
:101DF0001A46002342F8293028B1456800F04CF912
:101E00002846002DF9D100223260029A98F800305D
:101E10001146002241F8042B039A0291023B4FF035
:101E2000000122F81910032B07D8DFE803F0340271
:101E300034024FF0010388F8003009F10109B9F1CB
:101E4000040F04F1040406F1040608F10108C3D1EB
:101E5000484B059EDFF83091DFF830810021197082
:101E6000012518F8013B09F8043B1A0718D4AC0007
:101E700044F0020244F00304002347F8323047F8EC
:101E800034303D4B994505F10105EAD196F80090B3
:101E900089F0010233E64FF0000388F80030CCE708
:101EA00000F0DAF8AC0007EB451300F10802002857
:101EB00037D05A60314B47F8343000F0CDF844F059
:101EC000010307EBC30200F1080100B351602C4A83
:101ED00047F83320CCE7B1F5A06F7FF4C2AE002203
:101EE0004FF001090BE642F221329142F7D0B8E6F9
:101EF0006A88002A7FF4B5AE224C89000C448146E2
:101F0000217821F002012170F9E5022002E7194B46
:101F100044F001021B7847F83200164A013313706F
:101F2000A6E7144B134A1B78AC00013347F8340082
:101F30001370C2E74028844628BF4FF0400C04EBE2
:101F40000C03CCEB00004FEA0C48029300224FF048
:101F50000109D9E59014FF1F8814FF1F6C14FF1F9F
:101F60000814FF1F5C14FF1F9414FF1F8017FF1F2E
:101F7000B413FF1F8514FF1FD420074088004000C2
:101F8000C8004000C0200740C4200740D8620000BD
:101F90002DE9F843244C00F0EFFD002204F1880005
:101FA00023461A605A60083383424FF00001F8D18B
:101FB0001E481F4A0368DFF890E01E4F1E4D1F4E5B
:101FC000DFF88880DFF888C0DFF8889043F480234A
:101FD000036013681A4843F040731360C4F3072387
:101FE0008EF80030C4F307433B70240EFF2302F544
:101FF000C9222C7002F5847288F80030114D8CF8DB
:1020000000303370012389F8003070268EF8641098
:102010004FF40014102107F82C3C2E70046011704E
:102020000EF1640EBDE8F8830000FF1F3480044009
:1020300000D80040B0200740B420074010200740DF
:1020400004E100E035E400E09C20074080200740E8
:10205000882007409420074072B60D480268B2FA03
:1020600082F30B2B10DC4FF00041D94022EA010231
:10207000026062B6074803EBC303DB00C21800210D
:10208000C15010465160704762B60020704700BFD3
:102090009009FF1F9803FF1F0D4B0E4AC31AA2FBA6
:1020A00003231B090B2B0CD80B4A127852B972B6BA
:1020B0000A484FF00041026821FA03F31A43026014
:1020C00062B67047064A1278002AF0D0FFF7B0BA1D
:1020D0009803FF1F398EE3388514FF1F9009FF1FF7
:1020E0009014FF1F044B054A1B6890881BB11A8887
:1020F0005B88D31A18447047A014FF1F8017FF1F76
:1021000038B50E4B1B7873B90D4C216861B103F0E3
:10211000FF054B880B800420FFF7CCFA256038BD03
:10212000084B01221A7038BDFFF796FF0028F7D040
:102130000146BDE838400420FFF7BCBA9914FF1FE0
:102140009C14FF1F9814FF1F38B52C4C237803B143
:1021500038BD01232370FFF7C5FF002842D100F0EE
:102160006BFA00283BD100F0FDFA002834D100F0D2
:102170008FFB70BB00F008FC40BBFFF791F910BB70
:1021800000F07EFCE0B900232370EFF30583002B01
:10219000DED1EFF3108172B6194B186828B3194CD1
:1021A000227812BB45691D60012323700DB3AA611B
:1021B00001B962B600254577836898472570C7E75F
:1021C00000F028F9DFE700F023F9D9E700F01EF965
:1021D000D3E700F019F9CDE700F014F9C7E700F0F4
:1021E0000FF9C0E700F006FDB9E70029B0D162B6EB
:1021F00038BD054B1D600029DCD1DAE7A514FF1FAF
:10220000B814FF1FBC14FF1FB414FF1F10B4EFF36A
:10221000108272B6437F33B9017F012908D00329A8
:1022200010D00123437702B962B65DF8044B7047C2
:10223000114C2168A1B1114943610B6883610860A9
:102240005861EEE70E4C216881B10E4943610B687D
:102250008361086058610C4B4FF080511960E0E7D2
:10226000064B4161816120601860DAE7054B4161EE
:10227000816120601860EEE7B814FF1FB414FF1FDF
:10228000A814FF1FAC14FF1F04ED00E010B4047F7E
:102290004160022CC26003D05DF8044BFFF7B6BF6B
:1022A00083685DF8044B184770B5EFF3108272B67F
:1022B0000C4C206880B10C4E00254369236073B13B
:1022C0009D6102B962B6457783689847EFF3108243
:1022D00072B620680028F0D102B962B670BD3360D2
:1022E000EFE700BFA814FF1FAC14FF1FFFF7DCBF10
:1022F000184A30B41468002C27D0036821688B4238
:102300000ED2CB1A00218460C1602360E0601060AF
:102310000223037530BC704711688B42144608D302
:10232000A2685B1A0360002AF6D18260C460A060D4
:10233000EEE7D268C2608460E060C568CB1A022212
:10234000A8602360027530BC70478460C460106070
:10235000DEE700BFB014FF1FF8B5224E34682CB37F
:102360002368002B3AD1204F1D4604E03468ECB1BD
:102370002368002B32D1A36803B1DD60206933608C
:10238000036825751B68BB4221D1037F4560022B82
:10239000C46020D0FFF73AFF6368002BE6D02360CB
:1023A0002046FFF7A5FF3468002CE1D1EFF310833E
:1023B00072B60E4A00211068116003B962B628B1E6
:1023C0008468FFF795FF20460028F9D1F8BD224622
:1023D00000219847E0E783689847DDE7013B2360E9
:1023E000E4E700BFB014FF1F8D220000C014FF1FE0
:1023F000024A136801331360FFF7AEBF3013FF1FAB
:10240000704700BF704700BF704700BF704700BFF4
:10241000704700BF704700BF30B42948294A2A4B93
:102420002A4D6024E121047011701B78284C082B80
:1024300030D00A2B2748284937D00C2B0CBF352227
:102440005D2212232A60236002600B60234B244923
:102450001B78244ABBB101230B601360224B234934
:102460001B78234A012B26D9042B0FD9082B1ED900
:10247000102B94BF862387230B6013601D4B012212
:102480001A7030BC70470B601360E7E784230B6061
:102490001360F3E700F58E200F4908302122132343
:1024A0002A60236002600B60D0E73922F7E78523BA
:1024B0000B601360E2E780230B601360DEE700BF70
:1024C00000400740014007409409FF1F08B0034047
:1024D0000CB0034008B00B400CB00B40C514FF1FFC
:1024E00020B0034020B00B409509FF1F24B00340EB
:1024F00024B00B40C414FF1F0A4A0B49136843F46D
:10250000805313600B7843B1084B80221A7080F31C
:102510000C00074B00B218807047044BC0221A70A1
:10252000F5E700BF2C800440C514FF1F21C00C40FC
:1025300000C00C400A4A0B49136843F4005313606F
:102540000B7843B1084B80221A7080F30C00074BC4
:1025500000B218807047044BC0221A70F5E700BF24
:102560002C800440C514FF1F21D00C4000D00C402B
:1025700008B5104C08E0236859050DD423681A05E6
:102580000FD42368DB0411D423685803F3D5FFF775
:10259000D3F823685905F1D500F05EF823681A05D1
:1025A000EFD500F0EFF82368DB04EDD500F080F9FB
:1025B000EAE700BF3480044008B5FFF7D9FF00BF49
:1025C000014B10221A80704700200540704700BF61
:1025D000094908B50B6830B16A461844A2F50052A3
:1025E000904202D20860184608BD03F09DF80C2303
:1025F00003604FF0FF3008BD9809FF1FEFF3138011
:1026000070B9EFF310836BB9EFF305825AB94FF449
:102610008070EFF311832BB1984228BF18467047A2
:102620004FF0FF3070470F2A01D81846F1E7014BF1
:10263000D05CEEE7F0E300E0054A064B10781B782B
:10264000C0B2DBB2984238BF4030C01A704700BFFA
:10265000CC14FF1FCD14FF1FF0B4384B1A7912F0C1
:10266000300F2CD072B6997D01F0FF0200293DD0C9
:1026700062B6334F334938780D78334E1C46C0B2BA
:10268000EDB2431C402BE17928BF0023AB4202F19D
:10269000FF32C9B21CBFF154184612F0FF02F0D14C
:1026A0002A4B1B68C2B23A704BB1A84236BFC5F183
:1026B0004005401B40192728C4BF01221A701F493A
:1026C000CA78D2B2150616D452060DD51B4B1B790B
:1026D0005B0609D51E4B1F491B6800220A7003B117
:1026E0001A70164B3C22DA70F0BC70474022D97940
:1026F0005A7462B6E3E70B791C06E5D5164B174E04
:102700001C783378E4B2DBB29C420ED0144D01E069
:10271000A3420AD00133402B28BF00230879E85C8C
:10272000C0B2C871087D0728F2D9DBB20349337003
:102730000B79180644BF7C23CB70C5E700A0064088
:10274000CC14FF1FCD14FF1F1015FF1FC814FF1F4F
:102750005415FF1F5015FF1F5815FF1F5115FF1F60
:10276000D014FF1F054A064B10781B78C0B2DBB2AD
:10277000984238BF4030C01A704700BFCC15FF1FC9
:102780006115FF1FF0B4384B1A7912F0300F2CD0BE
:1027900072B6997D01F0FF0200293DD062B6334F39
:1027A000334938780D78334E1C46C0B2EDB2431C25
:1027B000402BE17928BF0023AB4202F1FF32C9B2BE
:1027C0001CBFF154184612F0FF02F0D12A4B1B68CF
:1027D000C2B23A704BB1A84236BFC5F14005401BAA
:1027E00040192728C4BF01221A701F49CA78D2B2E3
:1027F000150616D452060DD51B4B1B795B0609D561
:102800001E4B1F491B6800220A7003B11A70164B39
:102810003C22DA70F0BC70474022D9795A7462B613
:10282000E3E70B791C06E5D5164B174E1C78337879
:10283000E4B2DBB29C420ED0144D01E0A3420AD0B8
:102840000133282B28BF00230879E85CC0B2C87187
:10285000087D0728F2D9DBB2034933700B791806DB
:1028600044BF7C23CB70C5E700B00640CC15FF1FEA
:102870006115FF1F8C15FF1F5C15FF1FD015FF1F73
:102880006015FF1FD415FF1FCD15FF1F6415FF1F17
:10289000054A064B10781B78C0B2DBB2984238BFAD
:1028A0004030C01A704700BFDC15FF1FDD15FF1F49
:1028B00030B42B4B1A7994061FD52A48DA7903785D
:1028C000294901333F2B0978C8BF00238B42D2B27C
:1028D00003D0264CD9B2E2540170254A116861B187
:1028E000244A1278D2B2934236BFC2F140029B1AF8
:1028F0009B18272BC4BF01230B70194AD378DBB276
:10290000180611D45A060DD5154B1B795B0609D54F
:10291000194B1A491B6800220A7003B11A70104B38
:102920002C22DA7030BC704711790906EAD51449B7
:1029300010480C780178C9B28C420DD04A1C272A65
:1029400084BF00210A460F4D054C98BFD1B2AA5C46
:10295000D2B2E2710170D5E76C21D170D2E700BF2D
:1029600000C00640DC15FF1FDD15FF1F0816FF1F06
:10297000D815FF1F4916FF1F4C16FF1F4816FF1FD3
:102980005016FF1FE015FF1F054A064B10781B78F5
:10299000C0B2DBB2984238BF4030C01A704700BFA7
:1029A0005816FF1F5916FF1F30B42B4B1A79940687
:1029B0001FD52A48DA790378294901333F2B097852
:1029C000C8BF00238B42D2B203D0264CD9B2E25406
:1029D0000170254A116861B1244A1278D2B293423B
:1029E00036BFC2F140029B1A9B18272BC4BF01239C
:1029F0000B70194AD378DBB2180611D45A060DD5DC
:102A0000154B1B795B0609D5194B1A491B68002227
:102A10000A7003B11A70104B2C22DA7030BC704768
:102A200011790906EAD5144910480C780178C9B221
:102A30008C420DD04A1C272A84BF00210A460F4D24
:102A4000054C98BFD1B2AA5CD2B2E2710170D5E751
:102A50006C21D170D2E700BF00D006405816FF1F8E
:102A60005916FF1F8416FF1F5416FF1FC516FF1FA0
:102A7000C816FF1FC416FF1FCC16FF1F5C16FF1FD2
:102A8000054A064B10781B78C0B2DBB2984238BFBB
:102A90004030C01A704700BFD416FF1FD516FF1F65
:102AA00030B42B4B1A7994061FD52A48DA7903786B
:102AB000294901333F2B0978C8BF00238B42D2B28A
:102AC00003D0264CD9B2E2540170254A116861B195
:102AD000244A1278D2B2934236BFC2F140029B1A06
:102AE0009B18272BC4BF01230B70194AD378DBB284
:102AF000180611D45A060DD5154B1B795B0609D55E
:102B0000194B1A491B6800220A7003B11A70104B46
:102B10002C22DA7030BC704711790906EAD51449C5
:102B200010480C780178C9B28C420DD04A1C272A73
:102B300084BF00210A460F4D054C98BFD1B2AA5C54
:102B4000D2B2E2710170D5E76C21D170D2E700BF3B
:102B500000B00E40D416FF1FD516FF1F0017FF1F31
:102B6000D016FF1F4117FF1F4417FF1F4017FF1FFD
:102B70004817FF1FD816FF1F72B6184A184B19497D
:102B80001160702280211A701A46197013781B0682
:102B9000FCD510B5144B84B0186862B6134B144CB6
:102BA000984298BF00EB800001A998BF40000A221C
:102BB00000F022F801A92046002311F8012B01336F
:102BC0003AB10A2B20F8022FF7D11623237004B054
:102BD00010BD5B00DBB2237004B010BD04000240E6
:102BE00000000240000007410C0002407F96980060
:102BF000280AFF1F704700BFF0B44D1E2E46002468
:102C000000E00134B0FBF2F302FB1300092800F1ED
:102C100030078ABF3730F8B2C0B206F8010F184645
:102C2000002BEED10A1953704CB1107815F8016FD2
:102C300028700133E01A834202F80169F5DB084687
:102C4000F0BC7047FFFFFFFF00B551EC100B2C4AA2
:102C500021F00043934285B020DD2A4A934209DDEA
:102C600010EE102A0B4602F077F841EC100B05B07D
:102C70005DF804FB684600F0E7FB00F00300012864
:102C800028D0022815D060B301209DED021B9DEDD8
:102C9000000B01F075FC51EC100BE6E79FED161BE5
:102CA00000F01AFF51EC100B41EC100B05B05DF871
:102CB00004FB9DED021B9DED000B00F00DFF53EC9E
:102CC000102B10EE100A03F1004141EC100B05B07F
:102CD0005DF804FB9DED021B9DED000B01F050FC27
:102CE000EDE79DED021B9DED000B00F0F5FE51ECB4
:102CF000100BBAE7AFF300800000000000000000F6
:102D0000FB21E93FFFFFEF7F00B551EC100B2C4A90
:102D100021F00043934285B027DD2A4A934209DD22
:102D200010EE102A0B4602F017F841EC100B05B01C
:102D30005DF804FB684600F087FB00F00300012803
:102D400027D002281DD068B39DED021B9DED000B1E
:102D500000F0C2FE53EC102B10EE100A03F10041FC
:102D600041EC100B05B05DF804FB00209FED121B39
:102D700001F006FC51EC100B41EC100B05B05DF8B6
:102D800004FB01209DED021B9DED000B01F0F8FB03
:102D9000E0E79DED021B9DED000B00F09DFE51EC68
:102DA000100BC2E701209DED021B9DED000B01F011
:102DB000E7FB51EC100BB8E700000000000000003A
:102DC000FB21E93FFFFFEF7F00B551EC100B184AE4
:102DD00021F00043934285B01DDD164A934209DD80
:102DE00010EE102A0B4601F0B7FF41EC100B05B0B6
:102DF0005DF804FB684600F027FB400000F002008D
:102E0000C0F101009DED021B9DED000B01F084FC63
:102E100005B05DF804FB01209FED031B01F07CFC75
:102E200005B05DF804FB00BF0000000000000000DA
:102E3000FB21E93FFFFFEF7F30B52DED048BB0EEB6
:102E4000408AF0EE608A294C8BB000F0ADF894F91E
:102E50000030B0EE409AF0EE609A013332D053EC7D
:102E6000182B51EC180B02F0C5FB054650BBB0EE19
:102E7000480AF0EE680A01F033FE00221C4B51ECC8
:102E8000100B02F0ADFBE8B11A4B1B48089501226C
:102E90008DE80C008DED048B8DED028B01F0BCFEF6
:102EA00094F90030022B8DED060B13D0684601F02B
:102EB000AFFE78B1089BA3B99DED060B0BB0BDEC3E
:102EC000048B30BDB0EE490AF0EE690A0BB0BDECE0
:102ED000048B30BD02F028FC21230360089B002BEB
:102EE000EAD002F021FC089B0360E5E73E0AFF1FE1
:102EF0000000F03F306300003463000010B52DED9A
:102F0000028B8AB0B0EE408A00F094FD244B93F916
:102F10000040631C09D0B4EE488AF1EE10FA04D6E2
:102F2000B5EEC08AF1EE10FA03D40AB0BDEC028B04
:102F300010BD01231B4A009318EE100A00230192D2
:102F4000089302F069F80022CDE90401CDE90201FD
:102F50000023BCB11046194602F0DCF9022CCDE981
:102F6000060111D102F0E0FB21230360089B8BB91D
:102F7000DDE9060102F07CFB00EE100A0AB0BDECB0
:102F8000028B10BDCDE90623684601F041FE002802
:102F9000ECD1E7E702F0C8FB089B0360E8E700BF5D
:102FA0003E0AFF1F386300002DE9F04F57EC106B0D
:102FB000CB4B27F000459D4283B017DD05F140451E
:102FC00010EE103A05F580152B432BD010EE102A89
:102FD0003B463046394601F0BFFE02460B4602F042
:102FE00099F941EC100B03B0BDE8F08FBD4B9D4249
:102FF0003C4633DCB5F1795F80F27C819CA3D3E958
:10300000002310EE100A394601F0A8FE0022B64B4C
:1030100002F0E6FA10B33046394641EC100B03B02B
:10302000BDE8F08F10EE100A93A3D3E900233946D0
:1030300002F046F892A3D3E9002304460D46304639
:10304000394602F03DF802460B462046294601F07B
:1030500085FE41EC100B03B0BDE8F08F47EC106B20
:1030600001F03EFD002053EC102B9F4901F074FE4F
:1030700000229E4B02F024F883A3D3E900230646E6
:103080000F4602F01DF882A3D3E9002301F066FE8B
:1030900032463B4602F014F87FA3D3E9002301F047
:1030A0005BFE32463B4602F00BF87DA3D3E90023DA
:1030B00001F054FE32463B4602F002F87AA3D3E90F
:1030C000002301F049FE32463B4601F0F9FF78A3A8
:1030D000D3E9002301F042FE32463B4601F0F0FF07
:1030E00075A3D3E90023804689463046394601F06E
:1030F000E7FF73A3D3E9002301F02EFE32463B46DF
:1031000001F0DEFF70A3D3E9002301F027FE324671
:103110003B4601F0D5FF6EA3D3E9002301F01CFE6E
:1031200032463B4601F0CCFF6F4B002201F016FE09
:1031300047EC106BCDE9000100F0ACFB6C4B9D42FD
:103140005BEC10ABDDE900016EDC02460B4640464D
:1031500049460025CDE900AB009502F0DBF8DDE93A
:1031600000895246CDE900015B465046594601F0C0
:10317000F5FD02460B46DDE9000101F0A1FF4246E4
:10318000CDE900014B464046494601F099FF024611
:103190000B463046394601F0DFFD424606460F46F3
:1031A0004B465046594601F0D9FD02460B46304683
:1031B000394602F0AFF802460B4601F0CFFD024659
:1031C0000B462FA1D1E9000101F0C6FD02460B46D6
:1031D000DDE9000101F0C0FD424606460F464B46C0
:1031E0004046494601F0BAFD02460B463AA1D1E9F4
:1031F000000101F0B1FD02460B463046394601F0B0
:10320000ABFD02460B4634A1D1E9000101F0A4FD5B
:1032100002460B46002C40F3E4801046194641EC70
:10322000100B03B0BDE8F08F02460B4640464946FE
:1032300002F070F852465B4601F042FF52465B4690
:1032400001F08CFD02460B4601F088FD0CA3D3E98A
:10325000002301F081FD02460B4607A1D1E90001E0
:1032600001F07AFD02460B46D4E700BFAFF30080C1
:103270009C7500883CE4377E182D4454FB21F93FAF
:10328000075C143326A6913C09F7FD0DE13D023F92
:1032900088B20175E0EF493F3B8F68B52882A43FB3
:1032A0005544880E55C1C93F7D6FEB0312D6D43FFC
:1032B000555555555555C53F82922EB1C5B8B33FAA
:1032C00059018D1B6C06E63FC88A599CE52A0040CF
:1032D0004B2D8A1C273A0340182D4454FB21E93F0B
:1032E000FFFFEF3FFFFFDF3F0000F03F0000E03F48
:1032F0003233EF3F10EE102A10EE100A3B463946EB
:1033000001F0DEFE3BA3D3E9002304460D4601F0A5
:10331000D7FE3AA3D3E9002301F020FD22462B4635
:1033200001F0CEFE37A3D3E9002301F015FD2246BC
:103330002B4601F0C5FE35A3D3E9002301F00EFDB5
:1033400022462B4601F0BCFE32A3D3E9002301F054
:1033500003FD22462B4601F0B3FE30A3D3E9002340
:1033600001F0FCFC22462B4601F0AAFE2DA3D3E976
:103370000023804689462046294601F0A1FE2BA362
:10338000D3E9002301F0E8FC22462B4601F098FE29
:1033900028A3D3E9002301F0E1FC22462B4601F0EB
:1033A0008FFE26A3D3E9002301F0D6FC22462B464C
:1033B00001F086FE00220E4B01F0D0FC02460B46C7
:1033C0004046494601F0A6FF32463B4601F078FEF2
:1033D00032463B4601F0C2FC41EC100B03B0BDE8A5
:1033E000F08F104603F10041FBE500BFAFF3008012
:1033F0000000F03F09F7FD0DE13D023F88B2017585
:10340000E0EF493F3B8F68B52882A43F5544880EC2
:1034100055C1C93F7D6FEB0312D6D43F5555555565
:103420005555C53F82922EB1C5B8B33F59018D1B8A
:103430006C06E63FC88A599CE52A00404B2D8A1C41
:10344000273A0340FFFFFFFF2DE9F04F53EC102B0D
:10345000974923F0004B8B458FB040F38780954907
:103460008B451C46824629DC002C194610EE100ABA
:1034700085A3D3E9002340F3A58101F06DFC8E4BB9
:103480009B4504460D4600F0878081A3D3E90023C5
:1034900001F062FC02460B46CAE900232046294699
:1034A00001F05AFC7AA3D3E9002301F055FC012571
:1034B000CAE9020128460FB0BDE8F08F7F498B456D
:1034C00040F387807E498B455BDC4FEA2B55A5F2A4
:1034D0001645ABEB05571046394610EE106A02F060
:1034E0009FF801F087FD8046894642464B463046AC
:1034F0003946CDE9088901F02FFC0022714B01F01B
:10350000DFFD8946804602F08BF801F073FD064628
:103510000F4632463B4640464946CDE90A6701F030
:103520001BFC0022674B01F0CBFD00220023CDE9FC
:103530000C0102F02DF8002800F0708100233046C5
:103540003946002202F024F8002814BF0123022388
:103550005D4A0192022100912A46514608A800F0D6
:10356000FFFB002CC0F24C81054606E080ED000B0D
:1035700000250024C0E90245002528460FB0BDE81B
:10358000F08F10EE100A194601F0E6FB0025CAE99B
:103590000201CAE90001F0E73FA3D3E9002301F0EB
:1035A000DBFB3FA3D3E900230D46044601F0D4FB27
:1035B00002460B46CAE900232946204601F0CCFB0F
:1035C00037A3D3E9002301F0C7FB0125CAE90201B3
:1035D000D3E701F085FA57EC106B10EE100A32A316
:1035E000D3E90023394601F06BFD0022374B01F08F
:1035F000B5FB02F015F8054601F0FCFC22A3D3E967
:103600000023CDE9040101F05BFD02460B46304684
:10361000394601F0A1FB1EA3D3E900238046894669
:10362000DDE9040101F04CFD1F2DCDE9020151DC63
:10363000274B6A1E53F822309B454BD002460B465F
:103640004046494601F088FB06460F46CAE9006736
:1036500032463B464046494601F07EFBDDE9022307
:1036600001F07AFB002CCAE9020186DA07F1004476
:1036700001F100436D42CAF80060CAF80440CAF87C
:103680000800CAF80C3078E700004054FB21F93FED
:103690003163621A61B4D03D0000601A61B4D03D5C
:1036A0007370032E8A19A33B83C8C96D305FE43F52
:1036B000FB21E93F7BD90240FB21F93FFB21394146
:1036C000FFFFEF7F00007041C06300000000E03F9B
:1036D00040630000DDE902234046494601F03CFB1F
:1036E0004FEA2B5BC1F30A53C3EB0B0306460F46AD
:1036F000102BCAE90067ABDD5DA3D3E90023DDE948
:10370000040101F0DDFC06460F4602460B4640462A
:10371000494601F021FBCDE9060102460B46404631
:10372000494601F019FB32463B4601F015FB52A316
:10373000D3E9002306460F46DDE9040101F0C0FC91
:1037400032463B4601F008FB0B46CDE9020102463A
:10375000DDE9060101F000FBC1F30A53C3EB0B0BDB
:1037600006460F46BBF1310FCAE9006776DD45A377
:10377000D3E90023DDE9040101F0A2FC06460F466F
:1037800002460B46DDE9060101F0E6FA02460B4669
:1037900080468946DDE9060101F0DEFA32463B4605
:1037A00001F0DAFA39A3D3E9002306460F46DDE932
:1037B000040101F085FC32463B4601F0CDFACDE92B
:1037C00002013BE701F0CAFA2D4B9B4504460D462A
:1037D00026D025A3D3E9002301F0C0FA02460B4608
:1037E000CAE900232946204601F0B6FA1EA3D3E910
:1037F000002301F0B3FA4FF0FF35CAE90201BCE63D
:10380000DAF80420DAF80C3002F1004203F1004348
:103810004542CAF80420CAF80C30AEE6032397E606
:1038200013A3D3E9002301F099FA13A3D3E90023EA
:103830000D46044601F092FA02460B46CAE90023FF
:103840002946204601F088FA0BA3D3E9002301F0B2
:1038500085FA4FF0FF35CAE902018EE6DDE90689F7
:10386000F6E600BFAFF300803163621A61B4D03D69
:103870000000601A61B4D03D7370032E8A19A33B17
:10388000FB21F93F0000002E8A19A33BC1492025E6
:103890009A837B392DE9F041654955EC104B0E4672
:1038A0002940B14200F09780002D2B4610EE102ADF
:1038B00074DD2F157FD0A7F2FF37C3F31303F90789
:1038C00043F4801365D403EBD27100260B447F10C0
:1038D0005200B64616204FF400110EEB01049C4234
:1038E0004FEAD2754FEA420203DC1B1B04EB010EC8
:1038F0000E44013805EB43034FEA5101EDD18446F4
:1039000020244FF0004109E020D003EBD275013CA8
:103910004FEA51012B444FEA420220D09E4501EB71
:103920000C05F1DA002D05EB010C09DBF0469542A0
:10393000CEEB030300D9013B521B0844C646E4E723
:10394000BCF1000FF2DB0EF10108F0E795421ED842
:10395000002D05EB010C50DB98460023ECE71343E8
:1039600004D0421C4DD000F00103184440087110EF
:10397000F30701F17F5101F5001148BF40F000400D
:1039800001EB0753024643EC102BBDE8F081734670
:10399000BBE75B0003EBD273520094E725F00041D4
:1039A000214328D0ADBB2F46D30A153F5205002B2B
:1039B000FAD0DD0228D4002100E001465B00DC02E1
:1039C00001F10100F9D5C0F1200422FA04F42343E7
:1039D0007F1A82406FE710EE102A2B4610EE100A75
:1039E000294601F06DFB22462B4601F0B7F941EC68
:1039F000100BBDE8F081BDE8F081BCF1000FA2DA48
:103A0000AAE701362046B2E720244FF0FF3100201C
:103A1000DBE710EE102A2B462046294601F09CF9E0
:103A200002460B4601F076FC41EC100BBDE8F0813C
:103A30000000F07F10EE103A23F00042B2F1FF4F89
:103A400070B430D26AB3002B3DDBB2F5000F4FEA01
:103A5000E3502CD3A0F17F02C3F31603D10743F444
:103A6000000348BF5B00002456105B002546192167
:103A70004FF08072A818984202DC1B1A8518144473
:103A800001394FEA43034FEA5202F3D113B104F074
:103A900001031C44641004F17C5404EBC65300EE93
:103AA000103A70BC7047A0EE000A70BC704713F467
:103AB000000201D00CE00A465B001C0202F1010189
:103AC000F9D5801AC6E770EE407A87EEA70AE8E7D4
:103AD0004FF0FF32F5E700BF2DE9F04F57EC106BC8
:103AE0002DED028BB0EE418AF0EE618A27F000499D
:103AF000B9F1795F83B072DA10EE100A394601F03D
:103B00008FFD002800F0F68032463B4630463946AD
:103B100001F0D6FA7CA3D3E9002304460D4601F058
:103B2000CFFA7BA3D3E9002301F018F922462B46F4
:103B300001F0C6FA78A3D3E9002301F00DF922467B
:103B40002B4601F0BDFA76A3D3E9002301F006F974
:103B500022462B4601F0B4FA73A3D3E9002301F007
:103B6000FBF822462B4601F0ABFA71A3D3E9002300
:103B700001F0F4F822462B4601F0A2FA82468B4669
:103B80000022714B2046294601F09AFA524680469F
:103B900089465B462046294601F092FA53EC182BE1
:103BA00004460D463046394601F08AFA02460B4675
:103BB0002046294601F0D0F802460B4640464946C9
:103BC00001F0CAF802460B460020604901F0C4F833
:103BD00041EC100B03B0BDEC028BBDE8F08F10EE92
:103BE000102A10EE100A3B46394601F069FA46A346
:103BF000D3E9002304460D4601F062FA44A3D3E959
:103C0000002301F0ABF822462B4601F059FA42A3FB
:103C1000D3E9002301F0A0F822462B4601F050FA28
:103C20003FA3D3E9002301F099F822462B4601F087
:103C300047FA3DA3D3E9002301F08EF822462B4634
:103C400001F03EFA3AA3D3E9002301F087F82B46AE
:103C5000224601F035FA3E4B994582468B468FDD70
:103C60003C4B99453DDC0022A9F500130020374963
:103C70009046994601F070F8CDE900010022324BE0
:103C80002046294601F01CFA42464B4601F064F8F2
:103C90005246804689465B462046294601F010FA86
:103CA00053EC182B04460D463046394601F008FA0D
:103CB00002460B462046294601F04EF802460B46C6
:103CC0004046494601F048F802460B46DDE900014E
:103CD00001F042F841EC100B03B0BDEC028BBDE8E3
:103CE000F08F9FED157B4FF000088DED007BDFF826
:103CF0006890C3E79FED120B03B0BDEC028BBDE8EB
:103D0000F08F00BFAFF30080D43888BEE9FAA8BDB9
:103D1000C4B1B4BD9EEE213EAD529C804F7E923E1A
:103D20009015CB19A001FA3E7751C1166CC1563FD0
:103D30004C5555555555A53F000000000000E73F84
:103D4000000000000000F03F0000E03F0000F03FF6
:103D50003233D33F0000E93F0000D23FFFFFFFFFB7
:103D60002DE9F04FADF51B7D814CA49E814D54F89B
:103D7000264007942646D41E85FB0475E417C4EB41
:103D8000A50424EAE4741D460A93631CA3EB830391
:103D9000013D02EBC30306932B460B940095651B74
:103DA000F4180390089116D42C44013422AEA59F38
:103DB00008E057F8250001F01DF90135A542E6E8B5
:103DC000020108D0002DF4DA013500200021A542BF
:103DD000E6E80201F6D1079B002BC0F2C283079BE5
:103DE000039ADDF800A003F1010B0A9B0DF5E479BD
:103DF000DB00049309EBCB0B02EB0308009B002BC9
:103E0000C0F2928122AB03EBCA05039C0835002661
:103E1000002775E90223F4E8020101F051F9024696
:103E20000B463046394600F099FF444506460F469A
:103E3000EFD1E9E80267D9450AF1010ADED1079915
:103E40000498039C049101F18043023B9B002044B1
:103E50001A1D83460EA8024403440D920C93049A43
:103E60009AA901EBC203002A53E9284529DD0DF583
:103E7000E47A0AEBC2080DF1340900223E4B2046D9
:103E8000294601F01DF901F0CBFB01F0B3F8002247
:103E90003A4B06460F4601F013F902460B46204600
:103EA000294600F059FF01F0BBFB78E9022349F8ED
:103EB000040F3946304600F051FFD04504460D4608
:103EC000DBD1DDF8189045EC104B484600F0ACFE15
:103ED00055EC104B00224FF07F5310EE100A29468C
:103EE00001F0EEF841EC100B00F002FE002251EC64
:103EF000100B234B01F0E4F802460B4620462946FE
:103F000000F02AFF0D46044601F08AFB804601F0CE
:103F100071F80B4602462946204600F01DFF4B462D
:103F2000002B06460F4640F3E580049A0EA9013A9D
:103F3000C9F1180351F8225045FA03F101FA03F3CD
:103F40000EA8EB1A40F82230C9F11705884443FA4D
:103F500005F5002D41DD049B002B08F1010840F31D
:103F6000C982002214460DA90498AE4612E000BF93
:103F7000C8640000ABAAAA2A0000703E000070418D
:103F800000002040C3F180750BB10D6001240132A7
:103F900090420DDD51F8043F002CF3D0C3F1FF1324
:103FA000013203F57F4390420B604FF00104F1DCD6
:103FB0007546069B002B0EDD012B00F0A380022B23
:103FC00009D1049B5A1E0EAB0EA953F82230C3F33D
:103FD000150341F82230022D74D000220023304610
:103FE000394601F0D5FA002800F04982049A079B6F
:103FF000501E834210DC02F18043013B0EAA0D9C4F
:1040000002EB8303002253F80419A34242EA01029F
:10401000F9D1002A40F0A480079B0EAA013B52F878
:104020002330002B40F064820C9A012352F80419CB
:1040300001330029FAD0049AD31802F1010A9A45F3
:1040400009933CDC0B9B0A9A09990AEB0309049B30
:10405000984690448B1809F18049A59A09F1FF39D7
:1040600002EB890922AA02EBC303049372AB02EBB1
:10407000C80803EBCA0A59F8040F00F0BBFF009B05
:10408000002BE8E802014FF000064FF0000711DBBB
:10409000039C454675E90223F4E8020101F010F89B
:1040A00002460B463046394600F058FE5C4506464F
:1040B0000F46EFD1049B9845EAE80267DBD1099BE4
:1040C0000493CCE632463B460020B34900F044FE60
:1040D00006460F46002C80D006989FEDAB0B00F0F3
:1040E000A3FD3046394653EC102B00F035FE064652
:1040F0000F4672E711D1049B0EAA013B52F82350E0
:10410000ED1526E7049B5A1E0EAB0EA953F822307C
:10411000C3F3160341F822305DE700229F4B01F004
:1041200055FA58B9054658E700260027E9E802671E
:10413000D9450AF1010A7FF461AE80E6049B002BA9
:1041400008F10108C8BF02253FF70BAF32463B46D6
:104150000020914900F000FE022506460F463CE78C
:104160000EA9CDF8248051F8203006990090183916
:104170000246039506916BB900F18043013B0EA8FE
:1041800000EB830353F80409013A18390028F9D0E9
:104190000092069106989FED7C0B00F045FD009B78
:1041A000002B55EC104BC0F2C181DA000DF5E4781C
:1041B0000EA901EB830608EB020B069204360BF105
:1041C000080756F8040D00F015FF22462B4600F0B4
:1041D00077FF002267E90201714B2046294600F073
:1041E0006FFF474504460D46EBD14AACDDF81C9005
:1041F00004944FF0000AB9F1000FC0F22B81DFF8F0
:10420000A4815D4662A3D3E9002300260027002491
:1042100003E0A24510DBF8E80223F5E8020100F014
:104220004FFF02460B463046394600F097FD0134F9
:10423000A14506460F46ECDA049B03EBCA03ABF13B
:10424000080BC3E9006770AB9B450AF1010AD2D1A4
:10425000A49B049C032B00F28D80DFE813F0DD00AB
:10426000A500A5000400009B002B40F35C81009B8F
:1042700003F1005B069B0BF1FF3BE2184FEACB0317
:10428000D2E9008903F10802103304EB020AE518B1
:104290003AED027B42464B4651EC170B8DED047B09
:1042A00000F05CFD06460F4602460B46DDE90401C0
:1042B00000F052FD4B46424600F050FD65E9020118
:1042C0004CAB9D42B046B946CAE90067E0D1009BBD
:1042D000012B40F32881069B234493ED007B4FEA9A
:1042E000CB0B0BF1100A8DED007BA2440BF1080BF8
:1042F00004EB0B05D0460DF59C7BCDF810A075E9BD
:10430000029ADDE900014A46534600F027FD0646C1
:104310000F4602460B464846514600F01DFDDDE9BA
:10432000002300F01BFD68E90201C345CDE90067E9
:10433000C5E90067E3D1DDF810A0002000217AE98B
:10434000022300F00BFDD345F9D1039B002B00F0B5
:10435000D3806268E368089F2568A4683D6002F125
:10436000004203F1004301F100417A60FB60BC6050
:1043700038617961099B03F007000DF51B7DBDE8ED
:10438000F08F00BFAFF30080000000000000F03F9E
:1043900000000040FB21F93F0000F03F0000E03F3B
:1043A0000000703EE0640000069D083525440020B2
:1043B000002175E9022300F0D1FCA542F9D1039B4D
:1043C000002B4AD0089E024601F1004386E80C000B
:1043D0000B460246D4E9000100F0BEFC009B002B16
:1043E0000DDD4CAD0124F5E8022300F0B7FC009B85
:1043F0000134A342F7DA039B002B00F0A78001F100
:10440000004308990246C1E90223099B03F0070013
:104410000DF51B7DBDE8F08F069B009D0833002045
:1044200000211C4474E90223013D00F097FC6B1C41
:10443000F8D1039B0246002B00F08E8001F100436F
:104440000899C1E90023099B03F007000DF51B7DC6
:10445000BDE8F08F00260027EEE6089B0246C3E980
:1044600000010B46D4E9000100F076FC009C002C12
:1044700002460B46B5DC0899C1E90223C5E7069B55
:104480000395584247EC106BCDF8248000F0CCFB2C
:1044900055EC104B0022384B10EE100A294601F063
:1044A00095F8002834D00022344B2046294600F0ED
:1044B00007FE01F0B5F8064600F09CFD00222E4BE9
:1044C00000F0FEFD02460B462046294600F044FC63
:1044D00001F0A6F80499069B0A46183301320693A8
:1044E0000B460EA9009241F8230041F8226051E6E4
:1044F0000123A0E500245CE5D4E90067D4E90223A8
:10450000089DC5E90401C5E90067C5E9022331E753
:104510002946204601F084F8049A00920EA941F839
:10452000220037E64AAC002000210EE7A49B032BB3
:104530003FF620AF01A252F823F000BF7345000000
:104540006B4500006B450000254500000B460899AF
:104550000246C1E9022358E70B460899C1E9002346
:1045600071E70A9BDB00049369E4002000214AAC58
:1045700025E7002000215CE7000070410000703E4C
:104580002DE9F04F55EC104B2DED028BB0EE418A2A
:10459000F0EE618A25F00043B3F1795F83B0824683
:1045A00007DA10EE100A294601F03AF8002800F068
:1045B0008E8022462B462046294600F081FD064685
:1045C0000F4602460B462046294600F079FD47A3D8
:1045D000D3E90023804689463046394600F070FD15
:1045E00044A3D3E9002300F0B7FB32463B4600F07A
:1045F00067FD42A3D3E9002300F0B0FB32463B46FF
:1046000000F05EFD3FA3D3E9002300F0A5FB324696
:104610003B4600F055FD3DA3D3E9002300F09EFB8F
:10462000CDE90001BAF1000F37D000222E4B51EC3A
:10463000180B00F045FDDDE9002382468B4640461D
:10464000494600F03DFD02460B465046594600F0F3
:1046500083FB32463B4600F033FD53EC182B00F051
:104660007BFB1FA3D3E9002306460F46404649467D
:1046700000F026FD02460B463046394600F06EFB40
:1046800002460B462046294600F066FB41EC100B23
:1046900003B0BDEC028BBDE8F08F02460B463046FE
:1046A000394600F00DFD0EA3D3E9002300F054FBC2
:1046B00042464B4600F004FD22462B4600F04EFBDE
:1046C00041EC100B03B0BDEC028BBDE8F08F45EC64
:1046D000104B03B0BDEC028BBDE8F08FAFF3008050
:1046E000495555555555C53F0000E03F7CD5CF5A3B
:1046F0003AD9E53DEB9C2B8AE6E55A3E7DFEB15763
:10470000E31DC73ED561C119A0012A3FA6F81011CB
:104710001111813FFFFFFFFF2DE9F04F59EC108B86
:10472000E14B89B029F000469E42CDF8149007462F
:104730008DED001B19DC10EE100A494600F070FFE9
:10474000A0BB43461E437B1C334300F05E81012F18
:1047500000F0C28142464B460020D44900F0DAFD09
:1047600041EC100B09B0BDE8F08FD14B9E421DDD2E
:10477000059B002BC0F2A08142464B46AAA1D1E97D
:10478000000100F0E9FADDE9002304460D46A8A186
:10479000D1E9000100F0E0FA9FEDA77B22462B460D
:1047A0008DED007B00F0DAFA8046894642464B46A2
:1047B0004046494600F084FC02460B4682468B4642
:1047C00000F07EFC524604460D465B464046494694
:1047D00000F076FC9AA3D3E90023CDE9020120463C
:1047E000294600F06DFC98A3D3E9002300F0B6FA47
:1047F00022462B4600F064FC95A3D3E9002300F089
:10480000ADFA22462B4600F05BFC93A3D3E90023CC
:1048100000F0A4FA22462B4600F052FC90A3D3E904
:10482000002300F09BFA22462B4600F049FC8EA3A1
:10483000D3E9002300F092FA52465B4600F040FCB8
:104840008BA3D3E90023CDE906012046294600F0D9
:1048500037FC89A3D3E9002300F080FA22462B46D7
:1048600000F02EFC86A3D3E9002300F077FA22465D
:104870002B4600F025FC84A3D3E9002300F06EFA58
:1048800022462B4600F01CFC81A3D3E9002300F054
:1048900065FA22462B4600F013FC7FA3D3E90023E0
:1048A00000F05CFA02460B46DDE9060100F056FA1C
:1048B000DDE9022300F004FCDDE9004522462B4639
:1048C00000F04CFA52465B4600F0FAFB02460B46FB
:1048D0002046294600F042FA71A3D3E9002304469A
:1048E0000D46DDE9020100F0EBFB22462B4600F00D
:1048F00035FA0B46024649464046CDE9002300F012
:104900002DFA6B4B9E4204460D463CDC012F00F015
:10491000E08002460B460020644900F0FBFC0024C6
:104920000F464B46064629462046424600F014FAFA
:1049300002460B46DDE9000100F00EFA22463B4636
:1049400000F0BEFBA246A94604460D4652463B4631
:104950005046494600F0B4FB0022564B00F0FEF9E9
:1049600002460B462046294600F0F8F932463B46FF
:1049700000F0A6FB52463B4600F0F0F941EC100B6C
:1049800009B0BDE8F08F384600F034FB22460646F9
:104990000F462B462046294600F092FB32468246BF
:1049A0008B463B462046294600F0D8F902460B4686
:1049B0005046594600F0AEFCDDE9002300F0CCF98A
:1049C00002460B464046494600F0C6F902460B46F1
:1049D00000F0C4F902460B463046394600F0BCF9F7
:1049E000059B0446981700F00200C0F101000D4637
:1049F00000F000FB02460B462046294600F060FB13
:104A000041EC100B09B0BDE8F08F49EC108B00F0C1
:104A100067F8002053EC102B264900F07BFC41EC9A
:104A2000100BADE7AFF30080182D4454FB21E93F94
:104A3000075C143326A6813C000000000000000043
:104A4000D47ABF74702AFB3EE9A7F0320FB8123F48
:104A500068108D1AF726303F1583E0FEC8DB573FFC
:104A600093846EE9E326823FFE41B31BBAA1AB3FBC
:104A7000735360DBCB75F3BEA69237A0887E143FDC
:104A80000165F2F2D844433F280356C9226D6D3FB9
:104A900037D60684F464963F7AFE10111111C13F97
:104AA000635555555555D53FFFFF2F3E0000F0BFCC
:104AB0002794E53F0000F03FDDE9004509F10041A2
:104AC000224605F1004310EE108A8946CDE9002305
:104AD00052E645EC104B53E749EC108B50E700BF12
:104AE00053EC102B23F0004343EC102B704700BF16
:104AF00051EC100BC1F30A532DE9F041A3F2FF353D
:104B0000132D0C460F4610EE106A1DDC002D43DB02
:104B10003D4B43FA05F801EA0803034319D038A3D3
:104B2000D3E9002300F01AF90022002300F058FD19
:104B300020B1002C49DB27EA080400262346324630
:104B400043EC102BBDE8F081332D06DDB5F5806F09
:104B500032D041EC100BBDE8F081A3F213434FF0CB
:104B6000FF3828FA03F810EA080FF2D024A3D3E99B
:104B7000002300F0F3F80022002300F031FD0028AC
:104B8000DCD0002C27DB3C4626EA080623463246CA
:104B900043EC102BBDE8F08119A3D3E9002300F00A
:104BA000DDF80022002300F01BFD0028C6D0002CF9
:104BB0001CDB00263446C1E710EE102A0B4600F03D
:104BC000CDF841EC100BBDE8F0814FF4801343FAAF
:104BD00005F52F44AFE7142D10D00123C5F134059E
:104BE00003FA05F5AE1928BFFF18CCE724F0004200
:104BF000064B324318BF1C4600269FE70137C2E729
:104C00009C7500883CE4377EFFFF0F000000F0BF7A
:104C100000207047FFFFFFFF9FED010B704700BFB3
:104C2000000000000000F87F53EC102B70B5C3F3B8
:104C30000A541946054614BB23F0004111432AD0FB
:104C400019460022384B394E10EE100A00F038FA9F
:104C5000B54202460B461FDBC1F30A54363C2C44D6
:104C600040F2FE7084421FDC002C2DDD21F0FF415C
:104C700021F4E00141EA045343EC102B70BD40F2F3
:104C8000FF708442EBD110EE100A194600F066F86E
:104C900041EC100B70BD70BD1FA3D3E9002300F0E1
:104CA0000FFA41EC100B70BD43EC112B9FED1C0B68
:104CB00000F040F81AA3D3E9002351EC100B00F0E8
:104CC000FFF941EC100B70BD14F1350F13DA4CF203
:104CD00050318D4243EC112BE8DC9FED0F0B00F0BF
:104CE00029F80DA3D3E9002351EC100B00F0E8F9EB
:104CF00041EC100B70BD21F0FF4121F4E00136348E
:104D000041EA0453104619460022094B00F0D8F935
:104D100041EC100B70BD00BF59F3F8C21F6EA50126
:104D20009C7500883CE4377E00005043B03CFFFF98
:104D30000000903C53EC102B11EE900A23F0004140
:104D400000F0004041EA000343EC102B704700BF25
:104D500081F0004102E000BF83F0004330B54FEA2C
:104D600041044FEA430594EA050F08BF90EA020F99
:104D70001FBF54EA000C55EA020C7FEA645C7FEA2C
:104D8000655C00F0E2804FEA5454D4EB5555B8BF4F
:104D90006D420CDD2C4480EA020281EA030382EAC0
:104DA000000083EA010180EA020281EA0303362D52
:104DB00088BF30BD11F0004F4FEA01314FF4801C25
:104DC0004CEA113102D0404261EB410113F0004F37
:104DD0004FEA03334CEA133302D0524263EB4303EE
:104DE00094EA050F00F0A780A4F10104D5F1200E8C
:104DF0000DDB02FA0EFC22FA05F2801841F10001E7
:104E000003FA0EF2801843FA05F359410EE0A5F1BA
:104E100020050EF1200E012A03FA0EFC28BF4CF0EB
:104E2000020C43FA05F3C01851EBE37101F00045A1
:104E300007D54FF0000EDCF1000C7EEB00006EEBAE
:104E40000101B1F5801F1BD3B1F5001F0CD3490838
:104E50005FEA30004FEA3C0C04F101044FEA44528F
:104E600012F5800F80F09A80BCF1004F08BF5FEA16
:104E7000500C50F1000041EB045141EA050130BDF6
:104E80005FEA4C0C404141EB010111F4801FA4F199
:104E90000104E9D191F0000F04BF01460020B1FAEE
:104EA00081F308BF2033A3F10B03B3F120020CDA26
:104EB0000C3208DD02F1140CC2F10C0201FA0CF004
:104EC00021FA02F10CE002F11402D8BFC2F1200C69
:104ED00001FA02F120FA0CFCDCBF41EA0C0190401F
:104EE000E41AA2BF01EB0451294330BD6FEA040468
:104EF0001F3C1CDA0C340EDC04F11404C4F1200253
:104F000020FA04F001FA02F340EA030021FA04F364
:104F100045EA030130BDC4F10C04C4F1200220FABB
:104F200002F001FA04F340EA0300294630BD21FAF9
:104F300004F0294630BD94F0000F83F4801306BFBF
:104F400081F480110134013D4EE77FEA645C18BFB3
:104F50007FEA655C29D094EA050F08BF90EA020F4A
:104F600005D054EA000C04BF1946104630BD91EA42
:104F7000030F1EBF0021002030BD5FEA545C05D145
:104F80004000494128BF41F0004130BD14F5800484
:104F90003CBF01F5801130BD01F0004545F0FE41F8
:104FA00041F470014FF0000030BD7FEA645C1ABF2D
:104FB000194610467FEA655C1CBF0B46024650EA64
:104FC000013406BF52EA033591EA030F41F4002190
:104FD00030BD00BF90F0000F04BF0021704730B516
:104FE0004FF4806404F132044FF000054FF00001EB
:104FF00050E700BF90F0000F04BF0021704730B5AC
:105000004FF4806404F1320410F0004548BF404280
:105010004FF000013EE700BF42004FEAE2014FEAD5
:1050200031014FEA02701FBF12F07F4393F07F4FB0
:1050300081F06051704792F0000F14BF93F07F4FE2
:10504000704730B54FF4607401F0004521F0004125
:1050500020E700BF50EA010208BF704730B54FF0AB
:1050600000050AE050EA010208BF704730B511F0B0
:10507000004502D5404261EB41014FF4806404F1E8
:1050800032045FEA915C3FF4DCAE4FF003025FEA6A
:10509000DC0C18BF03325FEADC0C18BF033202EBF2
:1050A000DC02C2F1200300FA03FC20FA02F001FA4C
:1050B00003FE40EA0E0021FA02F11444C1E600BFEB
:1050C00070B54FF0FF0C4CF4E06C1CEA11541DBF9E
:1050D0001CEA135594EA0C0F95EA0C0F00F0DEF869
:1050E0002C4481EA030621EA4C5123EA4C5350EA4E
:1050F000013518BF52EA033541F4801143F480139F
:1051000038D0A0FB02CE4FF00005E1FB02E506F02F
:105110000042E0FB03E54FF00006E1FB03569CF084
:10512000000F18BF4EF0010EA4F1FF04B6F5007F8A
:1051300064F5407404D25FEA4E0E6D4146EB0606FC
:1051400042EAC62141EA55514FEAC52040EA5E5085
:105150004FEACE2EB4F1FD0C88BFBCF5E06F1ED82F
:10516000BEF1004F08BF5FEA500E50F1000041EB66
:10517000045170BD06F0004646EA010140EA020013
:1051800081EA0301B4EB5C04C2BFD4EB0C0541EA35
:10519000045170BD41F480114FF0000E013C00F34A
:1051A000AB8014F1360FDEBF002001F0004170BD6E
:1051B000C4F10004203C35DA0C341BDC04F1140487
:1051C000C4F1200500FA05F320FA04F001FA05F213
:1051D00040EA020001F0004221F0004110EBD370E0
:1051E00021FA04F642EB06015EEA430E08BF20EA0C
:1051F000D37070BDC4F10C04C4F1200500FA04F3AF
:1052000020FA05F001FA04F240EA020001F0004140
:1052100010EBD37041F100015EEA430E08BF20EAB3
:10522000D37070BDC4F1200500FA05F24EEA020EFB
:1052300020FA04F301FA05F243EA020321FA04F02A
:1052400001F0004121FA04F220EA020000EBD370E1
:105250005EEA430E08BF20EAD37070BD94F0000FE1
:105260000FD101F00046400041EB010111F4801F15
:1052700008BF013CF7D041EA060195F0000F18BFC6
:10528000704703F00046520043EB030313F4801F02
:1052900008BF013DF7D043EA0603704794EA0C0FBC
:1052A0000CEA135518BF95EA0C0F0CD050EA4106D2
:1052B00018BF52EA4306D1D181EA030101F000414F
:1052C0004FF0000070BD50EA410606BF1046194677
:1052D00052EA430619D094EA0C0F02D150EA013683
:1052E00013D195EA0C0F05D152EA03361CBF1046C4
:1052F00019460AD181EA030101F0004141F0FE4163
:1053000041F470014FF0000070BD41F0FE4141F4E6
:10531000780170BD70B54FF0FF0C4CF4E06C1CEAE6
:1053200011541DBF1CEA135594EA0C0F95EA0C0F9B
:1053300000F0A7F8A4EB050481EA030E52EA033556
:105340004FEA013100F088804FEA03334FF0805577
:1053500045EA131343EA12634FEA022245EA1115A4
:1053600045EA10654FEA00260EF000419D4208BF55
:10537000964244F1FD0404F5407402D25B084FEA02
:105380003202B61A65EB03055B084FEA32024FF4AE
:1053900080104FF4002CB6EB020E75EB030E22BF0B
:1053A000B61A754640EA0C005B084FEA3202B6EBCB
:1053B000020E75EB030E22BFB61A754640EA5C007A
:1053C0005B084FEA3202B6EB020E75EB030E22BF0A
:1053D000B61A754640EA9C005B084FEA3202B6EB0B
:1053E000020E75EB030E22BFB61A754640EADC00CA
:1053F00055EA060E18D04FEA051545EA16754FEA2C
:1054000006164FEAC30343EA52734FEAC2025FEA49
:105410001C1CC0D111F4801F0BD141EA00014FF0D8
:1054200000004FF0004CB6E711F4801F04BF0143A9
:105430000020B4F1FD0C88BFBCF5E06F3FF6AFAEC5
:10544000B5EB030C04BFB6EB020C5FEA500C50F155
:10545000000041EB045170BD0EF0004E4EEA1131D8
:1054600014EB5C04C2BFD4EB0C0541EA045170BDDF
:1054700041F480114FF0000E013C90E645EA060E23
:105480008DE60CEA135594EA0C0F08BF95EA0C0F51
:105490003FF43BAF94EA0C0F0AD150EA01347FF499
:1054A00034AF95EA0C0F7FF425AF104619462CE770
:1054B00095EA0C0F06D152EA03353FF4FDAE1046D3
:1054C000194622E750EA410618BF52EA43067FF424
:1054D000C5AE50EA41047FF40DAF52EA43057FF4B4
:1054E000EBAE12E74FF0FF3C06E000BF4FF0010CBF
:1054F00002E000BF4FF0010C4DF804CD4FEA410C23
:105500007FEA6C5C4FEA430C18BF7FEA6C5C1BD0EF
:1055100001B050EA410C0CBF52EA430C91EA030F70
:1055200002BF90EA020F0020704710F1000F91EACD
:10553000030F58BF994208BF90422CBFD8176FEA9B
:10554000E37040F0010070474FEA410C7FEA6C5C69
:1055500002D150EA013C07D14FEA430C7FEA6C5C70
:10556000D6D152EA033CD3D05DF8040B704700BF9C
:105570008446104662468C461946634600E000BFEA
:1055800001B5FFF7B7FF002848BF10F1000F01BDBC
:105590004DF808EDFFF7F4FF0CBF012000205DF887
:1055A00008FB00BF4DF808EDFFF7EAFF34BF01200C
:1055B00000205DF808FB00BF4DF808EDFFF7E0FFA5
:1055C00094BF012000205DF808FB00BF4DF808EDF6
:1055D000FFF7CEFF94BF012000205DF808FB00BF5D
:1055E0004DF808EDFFF7C4FF34BF012000205DF83F
:1055F00008FB00BF4FEA410C7FEA6C5C02D150EA25
:10560000013C0AD14FEA430C7FEA6C5C02D152EABA
:10561000033C02D14FF0000070474FF0010070478B
:105620004FEA410212F5001215D211D56FF47873CA
:10563000B3EB625212D94FEAC12343F0004343EA6D
:10564000505311F0004F23FA02F018BF4042704748
:105650004FF00000704750EA013005D111F00040D2
:1056600008BF6FF0004070474FF00000704700BF68
:105670004FEA4102B2F1E04324BFB3F5001CDCF174
:10568000FE5C0DD901F0004C4FEAC0024CEA5070AC
:10569000B2F1004F40EB830008BF20F001007047DB
:1056A00011F0804F21D113F13872BCBF01F00040DE
:1056B000704741F480114FEA5252C2F11802C2F110
:1056C000200C10FA0CF320FA02F018BF40F0010091
:1056D0004FEAC1234FEAD32303FA0CFC40EA0C0043
:1056E00023FA02F34FEA4303CCE77FEA625307D180
:1056F00050EA01331EBF4FF0FE4040F440007047B7
:1057000001F0004040F0FE4040F40000704700BF50
:105710000B460146184600F001B800BF13460A4682
:105720000146022000F00CBB014B1868704700BF17
:10573000680EFF1F70B50F4E0F4D761BB61018BFC9
:10574000002405D0013455F8043B9847A642F9D10E
:105750000A4E0B4D761B00F0E1FEB61018BF002478
:1057600006D0013455F8043B9847A642F9D170BDE4
:1057700070BD00BF28650000286500003C65000082
:1057800028650000024B0146186800F00BB800BF06
:10579000680EFF1F024B0146186800F095BB00BF62
:1057A000680EFF1F2DE9F04F01F10B05162D83B098
:1057B000064640F29F8035F0070500F1BF80A94200
:1057C00000F2BC8000F0A6FAB5F5FC7FC0F09C8228
:1057D0006B0A00F0BA80042B00F28381A80900F163
:1057E000390E4FEA4E033830C44F07EB8303A3F161
:1057F00008015C68A14207D1ACE0002A80F2AC80CD
:10580000E468A14200F0A680636823F003035A1BFA
:105810000F2AF2DDB9493C6901F1080E744500F028
:10582000B381636823F003035A1B0F2A00F39981A5
:10583000002AC1F814E0C1F810E080F29E80B3F5B0
:10584000007F80F06781DB0803F1010C01229B10CF
:1058500002FA03F34A6851F83C80C4F8088001EB6F
:10586000CC091A43A9F10803E3604A6041F83C40BF
:10587000C8F80C40831001249C40944200F28A80B6
:10588000144206D120F003006400144200F1040029
:10589000FAD007EBC009CC468046DCF80C108C45EA
:1058A00007D173E1002A80F28181C9688C4500F03C
:1058B0006D814B6823F003035A1B0F2AF2DD0C465F
:1058C000D1F80CC054F8088F4B1945F001054D6014
:1058D00042F00101C8F80CC03046CCF808807B616A
:1058E0003B61C3F80CE0C3F808E059609A5000F03F
:1058F00013FA1FE0102921D800F00CFA1025062316
:1059000002207E4F07EB8303A3F108025C689442F8
:1059100000F045816368E168A56823F00303234430
:1059200030465A68E96042F001028D605A6000F02A
:10593000F3F90834204603B0BDE8F08F00240C23AF
:105940002046336003B0BDE8F08F80234FF0400E57
:105950003F2049E770465DE72344E1685A68A5683F
:1059600042F00102E96030468D605A6000F0D4F9DF
:105970000834204603B0BDE8F08F234430465A680F
:1059800042F001025A6000F0C7F90834204603B023
:10599000BDE8F08FBC68636823F00308A84504D312
:1059A000C5EB08030F2B00F38C80554BDFF860919B
:1059B0001A68D9F8003001332A4404EB080A00F0D1
:1059C000608102F580520F3222F47F6222F00F02D2
:1059D00011463046019200F0A1F9B0F1FF3F834635
:1059E000019A00F05881824500F2FC80454B19680D
:1059F000DA451144196000F05381D9F80000DFF84E
:105A000010E101301BBFCAEB0B0A5144CEF800B0C5
:105A100019601BF0070100F01781C1F10800C1F502
:105A20008051834408315A44C2F30B02C2EB01098E
:105A300049463046019300F071F9431C019B00F088
:105A40003F81CBEB00024A4442F001021968C7F8DB
:105A500008B04944BC42CBF804201960DFF8A49098
:105A600016D0B8F10F0F40F2FD806268A8F10C0368
:105A700023F00703E01802F001024FF0050E1A436D
:105A80000F2B6260C0F804E0C0F808E000F21C814F
:105A90001D4BBC681A68914288BF19601B4B1A687D
:105AA0009142626888BF196022F003029542A2EB1E
:105AB000050301D80F2B04DC304600F02DF900243B
:105AC00038E7621943F0010345F00105656030468F
:105AD000BA60536000F020F90834204603B0BDE8F6
