:100000000000022099010000D92700009927000074
:1000100099270000992700009927000099270000E0
:10002000992700009927000099270000D927000090
:10003000D927000099270000955800004558000076
:10004000D9270000D9270000D9270000D9270000B0
:10005000D9270000D9270000D9270000D9270000A0
:10006000D9270000D9270000D9270000D927000090
:10007000D9270000D9270000D9270000D927000080
:10008000D9270000D9270000D9270000D927000070
:10009000D9270000D9270000D9270000D927000060
:1000A000D9270000D9270000D9270000D927000050
:1000B000D9270000D9270000D9270000DD1700004C
:1000C000D92700003D560000D927000065550000E3
:1000D000D92700008D540000D9270000D92700003F
:1000E000D9270000D9270000D9270000D927000010
:1000F000D9270000D9270000D9270000D927000000
:10010000D9270000D9270000D9270000D9270000EF
:10011000D9270000DD1D0000D9270000D9270000E5
:10012000D9270000D9270000D9270000D9270000CF
:10013000D9270000D9270000D9270000D9270000BF
:10014000D9270000D927000001170000D927000097
:10015000C1530000D9270000D9270000D92700008B
:10016000D9270000D9270000D9270000D92700008F
:10017000D9270000D9270000D9270000D92700007F
:10018000D9270000D9270000D9270000D92700006F
:10019000D9270000D927000008B5574B4CF2205250
:1001A0001A804DF628121A8000BF00BF02F0EEFA46
:1001B000524B4FF030621A60514A9A60514ADA60ED
:1001C000514B4FF470021A60504A136813F4807355
:1001D00004D14F490B604FF4A85313604D4B1A786C
:1001E000110703D51A7842F008021A704A4B4B499E
:1001F0002A221A704A4A4B4B8B4204D252F8040FFF
:1002000043F8040BF8E7484B484900228B4202D2DE
:1002100043F8042BFAE74649464A002352F82300E4
:1002200041F823000133662BF8D1434B434A802128
:1002300003F8011B9342FBD1414B3D4A1A60414BED
:100240008A221A70A3F5805324225A70A0221A70B1
:100250009A799207FCD59A79D406FCD43A4A9379D4
:1002600003F00C03082B384BF9D103221A714622F4
:100270005A719A799006FCD5334A9179324B4906E6
:10028000FBD5324A4FF08271116009215160202262
:100290001A709A7902F00C020C2AFAD12C4B2D4AD2
:1002A0001A602D4B2D4A1A6000225A60072243F82B
:1002B000042C2B4AC3F80C2D62B602F0A7FA144B9B
:1002C0001B68DA0705D5274802F042FA264B274A71
:1002D0001A60274B1B785B0609D5234C234B2268F9
:1002E0009A4204D11F4802F033FA0023236005F03C
:1002F00057FD03F009FA00BF0E200540308004408E
:10030000823F04000100002B88ED00E010D0034084
:1003100014D0034002D0074000E007401413FF1F31
:10032000C88E0000F806FF1F1813FF1F0023FF1FD1
:100330000002FF1F0000000000E400E056E400E0BF
:1003400008ED00E0005006400040064044800440B4
:1003500004800440C010050014E000E0BFD4010098
:10036000000020204375CE5A1CE00340A5C3945AD8
:1003700000F00740FFFFFFFFFFFFFFFFFFFFFFFF52
:10038000FFFFFFFFFFFFFFFFFFFFFFFFFFFFFFFF7D
:10039000FFFFFFFFFFFFFFFFFFFFFFFFFFFFFFFF6D
:1003A000FFFFFFFFFFFFFFFFFFFFFFFFFFFFFFFF5D
:1003B000FFFFFFFFFFFFFFFFFFFFFFFFFFFFFFFF4D
:1003C000FFFFFFFFFFFFFFFFFFFFFFFFFFFFFFFF3D
:1003D000FFFFFFFFFFFFFFFFFFFFFFFFFFFFFFFF2D
:1003E000FFFFFFFFFFFFFFFFFFFFFFFFFFFFFFFF1D
:1003F000FFFFFFFFFFFFFFFFFFFFFFFFFFFFFFFF0D
:10040000FFFFFFFFFFFFFFFFFFFFFFFFDEF9FFFF23
:1004100010B5054C237833B9044B13B10448AFF33E
:1004200000800123237010BD1813FF1F000000007F
:10043000CC8E0000084B10B51BB108490848AFF33B
:1004400000800848036803B910BD074B002BFBD0A0
:10045000BDE81040184700BF000000001C13FF1F3C
:10046000CC8E00001413FF1F00000000014B03603E
:10047000704700BFF0860000014B0360704700BF6B
:10048000008700000122024B83F84E21704700BF15
:10049000E41EFF1F014B0360704700BF1087000080
:1004A000014B0360704700BF2087000008B5036858
:1004B0001B68C9B2984708BD08B503681B68C9B274
:1004C000984708BD08B503681B68C9B2984708BDBE
:1004D00008B503681B68C9B2984708BD704700BFDC
:1004E0000020704708B5024804F016FF08BD00BFA1
:1004F0003820FF1F08B5024804F01CFF08BD00BFEC
:100500003820FF1F08B5024804F022FF08BD00BFD5
:100510003820FF1F08B5024804F028FF08BD00BFBF
:100520003820FF1F08B5024804F02EFF08BD00BFA9
:100530003820FF1F08B5024804F034FF08BD00BF93
:100540003820FF1FF0B591B004460021422002F090
:100550004DFC0021432002F049FC01228DF830209F
:100560008DF8202000238DF831308DF82120422293
:100570008DF83C2043228DF82C208DF832308DF8F8
:1005800022300D9309930E930A93D4F844516E1CB4
:1005900004EB0515043510AB13E90F0085E80F00D7
:1005A000751C04EB0616043608AB0FCB86E80F006B
:1005B000DFF844E004AF0EF140030FCB87E80F00F3
:1005C0000EF150030FCB8DE80F0005F1010E04EB87
:1005D0000515043597E80F0085E80F000EF10103BB
:1005E000C4F8443104EB0E1404349DE80F0084E891
:1005F0000F0011B0F0BD00BFE88600002DE9F04704
:100600002DED048B84B08246C3695A6892ED027A5C
:10061000DFED3C7AC7EE278A90ED018A38EE888AB2
:1006200080ED018A5E68306806F07CFA04460D466B
:1006300018EE100A06F076FA41EC190B41EC100B9B
:1006400006F00EFE53EC102B8DED000B20462946D4
:1006500006F0BCFA80468946706806F063FA0646E2
:100660000F46B0EE490AF0EE690A06F059FE53EC67
:10067000102B8DED020B3046394606F0A7FA0246E4
:100680000B464046494606F0EDF806F097FD08EEA9
:10069000100A32463B46DDE9000106F097FA0646AD
:1006A0000F46DDE902232046294606F08FFA02466E
:1006B0000B463046394606F0D7F806F07FFDDAF8EB
:1006C00008305B68D3ED007A77EE887AC3ED007A64
:1006D000DAF808305B68D3ED017A07EE100A77EE9E
:1006E000877AC3ED017ADAF808305B68D3ED027AD5
:1006F00077EEA87AC3ED027A04B0BDEC048BBDE8B6
:10070000F08700BF0000394370B5044672B690ED23
:10071000036AD0ED046A90ED057A0023C36003619B
:10072000436162B683695B68B8EEC66ADFED367A0C
:10073000C6EE275AC3ED005A83695B68F8EEE66A95
:1007400086EEA76A83ED016A83695B68B8EEC77AB3
:10075000C7EE276AC3ED026AC26981692B4805F0BA
:10076000CFF970B106462A4D2B685B6837222949BC
:10077000284698473146284603F0EAFC284603F00D
:10078000D7FC2046FFF73AFF236A5B68A2695268EC
:10079000D2ED006ADFED207A86EEA77A83ED007A4B
:1007A000236A5B68A2695268D2ED016A86EEA77A75
:1007B00083ED017A236A5B68A2695268D2ED026A0E
:1007C00086EEA77A83ED027A636A5B68E269526813
:1007D000D2ED006A86EEA77A83ED007A636A5B68E1
:1007E000E2695268D2ED016A86EEA77A83ED017A5A
:1007F000636A5B68E2695268D2ED026A86EEA77AA4
:1008000083ED027A70BD00BFF5C0F140F807FF1F0D
:10081000B00AFF1F54870000CDCC4C3D10B50446F4
:10082000FFF724FE2821204602F080FE204610BD5E
:1008300010B50446034B0360542102F077FE2046B6
:1008400010BD00BF0087000010B50446FFF722FE70
:100850004FF4AA71204602F069FE204610BD00BF89
:1008600010B50446FFF71CFE0C21204602F05EFE88
:10087000204610BD10B52DED028B04461A4B0360C7
:100880009FED1A8AB0EE481AF0EE480AB0EE480A18
:1008900004F01AFC2065B0EE481AF0EE480AB0EEFB
:1008A000480A04F011FC60600023E364A3646364FD
:1008B00084ED048A84ED038A84ED028A84ED078A3C
:1008C00084ED068A84ED058A094BA3626362236284
:1008D000084B63632363E362074B2364E363A3630F
:1008E0002046BDEC028B10BD008700000000000018
:1008F0009A99993ECDCC4C3ECDCCCC3D38B51446E2
:10090000D8B20D1E01DD012100E0002102F0DAFA6B
:1009100085EAE571A1EBE571E0B202F0D7FB38BDE5
:10092000F0B595B004460023029303930493032388
:10093000ADF800300123ADF8023002AB01936A46F6
:100940004168924805F0DCF870B10646904D2B687E
:100950005B6838228F49284698473146284603F07D
:10096000F7FB284603F0E4FB8B4B1B6A019AD2EDA0
:10097000006A5B68D3ED007A76EEE76A92ED017A61
:10098000D3ED017A37EE677A92ED026AD3ED027AFF
:1009900076EE677ADFED815ACDED055A94ED026A65
:1009A00036EE866A8DED066A7D4B0793B4EEE56AF6
:1009B000F1EE10FA01D805AB00E006ABD3ED005A1A
:1009C0009FED786AF4EEC65AF1EE10FA00DD07AB3F
:1009D000D3ED005AC4ED025A9FED705A8DED085ABE
:1009E00094ED036A37EE066A8DED096A6C4B0A9343
:1009F000B4EEC56AF1EE10FA01D808AB00E009AB1D
:100A000093ED005A9FED676AB4EEC65AF1EE10FA04
:100A100000DD0AAB93ED006A84ED036ADFED5F4A07
:100A2000CDED0B4A94ED045A37EE855A8DED0C5AF4
:100A30005B4B0D93B4EEE45AF1EE10FA01D80BAB18
:100A400000E00CABD3ED004A9FED565AF4EEC54AD8
:100A5000F1EE10FA00DD0DABD3ED002AC4ED042A4F
:100A600094ED053A36EEC33AD4ED063A77EE633AA2
:100A700094ED074A37EEC44AC4ED056A84ED067A60
:100A8000C4ED077A94ED085A66EE854AD4ED0B6AF8
:100A900065EEA66A34EEA65AD4ED0E6A63EE266AB7
:100AA00075EE266AD4ED095A27EE255A94ED0C7A94
:100AB00026EE077A75EE075A94ED0F7A23EE877AC1
:100AC00035EE877A94ED0A6A67EE865AD4ED0D7A90
:100AD00062EEA77A35EEA76AD4ED107A64EE277A33
:100AE00076EE277A6FF0FA030E93FDEEE66A16EEC5
:100AF000903ACDED0F6A13F1FA0F01DA0EAB00E078
:100B00000FAB1A68FB2A00DD274B1F686FF0FA0352
:100B10001093BDEEC77A17EE103A8DED117A13F1EE
:100B2000FA0F01DA10AB00E011AB1A68FB2A00DD06
:100B30001D4B1E686FF0FA031293FDEEE77A17EE75
:100B4000903ACDED137A13F1FA0F01DA12AB00E00F
:100B500013AB1A68FB2A00DD134B1D680523042222
:100B600039462046FFF7CAFE0723062231462046B3
:100B7000FFF7C4FE0323022229462046FFF7BEFEEC
:100B80006764A664E56415B0F0BD00BF0008FF1FF0
:100B9000B00AFF1F8C8700003820FF1F0000FAC436
:100BA0000000FA440000FA444887000038B50D46BA
:100BB000054C00220321204603F090FE2A46032123
:100BC000204603F06BFF38BD3413FF1F38B50D46C8
:100BD000064C00220121204603F080FE96232A467F
:100BE0000121204603F002FF38BD00BF3413FF1F70
:100BF00070B514461D4669B10A4E012202213046E5
:100C000003F06CFE40F2FF332A46E1B2304603F0B7
:100C1000D3FD70BD00232A46E1B2024803F0CCFDAB
:100C200070BD00BF3413FF1F30B585B004461520DA
:100C300002F03AF9003018BF012084F84A010A2076
:100C400002F032F9003018BF012084F84801092071
:100C500002F02AF9031C18BF012384F8493100224D
:100C600084F84E2194F84A1194F8482194F84B01E5
:100C700094F84C5194F84D4102940195009002482B
:100C800003F07EFC05B030BD8015FF1F08B50B7862
:100C9000012B03D033B1022B08D00CE0087B03F00A
:100CA000C1F808BD087B02F0FFF808BD097B0348C6
:100CB00003F008FD08BD002008BD00BF3413FF1F6E
:100CC000F0B52DED028B8BB006461F4B586805F032
:100CD00029FF41EC180B41EC100B06F0C1FA51EC66
:100CE000100B06F06BFA0546B0EE480AF0EE680A03
:100CF00006F016FB51EC100B06F060FA04462422B5
:100D0000002101A805F074F84FF07E530993019576
:100D1000029407EE904AF1EE677ACDED047A0595DC
:100D2000736801AC5D6809AF26460FCE2860696024
:100D3000AA60EB6034461035BE42F5D130682860B9
:100D40000BB0BDEC028BF0BD3820FF1F10B5044680
:100D5000084B03609FED080AB0EE401AF0EE400A1F
:100D600004F0B2F9A0600321084604F089F960603C
:100D7000204610BD208700000000000008B508468E
:100D800002F054FC012008BD08B5084602F04EFCF4
:100D9000012008BD38B50D46084605F0F1FC0446B3
:100DA0000146284602F0E6FB204638BD10B508464D
:100DB0001446114602F0DEFB204610BD08B501F0D6
:100DC00025FE08BD08B501F09FFD08BD08B501F07E
:100DD00031FE08BD08B501F0D7FD08BD08B501F02A
:100DE000B9FD08BD08B501F0FFFD08BD08B508460E
:100DF00001F02CFE003018BF012008BD08B50846E0
:100E000002F030F8003018BF012008BD08B50846D0
:100E1000114601F081FE08BD08B5084601F042FE0A
:100E200008BD00BF08B5084602F070F808BD00BF55
:100E300008B501F0BDFE08BD10B51446054B03EB27
:100E40005100B0FBF1F001F059FF204601F01CFF0A
:100E500010BD00BF001C4E0E08B5044B03EB510043
:100E6000B0FBF1F001F04AFF08BD00BF001C4E0EC0
:100E700010B504460D4B03600023C0F8443180F8E0
:100E8000483180F8493180F84A3180F84B3180F898
:100E90004C3180F84D3180F84E3120221F2100F274
:100EA0004F1004F093F8204610BD00BF10870000DB
:100EB00008B50021182001F099FF0021192001F048
:100EC00095FF00211A2001F091FF00211B2001F065
:100ED0008DFF00210B2001F089FF00210C2001F083
:100EE00085FF03220E49182002F078FA03220D49EB
:100EF000192002F073FA03220B491A2002F06EFA4D
:100F000003220A491B2002F069FA032208490B2038
:100F100002F064FA032207490C2002F05FFA08BDD0
:100F20003505000025050000150500000505000039
:100F3000F5040000E504000083685B68D3ED027AE5
:100F400037EE800A80ED010A704700BF38B50446CD
:100F50000D46084605F014FC23685B6802462946E6
:100F60002046984738BD00BF08B5FFF7CDFB08BD48
:100F700010B52DED028B04461D4B03609FED1D8ABD
:100F800080ED018A002343610361C360B0EE481A1B
:100F9000F0EE480AB0EE480A04F096F86062B0EE4F
:100FA000481AF0EE480AB0EE480A04F08DF82062C4
:100FB000B0EE481AF0EE480AB0EE480A04F084F8A1
:100FC000A061B0EE481AF0EE480AB0EE480A04F00C
:100FD0007BF8E061B0EE481AF0EE480AB0EE480A3D
:100FE00004F072F8A0602046BDEC028B10BD00BF7B
:100FF000F08600000000000001280ED14FF6FF73BC
:1010000099420AD110B5054C2046FFF733FC044A3B
:101010000449204604F0B2FE10BD70476020FF1F57
:10102000F407FF1F7904000010B5044605230422CD
:101030000021FFF763FC0723062200212046FFF76B
:101040005DFC0323022200212046FFF757FC606865
:1010500003F0D4FF206D03F0D1FF0023022B10DC3E
:101060009A1C04EB8202002111601A1D04EB82021B
:10107000516003F1100204EB820200215160013340
:10108000ECE710BD08B5FFF74BFC08BD08B52DED2A
:10109000028B082002F00AF80121042001F0A6FECC
:1010A0000121052001F0A2FE9FED118AB0EE480A51
:1010B000042001F047FF0121062001F097FE0121E5
:1010C000072001F093FEB0EE480A062001F03AFF37
:1010D0000121022001F08AFE0121032001F086FE99
:1010E000B0EE480A022001F02DFFBDEC028B08BDD6
:1010F000BAE1644401280ED14FF6FF7399420AD138
:1011000010B5054C2046FFF7B3FE044A04492046BB
:1011100004F034FE10BD7047E41EFF1FF407FF1FEC
:101120009504000010B40023D0F84441A3420ADA29
:1011300000EB031464798C4203D100EB03139A7122
:1011400001E00133F0E75DF8044B704730B583B040
:101150001446062968D8DFE801F0040C14191E2291
:10116000260001230222211C18BF0121FFF740FDA8
:101170005AE000230422E11A18BF0121FFF738FDCD
:1011800052E01146172001F0A1FF4DE01146162054
:1011900001F09CFF48E01146FFF718FD44E01146BE
:1011A000FFF704FD40E000F24F1501220721284619
:1011B00003F002FF42F20F739C4209DC002201920D
:1011C0000423009313462146284603F0ADFE2BE08E
:1011D00044F61F639C420CDC00230193042300931C
:1011E0000123FF22A4F51C511039284603F09CFE70
:1011F0001AE044F621639C4206D1002304220B49E5
:10120000284603F05DFE0FE044F622639C4206D1BF
:10121000002304220649284603F052FE04E000227F
:101220001146284603F0C8FE03B030BD4C870000CD
:101230005087000010B50446003118BF012180F826
:101240004B11003218BF012280F84C21003318BF27
:10125000012380F84D3109B1012100E00021132064
:1012600001F030FE94F84C310BB1012100E0002177
:10127000142001F027FE94F84D310BB1012100E05C
:101280000021122001F01EFE2046FFF7CDFC10BD0C
:101290002DE9F04182B0054690F84E3113F0FF0F72
:1012A00001D0FFF7C1FC0024D5F844319C4241DA5B
:1012B00005EB04131E1D9B79012B02D0022B17D0C6
:1012C00036E031462846FFF7E1FC05EB0413DB6806
:1012D00098422DD005EB0413D860184A126800928A
:1012E000009A9A6002465979154803F02FF91FE0D9
:1012F000124B1B680193019FDFF848803946404636
:1013000002F026FF404602F013FF05EB04139B6832
:10131000FB1A632B0CDD31462846FFF7B7FC02466B
:1013200005EB0413D8609F605979054803F00EF966
:101330000134B9E702B0BDE8F08100BFAC22FF1F65
:101340008015FF1FB00AFF1F38B505462322234929
:10135000234803F0EDFB0121132001F047FD01219B
:10136000142001F043FD0121122001F03FFD022174
:10137000152001F03BFD02210A2001F037FD02217A
:10138000092001F033FD0121172001F02FFD01217B
:10139000162001F02BFD0021172001F097FE0021FF
:1013A000162001F093FE0F4C04222146152002F076
:1013B00015F8042221460A2002F010F804222146E2
:1013C000092002F00BF82846FFF7BCF800231A4664
:1013D00019462846FFF72EFF38BD00BF40420F00D8
:1013E0003413FF1F8504000001280ED14FF6FF7350
:1013F00099420AD110B5054C2046FFF7A7FC044AD4
:101400000449204604F0BAFC10BD7047D81EFF1FE7
:10141000F407FF1FA104000010B50446406803F064
:10142000EDFDA06803F0EAFD10BD00BF30B587B048
:101430000446FFF745FC002303930493059301231F
:10144000ADF806300323ADF8043003AB029301AAD4
:10145000A168606804F054FB70B105460C4C236829
:101460005B683F220B49204698472946204602F0F8
:101470006FFE204602F05CFE074B5B685B68029AD9
:10148000106851689268186059609A6007B030BD62
:10149000B00AFF1FC88700006020FF1F00BE704712
:1014A00010B572B61C4A01232DE0511C127812F0BF
:1014B000080F26D09A00194C54F832406CB9083005
:1014C000164B03EBC2014860154943F83210154A28
:1014D0001378013B137062B610BD42F001020F4C4D
:1014E00054F832406CB908300C4B03EBC201486031
:1014F0000D4943F832100B4A1378013B137062B662
:1015000010BD01330A46042BCFD962B60022054B29
:101510001A7000F00BF810BD088800000000FF1FD3
:10152000880040006013FF1FC800400008B50F4B43
:10153000C31A0F4AA2FB03231B090B2B14D80D4A15
:1015400012783AB10C4A127812F0FF0F02D0FFF76E
:10155000A7FF08BD4FF0004222FA03F372B6074A14
:1015600011680B43136062B608BD00BF9803FF1FEC
:10157000398EE3386013FF1FC522FF1F5008FF1F7D
:10158000421E032A13D872B60C4B03EB8203586831
:1015900090B110B44468094B03EB82014C600188A0
:1015A00003EB42039A8A521A9A8262B601E0002043
:1015B00070475DF8044B704762B670476013FF1FB9
:1015C00008B50A4B1B7813F0FF0F0ED0084BD869F3
:1015D00020B1FFF7ABFF0022054BDA610320FFF7D4
:1015E000CFFF10B1FFF7A2FFF8E708BDC522FF1F2C
:1015F0006013FF1F08B5FFF7E3FF08BD08B50F4BE9
:10160000DB6953B90E4B1B7813F0FF0F0CD003208E
:10161000FFF7B6FF094BD86148B1084BDB694BB106
:101620005A881344187A08BD4FF0FF3008BD4FF0B8
:10163000FF3008BD4FF0FF3008BD00BF6013FF1F33
:10164000C522FF1F08B5FFF7D9FF08BD10B5134B22
:10165000DB6953B9124B1B7813F0FF0F18D003202E
:10166000FFF78EFF0D4BD861A8B10C4BD8694388AA
:101670005A1C03441C7A03889A4206D3FFF756FF8C
:101680000022064BDA61204610BD4280204610BD84
:101690004FF0FF3010BD4FF0FF3010BD6013FF1F43
:1016A000C522FF1F08B5FFF7D1FF08BD30B40F4DAD
:1016B00095F8203043F002040D4A02EBC40250605A
:1016C00095F821200AB1C82000E0882040EA0141B5
:1016D000074840F83410054982F0010281F82120C2
:1016E00083F0010381F8203030BC70476013FF1F86
:1016F0000000FF1F0F22014B1A707047C0200740E7
:1017000010B4344B1B7913F0200F26D0314BDB790A
:10171000D9B2314B93F8223001333F2B00D900234B
:101720002D4A92F82320D2B2934206D02A4AD018EA
:1017300080F82410D9B282F82210274A516E61B184
:1017400092F86820D2B2934201D39B1A01E09B1A0F
:101750004033272B01DD01230B701E4BDB78DBB2FE
:1017600013F0800F1FD01B4A127912F0800F1AD08D
:10177000194A92F86910C9B292F86820D2B291421F
:1017800003D16C21134AD1700DE00132272A00D910
:1017900000221148811891F86C10C9B20D4CE1710A
:1017A000D2B280F8682013F0400F0FD0094B1B799C
:1017B00013F0400F0AD0084B002283F89420D3F88E
:1017C000983003B11A702C22024BDA705DF8044B8A
:1017D000704700BF00A00E406013FF1F10B4414BC4
:1017E0001B7913F0300F36D072B63E4B9A7D02F063
:1017F000FF032AB93B4BDA7940225A7462B62AE0D9
:1018000062B6394A92F89C00C0B292F89D40E4B2A8
:10181000344AD279D1B2421C3F2A00D90022A242D6
:1018200004D03148104480F8A0101046013B13F05A
:10183000FF03EDD1C3B22C4A82F89C30D2F8E030DD
:101840004BB1A04201D3001B01E0001B4030272810
:1018500001DD01221A70234BDB78DBB213F0800F1D
:1018600029D0204A127912F0800F24D01E4A92F813
:10187000E440E4B292F8E520D2B2A2420FD00132A5
:101880003F2A00D90022174908791748104490F8D8
:10189000E800C0B2C871097DC9B20729EDD9D2B23A
:1018A000114981F8E5200F4A127912F0800F02D019
:1018B0007C210C4AD17013F0400F0FD0094B1B79DB
:1018C00013F0400F0AD0084B002283F82821D3F8E8
:1018D0002C3103B11A703C22024BDA705DF8044BD4
:1018E000704700BF00A006406013FF1F08B504F05A
:1018F000DDF808BD08B504F0A7F808BD044B188B47
:10190000DB691BB11A885B88D31A1844704700BF83
:101910006013FF1F08B5FFF7F1FF08BD72B60D4B4E
:101920001A68B2FA82F30B2B02D962B60020704714
:101930004FF00041D94022EA010206490A6062B62E
:1019400003EBC303DA000449881800238B5043607B
:10195000704700BF5008FF1F9803FF1F70B5B84BBA
:10196000B3F8383140F28162934219D8B3F5D06FA1
:1019700080F03981B3F5817F00F0058106D8802B96
:1019800000F0D980822B00F0E08053E140F2023277
:10199000934200F01081B3F5A06F00F04E8149E151
:1019A00042F22102934200F0888107D8B3F5086F14
:1019B00000F0B880B3F5106F0BD03BE142F221226A
:1019C000934200F02B8142F22132934200F03581A4
:1019D00030E19B4B93F83A219A4B1A7004240DE0A6
:1019E000994B53F8343013F0800F06D0964B03EB2D
:1019F000C40358680838FFF799FD0134132CEFDD54
:101A000000253BE08E4B03EB8503586803E04468F8
:101A1000FFF78CFD20460028F9D1894B03EB8503A5
:101A200000225A60C3F84021D3F8500103E0446813
:101A3000FFF77CFD20460028F9D1814B03EB85019F
:101A40000022C1F85021C1F8602103EB45018A82D0
:101A50002B4493F87031023B032B0ED8DFE803F0E0
:101A600002080208764B2B44002283F8702104E020
:101A7000734B2B44012283F870210135032DC1DD06
:101A800000226F4B1A700124704B714D45E05E1CB3
:101A90001B7805F8043B13F0080F31D0FFF73EFF29
:101AA000034648B1A2000833674901EB4410436084
:101AB000684841F8320008E0A3000021624A42F879
:101AC00033105F4A137801331370FFF727FF024684
:101AD00058B1A30043F0010308325B4901EBC30096
:101AE00042605D4A41F833200AE0A30043F001035D
:101AF0000021554A42F83310514A137801331370CC
:101B0000A30043F00200504A002142F8301043F095
:101B1000030342F8331001343346042CB7DD0023AD
:101B20001C46A3E0474B1B78454C84F83031012319
:101B300004F598749AE0424C002384F8303184F81C
:101B40003131022304F5987490E03D4BB3F83C31F9
:101B500003F07F03042B02DDFFF7CCFD70BD384A94
:101B6000002182F8301182F831113C4A12F82330FA
:101B700013F0020F78D0324C012384F83031022365
:101B800004F5987472E02E4BB3F83C3103F07F03F8
:101B9000042B03DC2A4AB2F83A2112B1FFF7AAFD5E
:101BA00070BD2E4911F8232022F0020201F82320F3
:101BB00000231C465AE0224BB3F83C3103F07F036C
:101BC000042B03DC1E4AB2F83A2112B1FFF792FD52
:101BD00070BD224911F8232042F0020201F82320AF
:101BE00000231C4642E01E4B5C68A4B1144AB2F8C4
:101BF0003A2119888A420CD11149B1F83C0159881F
:101C0000884206D1120A032A01D123782EE01B89CB
:101C10002CE00C33E8E7FFF76DFD70BD114B1A683F
:101C2000074BC3F8742193F83A2183F878210023F5
:101C30001C461BE0FFF75EFD70BD00231C4615E04F
:101C40006013FF1FC522FF1F0000FF1F0888000050
:101C5000C420074088004000C8004000C020074062
:101C60000C880000AC22FF1F0223144C144AB2F867
:101C70003E51AB4200D81D46402D01D82E4600E013
:101C8000402631462046FFF711FD3444AD1B01D1FB
:101C90003F2E12D9402D01D82E4600E04026314675
:101CA0002046FFF703FD3444AD1B01D13F2E04D97C
:101CB000034BC3F87C41A3F8805170BD9014FF1F03
:101CC0006013FF1F38B585083E4C04EBC50254F87D
:101CD0003530C3F383035268013B0C2B6DD8DFE82A
:101CE00003F01F1F6C6C6C6C6C6C426C6C6C0700AE
:101CF0001168354BC3F838115268C3F83C21334A98
:101D000044F835200022C3F87C212E490A618A61FB
:101D1000012483F82140FFF721FE2D4B1C704CE07D
:101D2000294BB3F8381142F22103994217D105E04B
:101D30001078087001330131013201E02549002398
:101D4000062BF5DD204BD3F88431862B03D10F22EF
:101D50001D4B83F88C2100210846FFF7A7FC1B4B85
:101D600044F8353029E0184BD3F87C41BCB1B3F8C6
:101D70008051402D00D9402529462046FFF796FC8A
:101D80002C44114AB2F880315B1B9BB2A2F880311F
:101D900013B9402D00D000240B4BC3F87C410A4BF3
:101DA000B3F83831B3F5A06F07D1074B002283F8A1
:101DB000392193F83A21084B1A700122044B1A700A
:101DC00038BD00BF0000FF1F6013FF1FC8004000A8
:101DD00094200740E414FF1F98200740F8B5964B65
:101DE0001C78E4B214F0040F21D0944B1B7813F04C
:101DF000FF0F19D0924B93F88C2102F0FF033AB1F8
:101E0000013BDBB28E4A82F88C310BB9FFF746FBFF
:101E10008C4B1A7802F0FF0332B1013BDBB2894AE6
:101E200013700BB903F0ECFD0422834B1A7014F00D
:101E3000080F00F0BF80844B1878C0B2030902D1AC
:101E4000FFF740FFB2E08508804C04EBC5067268DE
:101E5000A2F10801013BDFB210F0080F5FD0084685
:101E6000FFF764FB764B03EB8703D3F85021002A7E
:101E700034D05068724B03EB8701C1F8500102F176
:101E8000080171603B4493F87031032B1AD8DFE8E6
:101E900003F002080E146A4B3B44032183F87011CF
:101EA00010E0674B3B44022183F870110AE0644B59
:101EB0003B44052183F8701104E0614B3B4404214D
:101EC00083F8701116F0080F01D0C82300E08823B2
:101ED000128843EA024344F8353067E0584B3B44EC
:101EE00093F87031032B0FD8DFE803F0606002082D
:101EF000534B3B44002283F8702157E0504B3B4446
:101F0000012283F8702151E016F0080F01D003225E
:101F100000E002224A4B3B4483F8702146E054F82B
:101F200035301B0C22F8083C002B37D0002322F858
:101F3000063C42F8043C424B03EB87035B6823B941
:101F40003F4B03EB8703596005E03D4B03EB8703F1
:101F5000D3F8403159603A4B03EB8700C0F8401189
:101F600032F8081C03EB47039A8A0A449A82FFF767
:101F7000D5FC034650B10833736016F0080F01D04A
:101F8000334B00E0334B44F835300FE0002344F886
:101F900035302B4A13780133137007E016F0080F21
:101FA00001D02B4B00E02B4B44F835300822224B5C
:101FB0001A7014E714F0010F24D02748022303708D
:101FC0001F4A002182F82010204B224C1C6002F591
:101FD000C8755D609C6002F5E872DA60196199610C
:101FE0000D221E4B1A70FF231D4A1370083A1370FE
:101FF000183211700C3A13709F221A4B1A70012379
:102000000370F8BD14F0800F05D00D22134B1A7029
:102010008022403B1A7014F0020F06D0104A137849
:10202000DBB213700222044B1A7014F0100F02D0AE
:102030001022014B1A70F8BD80200740C522FF1FF7
:102040006013FF1FC422FF1F902007400000FF1FE6
:10205000C80040008800400094200740C02007408E
:102060008820074084200740704700BF08B503F070
:1020700045FC002307E01E4A002142F8331002EB22
:10208000C30251600133102BF5DD1A4A136843F483
:1020900080231360184A136843F040731360144B95
:1020A000C3F3072102F5C9229C321170C3F3074123
:1020B000143211701B0E04321370FF23343A137064
:1020C00008321370783A13700123843213700021A0
:1020D0006C3211707C3A13707022084B1A704FF4F6
:1020E0000012A3F231331A601022054B1A7008BD9A
:1020F0000000FF1F3480044000D8004035E400E0B9
:1021000008210740830043F00202244B03EBC20383
:102110000138032841D810B472B6214A024492F81B
:102120007021032A09D8DFE802F0210223050833D1
:1021300002221EE0083304221BE0194B03EB80034C
:10214000D3F850312BB9164B03EB8003C3F8501171
:1021500005E0134B03EB8003D3F860315960104B5B
:1021600003EB8000C0F8601162B614E0032200E0C7
:1021700005220B4C204480F8702101F108025A60BE
:1021800013F0080F01D0C82200E08822098842EA33
:1021900001421A6062B65DF8044B70470000FF1FF1
:1021A0006013FF1F013803280DD872B6074B03EBED
:1021B0008000D0F85031002001E001305B68002B36
:1021C000FBD162B670470020704700BF6013FF1F4D
:1021D000F8B504460F460122324B1A700E465AE0FB
:1021E000314B1B6873BB0025304B1B7813F0FF0F7E
:1021F00005D100222B4B1A704FF0FF30F8BD0420A0
:10220000FFF7D0FF07280AD80122264B1A70FFF7E4
:1022100085FB254B1860A8B90022224B1A700135A6
:102220004DF2E8039D4203D8214B93F8103233B1AD
:1022300001221F4B83F810224FF0FF30F8BD03F04E
:102240009BFBD1E700221A4B83F81022164B19682A
:102250004888C0F140039E4200D2334601F1080293
:10226000024418444880F61A04E0237813702B4681
:10227000013201345D1E002BF7D14B883F2B07D96B
:1022800040230B800420FFF73DFF0022064B1A601D
:102290000522084B1A70002EA2D10022014B1A70A1
:1022A0003846F8BDBD22FF1FC022FF1FC522FF1FF9
:1022B0006013FF1FC422FF1F00B583B002AB03F8F9
:1022C000010D01211846FFF783FF03B05DF804FB01
:1022D00008B50846FFF7F0FF08BD00BF08B508467F
:1022E0001146FFF775FF08BD054B93F82320D2B2C6
:1022F00083F822205B6E0BB100221A70704700BF7A
:102300006013FF1F0A4B93F82220D2B293F82330B8
:10231000DBB29A4209D001333F2B00D90023044A93
:10232000134493F82400C0B270474FF0FF30704759
:102330006013FF1F144B93F82220D2B293F823307E
:10234000DBB29A4219D010B401333F2B00D90023DD
:102350000D49C81890F82400C0B2DCB281F82340BF
:10236000496E69B1934201D8D31A01E0D31A4033C0
:102370001A2B05DC00230B7002E04FF0FF30704792
:102380005DF8044B704700BF6013FF1F074A92F8C7
:102390002230DBB292F82300C0B2834201D3181A74
:1023A00070471B1A03F14000704700BF6013FF1F06
:1023B000074A92F86930D8B292F86830DBB2984296
:1023C00003D31B1A03F1270070471B1A581E7047CE
:1023D0006013FF1F08B501E003F0CEFA034B93F83A
:1023E000943013F0FF0FF7D108BD00BF6013FF1F3B
:1023F00038B5244B1B6813F4806F41D0224BD3F8BF
:1024000098300BB101221A7005461F4B93F86940B2
:102410000134272C20D900241EE001F08BF840283D
:1024200016DC1A4B1B7913F0800F15D0164B93F85E
:1024300068300133272B00D900231349CA1892F8BA
:102440006C20D2B21148C271DBB281F8683003E06F
:10245000FF2801DD03F090FA0B4B93F86830DBB2F4
:102460009C42DAD0EDB2084B1A1982F86C50012266
:1024700083F89420E4B283F86940AC22034BDA700D
:1024800038BD00BF288004406013FF1F00A00E402D
:1024900038B505E0451C0078FFF7AAFF214628461D
:1024A0004C1E0029F6D138BD0D4B1B6813F4806F0C
:1024B00013D018280AD140F202320A4B1A600A4A95
:1024C000537B43F00103537301207047064A537B4B
:1024D00003F0FE035373002070470020704700BFD5
:1024E0002880044068D0044000A00E400D4B1B68BB
:1024F00013F4806F14D03F280ED810B50A4B03EBAD
:10250000C0039B6D094C6366012100F06FFC636E94
:1025100000221A70012010BD0020044B586670473D
:102520000020704728800440088800006013FF1FC7
:10253000704700BF10B40C4609B140F08000104B4A
:102540001B79984219D00F4A126812F4806F12D08A
:1025500003F07F03212B02D100220B4B1A600CB138
:10256000602300E0442300F07F02212A03D143F4DA
:102570004073054A1360024B18715DF8044B7047B5
:102580005008FF1F2880044060D0044010B5044666
:102590000A4B93F8943013F0FF0FF9D10121204634
:1025A00000F024FC0021204600F08CFC044800EBE5
:1025B000C400826D014BC3F8982010BD6013FF1F4B
:1025C0000888000008B5124B1B6813F4806F02D115
:1025D00008BD03F0D1F90F4B93F8943013F0FF0FBF
:1025E000F7D104220C4B1A6000220C4BDA7040F237
:1025F00003130B490B6004390B60064B83F8222050
:1026000083F823205B6E0BB101221A7008BD00BF56
:10261000288004406013FF1F88E100E000A00E4006
:1026200064D004401B4B9B7803F0EC0200F00303E2
:10263000134310F0040F01D043F01003154A9370B8
:1026400000F00F03042B03D1937943F040039371FF
:10265000104B5B7903F0EF0310F0100F01D043F043
:1026600010030C4A5371937903F0EF0310F0200F1D
:1026700001D043F01003074A937110F4807F07D014
:1026800013465278D2B2197841F0200119705A706D
:10269000704700BF00A00E40174A136843F48063E0
:1026A0001360164A002382F8223082F8233082F821
:1026B000693082F8683082F8943040F21331104A61
:1026C00011604FF45171043A1160C0F344310D4A66
:1026D0001170C0F34711517000F01F009072937099
:1026E00013742C23D3704022074B1A700422A3F2D8
:1026F0003A331A60704700BF288004406013FF1F00
:1027000064D0044000A00E4042E400E072B60C4BDE
:102710001B680C4A12680C49096862B611F0806F98
:1027200002D0322B00D90132C3F5EA33BF33074858
:10273000A0FB03139B094FF47A7000FB0230704733
:1027400018E000E0AC22FF1F04ED00E089888888D3
:10275000044B00221A6004490A60044A10601022E7
:102760001A60704714D0034004D0034000D00340E7
:102770001030024B43F82010704700BF0002FF1FCB
:10278000704700BFFEE700BF704700BF1022014B3B
:102790001A8070470020054008B50E4B1B6813F4E3
:1027A000802F01D0FFF71AFB0A4B1B6813F4806FD0
:1027B00001D0FFF713F8074B1B6813F4006F01D02B
:1027C00002F03CFF034B1B6813F4805FE5D002F07E
:1027D000C9FEE2E73480044008B5FFF7DDFF00BF23
:1027E00038B50546FFF792FF044625B938BD013DCF
:1027F0000AD004F57A74FFF789FF001BB0F57A7FE1
:10280000F5D203F0B9F8F6E738BD00BF70B5364B26
:102810004FF000621A604FF080521A604FF0005281
:102820001A604FF080421A604FF000421A60002098
:102830002E4B18604EF6FF710433196028232C4A82
:1028400013600832136008321360083213600832D4
:102850001360083213600832136008321360254D8C
:102860002B60254C236002F5002202F6D87213601B
:1028700008321360083213600832136008321360A4
:102880000832136009221D4E326006F58056043668
:102890003060043631600436336008363360143EED
:1028A000326006F5FE2604363060043631600436A8
:1028B000336008363360143E326006F580560436C5
:1028C00030600F4801602B6023600E4B1A6001F0EE
:1028D00015FB3220FFF784FFFFF7C8FB4FF4AF7002
:1028E000FFF77EFF70BD00BF04E100E004800340FD
:1028F0000C8003400C900B4014900B400080034070
:1029000008900B4000900B400D4B1B6813F4806F38
:1029100014D00C4BDA7802F0CB02DA7040225A74F1
:10292000DA7842F03402DA70074B1B78DBB2074AE0
:102930001370074B1B680BB100221A70704700BF61
:102940003480044000A00640FD13FF1FFC13FF1F4E
:102950004014FF1F094B1A78D2B2094B1B78DBB227
:102960009A4207D001333F2B00D90023054AD05C9F
:10297000C0B270474FF0FF30704700BFFC13FF1F1D
:10298000FD13FF1F0014FF1F134B1A78D2B2134B15
:102990001B78DBB29A4218D010B401333F2B00D918
:1029A00000230F49C85CC0B2D9B20C4C21700D494C
:1029B000096869B1934201D8D31A01E0D31A4033B0
:1029C0001A2B05DC00230B7002E04FF0FF3070473C
:1029D0005DF8044B704700BFFC13FF1FFD13FF1F82
:1029E0000014FF1F4014FF1F064B1B78DBB2064A82
:1029F0001078C0B2834201D3181A70471B1A03F132
:102A000040007047FC13FF1FFD13FF1F074B1B788F
:102A1000D8B2074B1B78DBB2984203D31B1A03F1E1
:102A20003F0070471B1A581E704700BF4414FF1F19
:102A30004514FF1F08B501E002F09EFF024B1B7812
:102A400013F0FF0FF8D108BD8814FF1F114B1B684E
:102A500013F4806F1BD0122804D140F202320E4BC7
:102A60001A600DE0142804D140F202320B4B1A60B8
:102A700006E00B4A537B03F0FE03537300207047BC
:102A8000074A537B43F00103537301207047002032
:102A9000704700BF348004400CA0044014C00440C0
:102AA00000A00640174B1B78834229D0164A1268B3
:102AB00012F4806F22D0152B06D01B2B08D053B9EF
:102AC0000022124B1A6006E00022114B1A6002E04D
:102AD0000022104B1A60152807D01B280AD068B9AD
:102AE00040F21332094B1A6008E040F21332084BEF
:102AF0001A6003E040F21332064B1A60014B187063
:102B0000704700BF7115FF1F3480044040A004408F
:102B100018C004403C90044010B40C4609B140F089
:102B200080001E4B93F8B431984234D01C4A12688E
:102B300012F4806F2CD003F07F03052B07D01A2BE3
:102B400009D0012B0AD10022164B1A6006E00022A0
:102B5000154B1A6002E00022144B1A600CB160237E
:102B600000E0442300F07F02052A08D01A2A0BD087
:102B7000012A0DD143F440730A4A136008E043F47C
:102B80004073094A136003E043F44073074A13603B
:102B9000024B83F8B4015DF8044B7047E408FF1F53
:102BA0003480044044A004401CC0044038900440D9
:102BB00008B5264B1B6813F4806F02D108BD02F0E4
:102BC000DBFE234B1B7813F0FF0FF8D14FF00042D0
:102BD000204B1A600022204BDA70204B1B78152BFB
:102BE00007D01B2B0AD06BB940F203121C4B1A60A2
:102BF00008E040F203121B4B1A6003E040F203129C
:102C0000194B1A60194B93F8B43103F07F03052B6D
:102C100008D01A2B0BD0012B0DD140F20312144B0C
:102C20001A6008E040F20312124B1A6003E040F20F
:102C30000312114B1A600023104A1370104A1370CC
:102C4000104B1B680BB101221A7008BD3480044080
:102C50008814FF1F80E100E000A006407115FF1FEF
:102C600040A0044018C004403C900440E408FF1F0A
:102C700044A004401CC0044038900440FC13FF1FD3
:102C8000FD13FF1F4014FF1F1B4B9B7803F0EC024A
:102C900000F00303134310F0040F01D043F01003BE
:102CA000154A937000F00F03042B03D1937943F07E
:102CB00040039371104B5B7903F0EF0310F0100F9A
:102CC00001D043F010030C4A5371937903F0EF03E2
:102CD00010F0200F01D043F01003074A937110F455
:102CE000807F07D013465278D2B2197841F0200184
:102CF00019705A70704700BF00A006402B4A136835
:102D000043F4806313600023294A1370294A137027
:102D1000294A1370294A1370294A1370294B1B78CA
:102D2000152B07D01B2B0AD06BB940F21332264B60
:102D30001A6008E040F21332244B1A6003E040F2BC
:102D40001332234B1A60234B93F8B431052B08D070
:102D50001A2B0BD0012B0DD14FF451721E4B1A6060
:102D600008E04FF451721D4B1A6003E04FF45172AA
:102D70001B4B1A60C0F344321A4B1A70C0F347124F
:102D80005A7000F01F00987204229A700221D974C0
:102D90005A7588221A743C22DA704022124B1A703B
:102DA0004FF00042A3F21F331A6070473480044092
:102DB000FC13FF1FFD13FF1F4414FF1F4514FF1FCB
:102DC0008814FF1F7115FF1F40A0044018C0044065
:102DD0003C900440E408FF1F44A004401CC0044091
:102DE0003890044000A006401FE400E03F2835D89A
:102DF0001B4B03EBC0035B68012901D0042914D1EC
:102E0000174A52F83020012082F880024FF4A27253
:102E10001A60042904D11A6842F020021A6070472F
:102E20001A6822F020021A6070470D4A52F83020CA
:102E3000002082F8800219B94FF480721A6070473E
:102E4000022903D140F203121A607047032903D10B
:102E50004FF481721A60704700221A60704700BFF9
:102E6000608800000D4B1B6813F4806F13D03F285F
:102E70000DD810B50A4B53F830300A4C23600121AD
:102E8000FFF7B4FF236800221A70012010BD002054
:102E9000044B186070470020704700BF3480044026
:102EA000608800004014FF1F3F2806D8044B53F8E9
:102EB000303093F80002C0B270470020704700BF66
:102EC000608800003F281ED80F4B53F8303093F82D
:102ED000802212F0FF0F08D019B1012283F8802060
:102EE0007047012283F800217047074B03EBC000B5
:102EF000436821B11A6842F003021A6070471A68E9
:102F000022F002021A6070476088000010B5044683
:102F1000094B1B7813F0FF0FFAD101212046FFF770
:102F200065FF00212046FFF7CDFF044B53F8342006
:102F3000034B1A6010BD00BF8814FF1F608800009B
:102F40008C14FF1F30B4DFED4A7AB4EEE70AF1EEDD
:102F500010FA03D5022447F6122201E00124454A63
:102F600000230FE022FA03F107EE901AF8EE677AD9
:102F70009FED417A67EE877AB4EEE70AF1EE10FA38
:102F800002DA0133062BEDD9DA4007EE902AF8EE8B
:102F9000677A87EE807AF6EE007A77EE677AFCEE53
:102FA000E77A17EE902AB2F5803F01D34FF6FF7211
:102FB000C11EC9B201290CD8304900200860304D2B
:102FC00028603048026003F0070343EAC4030B6043
:102FD0004BE0A0F11601C9B201290BD9092809D08B
:102FE0000A2807D0062805D0142803D0152801D0B8
:102FF00005280CD1244900200860244D286024486D
:10300000026003F0070343EAC4030B602DE0A0F164
:103010001D01C9B201290CD81E49002008601E4DAF
:1030200028601E48026003F0070343EAC4030B60F4
:103030001BE002280DD00E280BD0072809D0082845
:1030400007D0232805D0242803D0252801D02628FE
:103050000BD1134900200860124D2860124802600D
:1030600003F0070343EAC4030B6030BC704700BFA2
:10307000C0E1E440008793030000803700900340E4
:103080000490034008900340008003400480034004
:103090000880034000800B4004800B4008800B40F8
:1030A00000900B4004900B4008900B40034610B179
:1030B000102802D802E0012300E01023024A92F80F
:1030C000B50182F8B5317047E408FF1F38B50446F2
:1030D000A0F14203DBB2012B16D8934B93F8B53124
:1030E0000B2B03D8C3F10C03994003E00C2B01D93F
:1030F0000C3B1941422C03D1084600F077FE38BD45
:10310000084600F057FE38BD874B93F8B5510122B1
:10311000AA40002907DC0021FFF7D4FE0121204648
:10312000FFF764FE38BD0B468A4207D80121FFF73E
:10313000C9FE01212046FFF759FE38BDC21ED2B29A
:10314000012A06D8794A106800FB011222FA05F319
:1031500027E01D38C0B2012806D8754A106800FB68
:10316000011222FA05F31CE0022C0DD00E2C0BD01C
:10317000072C09D0082C07D0232C05D0242C03D0F1
:10318000252C01D0262C06D16A48006800FB0332AA
:1031900022FA05F305E0684A126802FB011222FADE
:1031A00005F3A21E242A00F2B380DFE812F07900B2
:1031B0005D0064005600410087008E0033003A0035
:1031C000B100B100B1008000B100B100B100B100A8
:1031D000B10048004F0025002C00B100B100B10043
:1031E000B100B1006B007200B100B100B100B100DC
:1031F00095009C00A300AA00504A136040F244428C
:103200004F4B1A6038BD4F4A136040F244424E4B58
:103210001A6038BD4D4A136040F244424C4B1A606C
:1032200038BD4C4A136040F244424B4B1A6038BDE3
:103230004A4A136040F24442494B1A6038BD494A39
:10324000136040F24442484B1A6038BD474A13604D
:1032500040F24442464B1A6038BD464A136040F281
:103260004442454B1A6038BD444A13604FF45172D2
:10327000434B1A6038BD434A13604FF45172424BBE
:103280001A6038BD414A13604FF45172404B1A60C6
:1032900038BD404A13604FF451723F4B1A6038BD3D
:1032A0003E4A136040F244423D4B1A6038BD3D4AED
:1032B000136040F244423C4B1A6038BD3B4A1360F5
:1032C00040F244423A4B1A6038BD3A4A136040F229
:1032D0004442394B1A6038BD384A13604FF451727A
:1032E000374B1A6038BD374A13604FF45172364B72
:1032F0001A6038BD354A13604FF45172344B1A606E
:1033000038BD344A13604FF45172334B1A6038BDE4
:103310007F29D4BF002101212046FFF7D3FD0121E1
:103320002046FFF763FD38BDE408FF1F0890034007
:1033300008800B4008900B40088003401080034039
:1033400004B004401880034008B0044020800340CB
:103350000CB004402880034010B00440308003408B
:1033600010C004403880034014C004404080034033
:1033700018C00440488003401CC004401090034023
:1033800030900440189003403490044010800B406B
:1033900048A0044018800B404CA0044010900B4003
:1033A00000C0044018900B4004C0044020900B4023
:1033B00008C0044028900B400CC0044030900B40E3
:1033C00020B0044038900B4024B0044040900B40A3
:1033D00028B0044048900B402CB0044070B53F2802
:1033E00068D8042A66D8DFE802F00709050B030055
:1033F0000B2306E00A2304E0082302E00C2300E08C
:1034000009230D461B0443F080762B4B03EBC003CE
:103410005C68236813F4E06F02D10021FFF7E6FC3B
:1034200026493B20FFF7A4F925493C20FFF7A0F9E6
:1034300024493D20FFF79CF923493E20FFF798F9E6
:1034400022493F20FFF794F904F14043A3F592236A
:103450007C2B19D904F14043A3F594237C2B15D977
:1034600004F14043A3F596237C2B11D904F140438A
:10347000A3F598237C2B0DD904F14043A3F59A239F
:103480007C2B09D9002208E0114A06E0114A04E029
:10349000114A02E0114A00E0114A5AB1C4F3840112
:1034A00072B6236823F47023236042F8215033431B
:1034B000236062B670BD00BF60880000F906FF1F80
:1034C0002907FF1F5907FF1F8D07FF1FC107FF1F98
:1034D000E408FF1F5C09FF1FBC09FF1FEC09FF1F69
:1034E0002C0AFF1F70B40024B0FBF2F302FB13039D
:1034F00026460D19092B02D83033DBB201E03733F1
:10350000DBB22B70B0FBF2F008B10134ECE701360E
:1035100000238B5505E0CA5C085DC8540A55013389
:10352000013C9C42F7DC084670BC704708B505F0CA
:10353000D3F808BDEFF31383ABB9EFF31083ABB946
:10354000EFF3058323B10F2B05D9094A985C03E0FB
:103550004FF4807000E00020EFF311833BB19842FC
:1035600005D9184670474FF0FF307047002070476C
:10357000F0E300E070B54618254B1B6813F4806F2C
:1035800045D00546234B1B68002B3BD001221A7007
:1035900038E0214B1C7801343F2C00D900241F4B0C
:1035A0001B78DBB29C4223D1BC221D4BDA70FFF7A3
:1035B000C1FF402813DC1A4B1B7913F0800F12D087
:1035C000164B1B7801333F2B00D90023154AD25CE0
:1035D000D2B21349CA71DBB2104A137003E0FF285C
:1035E00001DD02F0C9F90D4B1B78DBB29C42DED045
:1035F0002A780C4B1A5501220B4B1A70E4B2064B79
:103600001C701544B542C4D3BC22054BDA7070BDA2
:10361000348004408C14FF1F4414FF1F4514FF1F07
:1036200000A006404814FF1F8814FF1F38B5204B28
:103630001B6813F4806F39D01E4B1B680BB101223D
:103640001A7005461C4B1C7801343F2C1DD90024F0
:103650001BE0FFF76FFF402813DC184B1B7913F0BA
:10366000800F12D0164B1B7801333F2B00D900235B
:10367000144AD25CD2B21149CA71DBB2104A13703B
:1036800003E0FF2801DD02F077F90D4B1B78DBB278
:103690009C42DED0EDB20B4B1D5501220A4B1A7035
:1036A000E4B2054B1C70BC22044BDA7038BD00BF7D
:1036B000348004408C14FF1F4414FF1F00A00640F8
:1036C0004514FF1F4814FF1F8814FF1FFEE700BFAB
:1036D00008B50C4BD3F8B83188B16A461818A2F572
:1036E0000052904206D302F055FB0C2303604FF0CA
:1036F000FF3008BD034AC2F8B801184608BD184695
:1037000008BD00BFE408FF1F08B501F07FFD01F010
:1037100011FD02F031F9FAE7394B1B6813F0800F05
:10372000FAD1384B1B6813F0800FF5D172B6364BC7
:103730001B78002B62D030B4344B1D6804331C68F6
:10374000043318680433196804331A6804331B6897
:103750002C44204401440A441344C3F34E0343F46D
:1037600000432B4A13602B4B1D6804331C68043341
:1037700018680433196804331A6804331B682C442E
:10378000204401440A441344C3F34E0343F400436A
:10379000214A1360214B1D6804331C6804331868E8
:1037A0000433196804331A6804331B682C4420441A
:1037B00001440A441344C3F34E0343F40043184A3C
:1037C0001360184B1D6804331C68043318680433F5
:1037D000196804331A6804331B682C4420440144DC
:1037E0000A441344C3F34E0343F400430E4A1360E8
:1037F0000022054B1A7062B630BC704762B6704743
:1038000024B0034024B00B407815FF1F38B00340AC
:103810002CB0034058B0034030B0034038B00B40E8
:103820002CB00B4058B00B4030B00B40F0B58BB013
:1038300022B903681B68C9B2984732E01646012ACC
:1038400000D10A2621B930228DF82520212419E043
:1038500021243746B1FBF6F206FB1212D2B22546FE
:10386000092A02D83032D2B201E03732D2B20DF199
:10387000280E754405F8242CB1FBF7F111B1013C79
:10388000E4B2E6E733B1013CE4B20AAB23442D22B3
:1038900003F8242C03685B68C4F1220201A92144C7
:1038A00098470BB0F0BD00BFF8B505460024561E82
:1038B0004AB12B681B684F1C097828469847044476
:1038C00032463946F3E72046F8BD00BF08B5036825
:1038D0001B68C9B2984708BD08B503681B68C9B220
:1038E000984708BD08B503681B68C9B2984708BD6A
:1038F00008B503681B68C9B2984708BD0A4600238B
:10390000082B01DC0133FBE784B001AB1068516880
:1039100003C3127A1A7003230020082B06DC04AAC2
:103920001A4412F80C2C50400133F6E704B07047EB
:103930000A4600230A2B01DC0133FBE784B001AB0C
:103940001068516803C31189927A19809A70032311
:1039500000200A2B06DC04AA1A4412F80C2C504052
:103960000133F6E704B0704710B400231C46312B36
:103970000DD800EB031292F830218A4205D100EBFA
:1039800003120024C2F82C4101240133EFE7204642
:103990005DF8044B704700BFF0B58DB004460D468E
:1039A0004B78072B00F20481DFE813F008000C00CD
:1039B0003B006E0081009B00A800EF00C978FFF774
:1039C000D3FFF5E0C978FFF7CFFF0021D4F85424E6
:1039D000D4F85004121A28327F4BA3FB02635B0910
:1039E00003EB8303DE00931B994217D208447A4B02
:1039F000A3FB00235B0903EB8303DA00831A2A7914
:103A000004EB431090F85804121A12F0FF0F03D180
:103A10000133C4F8503401E00131D7E72B79A361B9
:103A2000C6E0B1F80300A0F5004003F069F8CDE965
:103A30000601B5F80500A0F5004003F061F8CDE9F6
:103A40000801B5F8070003F05BF85BA3D3E9002396
:103A500003F0E6F95AA3D3E9002302F003FFCDE90E
:103A60000A010025E36C9D4280F0A28005F1080365
:103A700004EB83035B689DED060B9DED081B9DED3C
:103A80000A2B98470135EDE7CB7804938B88059393
:103A90000025A36F9D4280F08B8005F1140354F83C
:103AA000232004AB93E8030090470135F1E7CB787E
:103AB000DA098DF80C20C3F380128DF80D20C3F3C2
:103AC00040138DF80E300025D4F8A4309D426FD2FB
:103AD00005F11E0304EB83035B68039898470135E7
:103AE000F2E70025D4F8FC309D4261D205F13403A1
:103AF00004EB83035B6898470135F3E7B1F80300F3
:103B000002F0FEFF30A3D3E9002303F089F930A3CC
:103B1000D3E9002302F0A6FE06460F460025D4F89E
:103B20005424D4F85014521A28322B4BA3FB02030E
:103B30005B0903EB8303D800131A9D4217D2294473
:103B4000254BA3FB01235B0903EB8303DA008B1AEC
:103B5000013304EB431303F58A63D3E900233046B2
:103B6000394602F081FE06460F460135D7E70025AB
:103B7000D4F8D0309D421BD205F12A0354F82330EB
:103B800047EC106B98470135F2E7CB7801930B793E
:103B900002930025D4F828319D4209D205F1400353
:103BA00054F8232001AB93E8030090470135F1E777
:103BB0000DB0F0BDAFF30080000000C0264C904077
:103BC000000000407A6A3F4000000060305FC4405F
:103BD00000000060FB210940CDCCCCCC82B010B4F9
:103BE00085B0044606A880E80C00009101AB07C828
:103BF00003C323F8022B120C1A700023312B11D8A7
:103C000004EB0312D2F82C2152B904EB031404F58F
:103C1000967404AB13E90F0084E80F00012302E05F
:103C20000133EBE700230BB1002000E0012005B0D9
:103C30005DF8044B02B0704730B587B004460D46BE
:103C400000230A2B06DC06AA1A44002102F80C1CE9
:103C50000133F6E703AB2868696803C32989AA7AA8
:103C600019809A7029462046FFF762FE8DF80E00F3
:103C7000E36906AD05F80C3D0133E36163685B68F9
:103C80000B222946201D9847084B1B680293029976
:103C9000059BADF800301B0C8DF8023095E80C0048
:103CA0002046FFF79BFF07B030BD00BFAC22FF1FCF
:103CB00008B50846FEF79CFB012008BD08B508467C
:103CC000FEF796FB012008BD10B5084614461146C4
:103CD000FEF7DEFB204610BD38B50D46084602F063
:103CE0004FFD044601462846FEF7D2FB204638BD6C
:103CF00008B5FEF75DFB08BD08B5FEF7F5FA08BD8F
:103D000008B5FEF767FB08BD08B5FEF713FB08BD55
:103D100008B5FEF7F7FA08BD08B5FEF737FB08BD92
:103D200008B50846FEF7C0FB003018BF012008BDEB
:103D300008B50846FEF7DAFB003018BF012008BDC1
:103D400008B508461146FEF7F5FB08BD704700BFF1
:103D500008B50846FEF71AFC08BD00BF08B5FEF717
:103D600031FC08BD10B51446054B03EB5100B0FB08
:103D7000F1F0FEF791FC2046FEF754FC10BD00BFA9
:103D8000000E270708B5044B03EB5100B0FBF1F020
:103D9000FEF782FC08BD00BF000E270710B50446E1
:103DA00000F010FC40F658112046FFF7BFFB2046FC
:103DB00010BD00BF0A4A136843F400531360C022C9
:103DC000084B1A70002803DBB0F5805F02DA03E0CD
:103DD000002001E040F6FF7000B2034B18807047EE
:103DE0002C80044021D00C4000D00C400A4A1368BB
:103DF00043F480531360C022084B1A70002803DB81
:103E0000B0F5805F02DA03E0002001E040F6FF70C9
:103E100000B2034B188070472C80044021C00C4036
:103E200000C00C40472856D810B52D4B1C5CFF2C09
:103E300053D02C4B1B780BB1FFF76EFC14F0800FA6
:103E40001CD172B6284B1C600122264B5A7062B6F8
:103E500072B6254B1B6813F0800F06D0234B1868F1
:103E60000022204B5A7062B610BD1E4B5B7813F0D7
:103E7000FF0FE7D062B601F07FFDE9E772B614F0FC
:103E8000400F05D01A4A136823F01003136004E0B2
:103E9000174A136843F01003136004F03F03154AF8
:103EA000136001220F4B9A7062B672B6114B1B68F9
:103EB00013F0800F06D0104B18680022094B9A703F
:103EC00062B610BD074B9B7813F0FF0FD7D062B6D8
:103ED00001F052FDE9E700207047002010BD00BF4F
:103EE000608A00007815FF1F00B0034010B0034047
:103EF0000CB00B4000B00B4010B00B406022154BD3
:103F00001A70E12201331A703922A3F56333A3F248
:103F1000F9331A60132310490B6001F5FF2101F2F8
:103F2000FC710A600D4A13600023A2F5FF22A2F281
:103F3000EC72136002F5002213608423A2F5FF22C5
:103F4000A2F2FC72136002F5002213600122044BFE
:103F50001A707047004007400CB003400CB00B4093
:103F60007815FF1F2DE9F04F85B0824616461F4693
:103F70009DF838401046194603F0C2F840B1DAF80F
:103F800000305B6803225E49504698478346AEE0A6
:103F900027F000494FF0FF325A4B3046494603F0B4
:103FA000AFF848B94FF0FF32564B3046494603F060
:103FB00089F808B9012300E0002343B1DAF80030A2
:103FC0005B68032250495046984783468FE04FF084
:103FD00060424E4B3046394603F088F840B1DAF87B
:103FE00000305B6803224A495046984783467EE08A
:103FF0004FF06042474B3046394603F059F840B124
:10400000DAF800305B6803224149504698478346FE
:104010006DE0002200233046394603F049F828B10C
:1040200007F100431F464FF0010801E04FF0000880
:10403000002500203849A54207D22FA3D3E9002349
:1040400002F0C4FD0135EDB2F5E702460B463046FD
:10405000394602F009FC06460F4603F08FF8054684
:1040600002F03EFD02460B463046394602F0FAFBAE
:1040700006460F4643460A2229465046FFF7D6FB1E
:104080008346A4B32E238DF800300F2C00D90F24C3
:10409000012504F1FF385FFA88F80CB300221F4BAA
:1040A0003046394602F092FD06460F4603F066F8A8
:1040B000C0B205F101095FFA89F904AB1D4400F1B2
:1040C000300305F8103C02F01BFD02460B4630465B
:1040D000394602F0C7FB06460F4644464D46D8E730
:1040E000DAF800305B682A466946504698475846D9
:1040F00005B0BDE8F08F00BF000000A09999B93F5E
:10410000588B0000FFFFEF7F5C8B0000FFFFEF414B
:10411000608B0000FFFFEFC10000E03F0000244083
:1041200010B5144603685B689847204610BD00BF71
:1041300000B583B0054B1B88ADF8043003685B689D
:10414000022201A9984703B05DF804FBA88A000089
:1041500008B5002902DA49422D2300E000230A2293
:10416000FFF764FB08BD00BF704700BF704700BF8A
:1041700001281ED14FF6FF7399421AD110B584B0B1
:1041800000238DF804304FF47A7202928DF80C30CF
:1041900004A9084B41F8103D074C4FF4E13220468A
:1041A00000F04AFA054A0649204601F0E7FD04B04E
:1041B00010BD7047F08A00008015FF1FF407FF1F35
:1041C000C545000008B50023312B06D800EB0312CB
:1041D0000021C2F82C110133F6E70023C0F8503457
:1041E000C0F8543443618361C36180F820300123F7
:1041F00080F82130FEF7F8FB10B1FEF7C5FBF9E7B8
:1042000008BD00BF30B587B00546FEF7EDFB0028BE
:1042100050D0FEF7E9FB08284CDD0024082C07DC11
:10422000FEF7B2FB06AB234403F80C0C0134F5E7B0
:1042300003A92846FFF762FB9DF80E30984239D15A
:1042400000238DF801309DF80C308DF803306B6839
:104250005B680B226946281D984795F82130F3B911
:104260009DF80D30052B1AD09DF80C3095F82020C4
:104270009A1A02F58071104B0B40002B03DA013BB8
:1042800063F0FF030133002B14DD0B4B1340002BB5
:1042900003DA013B63F0FF0301337F2B0ADC0023C9
:1042A00085F8213006A911F80C3D85F82030284604
:1042B000FFF772FB07B030BDFF000080D0F8283157
:1042C000092B02D94FF0FF30704703F1400240F84C
:1042D00022100133C0F82831704700BFD0F8FC30FD
:1042E000092B09D803F1340200EB8202516001333B
:1042F000C0F8FC30002070474FF0FF30704700BF1F
:10430000D0F8D030092B08D803F12A0240F8221047
:104310000133C0F8D030002070474FF0FF307047B5
:10432000C36C092B08D803F1080200EB820251602C
:104330000133C364002070474FF0FF30704700BF67
:10434000D0F8A430092B09D803F11E0200EB820239
:1043500051600133C0F8A430002070474FF0FF30A7
:10436000704700BF836F092B07D803F1140240F890
:10437000221001338367002070474FF0FF307047F1
:104380002DE9F04F2DED028B8DB005460F4692467C
:10439000DDE9188943695A1C694B1340002B03DA85
:1043A000013B63F0FF0301336B615FFA83FB8DF820
:1043B00000B0384602F0A4FBCDE90201504602F0FD
:1043C0009FFBCDE90401CDE906890026D5F85444C8
:1043D000D5F85024A11A28315A4BA3FB01035B09DD
:1043E00003EB8303D8000B1A9E4237D23244554C5C
:1043F000A4FB0234640904EB8404E300D41A04F13E
:10440000230305EB431393ED008B384602F078FB52
:1044100053EC182B02F028FA02F088FE074605EB51
:10442000441303F58D6393ED008B504602F068FB57
:1044300053EC182B02F018FA02F078FE8246013491
:1044400005EB441404F58A64D4E900234046494648
:1044500002F00AFA804689460136B7E705EB4416B2
:1044600006F58B66EE46BEE80F000FC69EE80F000D
:1044700086E80F000134334BA3FB04235B0903EBF5
:104480008303DA00A31AC5F8543407F500470AF588
:10449000004A27A3D3E900234046494602F0E4F945
:1044A00025A3D3E9002302F091FB80468946002230
:1044B000002302F011FE40B10022234B4046494642
:1044C00002F0D2F902F032FE07E000221E4B404615
:1044D000494602F0C7F902F029FEB7F5803F18D22D
:1044E000BAF5803F18D2B0F5803F18D201238DF87D
:1044F0002530AB698DF827308DF828B0ADF82970DC
:10450000ADF82BA0ADF82D0009A92846FFF794FBC4
:1045100007E06FF0090004E06FF00A0001E06FF0BF
:104520000B000DB0BDEC028BBDE8F08FAFF3008047
:1045300000000060FB21094000000060305FC440C3
:10454000FF000080CDCCCCCC0000E03F00B585B0B2
:1045500003238DF80530FF290AD8B2F5803F0AD22F
:104560008DF80710ADF8082001A9FFF765FB04E0FE
:104570006FF0090001E06FF00A0005B05DF804FB80
:1045800000B585B0C90149B241EA821251B241EA8F
:10459000431359B29DF8183041EA03135BB29DF8FA
:1045A0001C2043EAC2039DF8202043EA8203022232
:1045B0008DF805208DF8073001A9FFF73DFB05B008
:1045C0005DF804FB014B0360704700BF6C8B00007B
:1045D0008160704738B5054600238370FDF7D6FE2D
:1045E000AB78042808DC092B06D80133AB7049F6F8
:1045F0004043013BFDD1F1E7FDF7C8FE002817DD80
:10460000FDF798FEC0B2E870FF2814BF0024012413
:10461000FDF778FEFF28EFD1002CEDD0FDF78AFEE4
:10462000FDF788FEFDF786FEFDF784FEA86238BD23
:104630004FF0FF3038BD00BF38B505461C4B036056
:104640001C4B43600B7903721B4B43608B68C36048
:104650000B7B0374194B4360002444618461C46183
:1046600080F82040012380F82130C4648467C0F8BA
:10467000A440C0F8D040C0F8FC40C0F82841104B1E
:1046800003EB5200B0FBF2F0FEF738FB2346312B70
:1046900006D805EB03120021C2F82C110133F6E70E
:1046A0000023C5F85034C5F85434284638BD00BF3F
:1046B0006C8B0000B48A0000CC8A0000F08A0000F5
:1046C000001C4E0E70B505460E4601F12C03DB436F
:1046D000037001214078FEF7F5FB364C23681B6818
:1046E000FF212046984723681B68FF2120469847F2
:1046F0003046FDF77DFE23681B680421204698475D
:1047000023681B6802212046984723681B682421E0
:104710002046984723681B6802212046984728783E
:10472000FDF766FE4FF47A53013BFDD10021687816
:10473000FEF7C8FB4FF0FF33EB610023AB70FDF7D2
:1047400025FEAB78062808DC092B06D80133AB70B0
:1047500049F64043013BFDD1F1E7FDF717FE002884
:1047600025DDFDF7E7FDC0B2E870FF2814BF002487
:104770000124FDF7C7FDFF28EFD1002CEDD0FDF798
:10478000D9FDFDF7D7FDFDF7D5FDFDF7D3FDA862F7
:1047900008B1404270BDFDF7CDFD6871FDF7CAFD5F
:1047A000C0B228716B7903EB0020E861D5E7E869B6
:1047B00070BD00BFA00AFF1F2DE9F04105460F465E
:1047C000002A42D1C3F30728DEB2731843442833CA
:1047D000DB43037001214078FEF774FB3E4C2368F5
:1047E0001B68FF212046984723681B68FF2120464D
:1047F00098473846FDF7FCFD23681B6805212046D5
:10480000984723681B6803212046984723681B6844
:1048100020212046984723681B6831462046984748
:1048200023681B684146204698472878FDF7E0FD3D
:104830004FF47A53013BFDD100216878FEF742FB2B
:104840002846FFF7C7FEBDE8F0814FEA232808F1AC
:1048500004085FFA88F8DEB28B1943442833DB433F
:10486000037001214078FEF72DFB1B4C23681B6869
:10487000FF212046984723681B68FF212046984760
:104880003846FDF7B5FD23681B680521204698478B
:1048900023681B6803212046984723681B68202152
:1048A0002046984723681B6831462046984723686E
:1048B0001B684146204698472878FDF799FD4FF43C
:1048C0007A53013BFDD100216878FEF7FBFA2846B8
:1048D000FFF780FEBDE8F081A00AFF1F70B5054616
:1048E0000E46002A3DD001F11003DB430370012185
:1048F0004078FEF7E7FA3C4C23681B68FF2120460E
:10490000984723681B68FF21204698473046FDF7EB
:104910006FFD23681B6805212046984723681B68A4
:1049200003212046984723681B68082120469847A2
:1049300023681B6800212046984723681B680021D4
:10494000204698472878FDF753FD4FF47A53013BF2
:10495000FDD100216878FEF7B5FA2846FFF73AFE48
:1049600070BD00231A46FFF727FF06F11203DB4351
:104970002B7001216878FEF7A5FA1B4C23681B6891
:10498000FF212046984723681B68FF21204698474F
:104990003046FDF72DFD23681B680521204698470A
:1049A00023681B6803212046984723681B68082159
:1049B0002046984723681B68FF21204698472368B4
:1049C0001B680321204698472878FDF711FD4FF416
:1049D0007A53013BFDD100216878FEF773FA28462F
:1049E000FFF7F8FD70BD00BFA00AFF1F2DE9F047DB
:1049F00005468A46C2F30729D7B2C3F30728DEB2B9
:104A000079184944314441442831C9430170012196
:104A10004078FEF757FA204C23681B68FF21204698
:104A2000984723681B68FF21204698475046FDF7AA
:104A3000DFFC23681B6807212046984723681B6812
:104A400003212046984723681B681E21204698476B
:104A500023681B6839462046984723681B684946E7
:104A60002046984723681B683146204698472368AC
:104A70001B684146204698472878FDF7B9FC4FF45B
:104A80007A53013BFDD100216878FEF71BFA2846D6
:104A9000FFF7A0FDBDE8F087A00AFF1F2DE9F04158
:104AA00005468846C2F30727D6B273183B4426331F
:104AB000DB43037001214078FEF704FA1B4C2368A6
:104AC0001B68FF212046984723681B68FF2120466A
:104AD00098474046FDF78CFC23681B68052120465B
:104AE000984723681B6803212046984723681B6862
:104AF0001E212046984723681B6831462046984768
:104B000023681B683946204698472878FDF770FCD3
:104B10004FF47A53013BFDD100216878FEF7D2F9BA
:104B20002846FFF757FDBDE8F08100BFA00AFF1F30
:104B300010B50C46427001211046FEF757F90448A3
:104B400000EB5400B0FBF4F0FDF7A6FD10BD00BF74
:104B5000000E270782B0034B1B680193019B436043
:104B600002B07047AC22FF1F82B00D4B1B68009350
:104B7000009B41685B1A826893420DD30AB10378A7
:104B800033B1074B1B680193019B4360012004E094
:104B90000A444260012000E0002002B0704700BFDC
:104BA000AC22FF1F10B5044600230370FFF710FD71
:104BB0002046FFF7CFFF204610BD00BF01F00F01D8
:104BC000014B1944087C7047648B000070B50446A3
:104BD0000E460025072D20D801212078FEF706F982
:104BE000204600F067F916F0010F04D0002160782C
:104BF000FEF7FCF803E001216078FEF7F7F82046A5
:104C000000F058F900212078FEF7F0F8204600F077
:104C100051F976080135EDB2DCE701212078FEF785
:104C2000E5F800216078FEF7E1F8204600F042F94F
:104C300000212078FEF7DAF8204600F03BF9607892
:104C4000FEF732F9054618B901216078FEF7CEF873
:104C5000204600F02FF901212078FEF7C7F8204602
:104C600000F028F9281C18BF012070BD10B50446BB
:104C700001214078FEF7BAF8204600F01BF9002128
:104C80002078FEF7B3F8204600F014F90021607890
:104C9000FEF7ACF8204600F00DF910BD10B5044643
:104CA00001214078FEF7A2F8204600F003F910BD7C
:104CB0002DE9F04387B059EC118B57EC126B51EC96
:104CC000100B02F07BFA05464046494602F076FAA0
:104CD00004463046394602F071FA0A4B9A68526827
:104CE00015609A68526854609B685B68DFED067ACD
:104CF00007EE100A67EE277AC3ED027A07B0BDE827
:104D0000F08300BFD81EFF1F0000394383685A6834
:104D1000002313608268526853608268526893600F
:104D2000704700BF00B583B002AB03E90300019AEE
:104D300000990348FCF7F6F903B05DF804FB00BFE7
:104D4000E41EFF1F2DE9704382B059EC108B10EE6A
:104D5000100A494602F032FA164E00EE100A06F525
:104D6000B070FCF7E9F8144C23685B682022134903
:104D7000204698470225009542464B462046FFF7BD
:104D8000F1F82046FFF7D4F923685B680F220C493D
:104D900020469847D6F8640101F0C4FE009502460B
:104DA0000B462046FFF7DEF82046FFF7C1F902B0B8
:104DB000BDE87083D81EFF1FB00AFF1F1C8C0000C7
:104DC000408C000000B583B002AB03E90300019AF8
:104DD00000990348FCF7BAF903B05DF804FB00BF83
:104DE000E41EFF1F10B582B002AB03E903000D4CB7
:104DF00023685B680E220C4920469847009920469C
:104E0000FFF7A6F923685B681422084920469847F3
:104E100001992046FFF79CF92046FFF789F902B077
:104E200010BD00BFB00AFF1F508C0000608C000056
:104E300010B582B00190134C23685B680E221249B2
:104E4000204698479DF804102046FFF781F9236813
:104E50005B680F220D49204698479DF805102046B3
:104E6000FFF776F923685B680F22094920469847C7
:104E70009DF806102046FFF76BF92046FFF758F91A
:104E800002B010BDB00AFF1F788C0000888C0000B3
:104E9000988C000000B583B0C0F30743C0F307222D
:104EA000C1B20348FCF7C6F903B05DF804FB00BFCC
:104EB000E41EFF1F4FF4FA63013BFDD1704700BFB2
:104EC000F8B505460F4616461C46FFF7E7FE40219B
:104ED0002846FFF77BFE2846FFF7C8FE2846FFF767
:104EE000DDFE04F003014039C9B22846FFF76EFE2B
:104EF0000024B44206D2395D2846FFF767FE01342C
:104F0000E4B2F6E72846FFF7B1FE2846FFF7C6FEF3
:104F1000A97801F00F0141F080012846FFF756FE05
:104F20002846FFF7A3FEF8BD2DE9F04F85B00090AD
:104F30008946154601939DF838B000244FF0010AC8
:104F4000032C2ADC2646C4F103031A4A52F82380B4
:104F500099FBF8F75FB9019B23B9BAF1000F01D0B3
:104F6000032C0DD1F9B20098FFF728FE09E0F9B241
:104F70000098FFF723FE07FB18994FF0000A00E0A6
:104F8000002025F07F0318436D00EDB204AB1E44F2
:104F900006F8040C013464B2D2E7CBF104019DF8A9
:104FA0003C305A4603A801440098FFF789FF05B03A
:104FB000BDE8F08FE48B000001F007010AB108237F
:104FC00000E0002319438170704700BF10B504460C
:104FD0000846217062700021FDF708FF002160780B
:104FE000FDF704FF00212078FDF76CFF00216078B9
:104FF000FDF768FF204610BD704700BF10B444881D
:10500000038803FB04F40023A34206DA426802EBA0
:105010008302002111600133F6E75DF8044B70470D
:1050200010B5044672B60023436000234361036158
:10503000C3608068FFF7E2FFA069FFF7DFFFE06968
:10504000FFF7DCFF206AFFF7D9FF606AFFF7D6FFA2
:1050500062B610BD10B5084C04F5C470FBF7E4FF50
:1050600004F5B070FFF7DCFF2046FCF7D5F90348E4
:10507000FFF7A8F810BD00BFD81EFF1F8015FF1F47
:1050800070B505460E46082003F01EFB044606FBDD
:1050900005F0800003F018FB04B148B9084C094939
:1050A0002046FBF753FF2046FFF742F8002070BD73
:1050B0006680258060602046FFF7A0FF204670BD17
:1050C000B00AFF1FA88C000008B52DED048BB0EED0
:1050D000409AF0EE608AB0EE418A01210320FFF78A
:1050E000CFFF426882ED009A4268C2ED008A4368B1
:1050F00083ED008ABDEC048B08BD00BF012815D1EB
:105100004FF6FF73994211D110B5094C322104F5C5
:10511000EE70FFF747FDC82104F5F470FFF742FD7C
:105120004FF4FA716018FFF73DFD10BD704700BFE6
:10513000D81EFF1F10B52DED028B84B02C4B1B68C1
:105140000293029B2B4AD2F800229B1A40F2DB52B8
:1051500093420FD9274C94F8041281F0010184F88E
:1051600004120D20FDF7AEFE214B1B680393039B39
:10517000C4F800322048FFF745F82048FFF7F4FC58
:1051800058B11C4C04F5B070FBF7EEFE2046FCF75E
:105190004DF904F5C470FBF775FF1948FFF7E4FCFF
:1051A000D8B1144CD4F868315B6893ED008ABDEE39
:1051B000C88AD3ED018AFDEEE88A986801F0B2FC56
:1051C000CDE9000118EE902A18EE101A0A48FFF7F0
:1051D000D7F804F5B070FFF799FD0A48FFF7C4FC53
:1051E00010B10948FCF754F804B0BDEC028B10BDB7
:1051F000AC22FF1FD81EFF1F8015FF1FB420FF1F0A
:10520000C020FF1FCC20FF1FE41EFF1F30B583B05E
:10521000FBF74EFE254C04F5C470FBF737FF04F195
:105220000C00FCF791F8224D22492846FBF78EFE30
:105230002846FEF77DFF00F007FC04F5EE70FFF74F
:1052400089FC1D4B1B680193019BC4F800320023AD
:1052500084F8043201210D20FDF7C8FD94F80412F2
:105260000D20FDF72FFE154C15492046FFF768F875
:1052700014492046FFF764F813492046FFF772F8F7
:1052800012492046FFF76EF811492046FFF748F80B
:1052900010492046FFF722F80F492046FFF730F863
:1052A0000E492046FFF70AF803B030BDD81EFF1F95
:1052B000B00AFF1FCC8C0000AC22FF1F8015FF1F1F
:1052C000314E0000954E0000E54D0000C54D000038
:1052D000B14C000055500000454D0000254D000028
:1052E000704700BF704700BF01280ED14FF6FF7313
:1052F00099420AD110B5054C2046FBF739FE044A05
:105300000449204600F03AFD10BD70473820FF1FC9
:10531000F407FF1F6D04000010B504460B20FDF7D5
:10532000C3FD18B16369013B636110BD636901335B
:10533000636110BD10B504460C20FDF7B5FD18B132
:1053400063690133636110BD6369013B636110BD33
:1053500010B504461A20FDF7A7FD18B12369013BDB
:10536000236110BD23690133236110BD10B50446CC
:105370001B20FDF799FD18B123690133236110BD8E
:105380002369013B236110BD10B504461820FDF7C9
:105390008BFD18B1E368013BE36010BDE3680133A6
:1053A000E36010BD10B504461920FDF77DFD18B16E
:1053B000E3680133E36010BDE368013BE36010BDC7
:1053C00010B4284B1B7913F0200F12D0254BDB793A
:1053D000D9B2254B1B7801333F2B00D90023224A39
:1053E0005278D2B2934204D01F4AD0180171DBB276
:1053F00013701C4BDB78DBB213F0800F1FD0194AFF
:10540000127912F0800F1AD0174A92F84410C9B2DC
:1054100092F84520D2B2914203D16C21114AD17049
:105420000DE00132272A00D900220F48811891F897
:105430004810C9B20B4CE171D2B280F8452013F08C
:10544000400F0BD0074B1B7913F0400F06D0002202
:10545000054B83F870202C22024BDA705DF8044B68
:10546000704700BF00B00E40E020FF1F064A1378CF
:10547000DBB25078C0B2834201D3181A70471B1AAE
:1054800003F14000704700BFE020FF1F10B42A4B1B
:105490001B7913F0200F16D0274BDB79D9B2274B9D
:1054A00093F8713001333F2B00D90023234A92F83F
:1054B0007220D2B2934206D0204AD01880F87410DD
:1054C000DBB282F871301C4BDB78DBB213F0800F5B
:1054D0001FD0194A127912F0800F1AD0174A92F889
:1054E000B410C9B292F8B520D2B2914203D16C2166
:1054F000114AD1700DE00132272A00D900220F484D
:10550000811891F8B810C9B20B4CE171D2B280F891
:10551000B52013F0400F0BD0074B1B7913F0400F51
:1055200006D00022054B83F8E0202C22024BDA70D3
:105530005DF8044B704700BF00D00640E020FF1F1D
:10554000074A92F87130DBB292F87200C0B283421F
:1055500001D3181A70471B1A03F14000704700BFAF
:10556000E020FF1F10B42A4B1B7913F0200F16D038
:10557000274BDB79D9B2274B93F8E13001333F2B2E
:1055800000D90023234A92F8E220D2B2934206D0F7
:10559000204AD01880F8E410DBB282F8E1301C4BCE
:1055A000DB78DBB213F0800F1FD0194A127912F0AA
:1055B000800F1AD0174A92F82411C9B292F8252107
:1055C000D2B2914203D16C21114AD1700DE0013267
:1055D000272A00D900220F48811891F82811C9B252
:1055E0000B4CE171D2B280F8252113F0400F0BD0A3
:1055F000074B1B7913F0400F06D00022054B83F8B0
:1056000050212C22024BDA705DF8044B704700BF2A
:1056100000C00640E020FF1F074A92F8E130DBB2ED
:1056200092F8E200C0B2834201D3181A70471B1AE5
:1056300003F14000704700BFE020FF1F10B4384B5B
:105640001B7913F0300F29D072B6354B9A7D02F0DA
:10565000FF032AB9324BDA7940225A7462B61DE050
:1056600062B6304A92F85101C0B292F85241E4B2A7
:105670002B4AD279D1B2421C3F2A00D90022A24241
:1056800004D02848104480F854111046013B13F010
:10569000FF03EDD1C0B2234B83F85101204BDB78DF
:1056A000DBB213F0800F29D01D4A127912F0800F5F
:1056B00024D01C4A92F89441E4B292F89521D2B2D7
:1056C000A2420FD00132272A00D9002214490879BA
:1056D0001448104490F89801C0B2C871097DC9B24D
:1056E0000729EDD9D2B20F4981F895210C4A1279D8
:1056F00012F0800F02D07C21094AD17013F0400FC4
:105700000BD0074B1B7913F0400F06D00022054B3E
:1057100083F8C0213C22024BDA705DF8044B7047DD
:1057200000B00640E020FF1F074A92F85131DBB27B
:1057300092F85201C0B2834201D3181A70471B1A63
:1057400003F14000704700BFE020FF1F704700BF1B
:10575000704700BF704700BF704700BF1D4BD3F8B4
:10576000C4312BB98360C3601A4BC3F8C4012EE067
:1057700001681A6891420BD283600022C260D8602F
:1057800001681A68521A1A60124BC3F8C4011EE06D
:105790009A68A2B119680268521A02609B68196877
:1057A0008A42F5D28360DA68C260D860C2689060CD
:1057B00001681A68521A1A60022303757047196843
:1057C0000268521A026000228260C360986002235D
:1057D00003757047E020FF1F10B5194BD3F8C44183
:1057E000E4B1236813B1013B236017E0A3680BB158
:1057F0000022DA60124AC2F8C43100212175206902
:1058000003681B682246984763681BB123602046E3
:10581000FFF7A4FF0A4BD3F8C441E1E7EFF310838D
:1058200072B6074AD2F8C8010021C2F8C81103B9FC
:1058300062B620B18468FFF791FF2046F9E710BDFA
:10584000E020FF1F08B5044AD2F8CC310133C2F87A
:10585000CC31FFF7C1FF08BDE020FF1F08B5EFF313
:10586000108272B60A4BD3F8D00168B14369084977
:10587000C1F8D0310BB10021996102B962B60023A1
:10588000437783689847EAE702B962B608BD00BF6C
:10589000E020FF1F08B5FFF7E1FF08BD08B54FF690
:1058A000FF710120FEF764FC4FF6FF710120FFF746
:1058B000A3FB4FF6FF710120FFF720FC4FF6FF71AD
:1058C0000120FFF70DFD4FF6FF710120FFF70AFDE4
:1058D0004FF6FF710120FFF707FD4FF6FF71012022
:1058E000FBF78AFB4FF6FF710120FBF703FC4FF635
:1058F000FF710120FBF778FD08BD00BF72B6184BA1
:1059000070221A701749184A116080221A70144BBD
:105910001B7813F0800FFAD000B585B0134B1868D0
:1059200062B6134B984202D80A2303FB00F00A2206
:1059300001A9FDF7D7FD002309E004AA1A4412F8D3
:105940000C1C31B10B4A02EB430251800133092B8D
:10595000F3D901335B00074A137005B05DF804FB0F
:105960000000024000000741040002400C00024019
:105970007F969800C00AFF1F204B93F8D431002B6C
:105980003AD110B51D4C012384F8D431FDF72CF821
:10599000FFF7CAFEFFF740FEFFF7D2FDFCF7F6FC6B
:1059A000FFF764FD002384F8D431EFF3058313BBC4
:1059B000EFF3108372B6D4F8D80110B9DBB962B630
:1059C00010BD0E4A92F8DC2112B1A3B962B610BD27
:1059D0000A49012281F8DC214269C1F8D8210AB1C3
:1059E0000021916103B962B6002444778368984727
:1059F000024B83F8DC4110BD704700BFE020FF1F61
:105A000008B5104B93F8DD3113F0FF0F19D10D4B92
:105A1000D3F8E01149B14B880B800420FCF772FBEE
:105A20000022084BC3F8E02108BDFBF777FF0146D1
:105A300018B10420FCF766FB08BD0122014B83F876
:105A4000E42108BDE020FF1F38B5174B93F8E5317E
:105A500013F0FF0F26D0144B012283F8DD21D3F879
:105A6000E01159B11C46002583F8E4514B880B80A6
:105A70000420FCF747FBC4F8E0510FE0FBF74EFFB2
:105A8000014638B10022084B83F8E4210420FCF7DA
:105A900039FB03E00122044B83F8E4210022024B8E
:105AA00083F8DD2138BD00BFE020FF1F08B5134B90
:105AB000012283F8DD21D3F8E031ABB90F4B93F825
:105AC000E53113F0FF0F0AD00420FCF76BFB072829
:105AD00005D8FBF723FF094BC3F8E00120B90020EC
